:100000000C9462000C948A000C948A000C948A0070
:100010000C948A000C948A000C948A000C948A0038
:100020000C948A000C948A000C948A000C948A0028
:100030000C948A000C948A000C948A000C948A0018
:100040000C94B9000C948A000C94AB040C947004CA
:100050000C948A000C948A000C948A000C948A00F8
:100060000C948A000C948A000000000023002600F3
:10007000290000000000240027002A0000000000E2
:10008000250028002B0004040404040404040202D4
:100090000202020203030303030301020408102007
:1000A0004080010204081020010204081020000012
:1000B0000007000201000003040600000000000029
:1000C0000000680911241FBECFEFD8E0DEBFCDBF0E
:1000D00012E0A0E0B1E0E2EBFAE102C005900D927F
:1000E000A034B107D9F723E0A0E4B2E001C01D922B
:1000F000AF3DB207E1F710E0C2E6D0E004C02197BF
:10010000FE010E94510DC136D107C9F70E94CC05EE
:100110000C94E90A0C940000CF93DF93EC018EE07D
:100120000E94E504BC01990F880B990B0E94080CF2
:1001300020E030E040E851E40E94BD0C20E030ECCB
:100140004FE754E40E945E0B6A837B838C839D831C
:1001500080E491E00E949D026A817B818C819D8177
:1001600042E00E94000383E691E0DF91CF910C947E
:100170009D021F920F920FB60F9211242F933F935F
:100180008F939F93AF93BF938091420290914302CC
:10019000A0914402B09145023091410223E0230F27
:1001A0002D3720F40196A11DB11D05C026E8230FAF
:1001B0000296A11DB11D20934102809342029093AB
:1001C0004302A0934402B09345028091460290916D
:1001D0004702A0914802B09149020196A11DB11DAC
:1001E0008093460290934702A0934802B09349023D
:1001F000BF91AF919F918F913F912F910F900FBE23
:100200000F901F9018950F931F93FC018FB7F894D0
:100210004091420250914302609144027091450224
:100220008FBF848595850197C9F400811181228152
:10023000338184819581A681B781840F951FA61F84
:10024000B71F401751076207730720F0801B910BFF
:10025000A20BB30B84839583A683B783408351831A
:100260006283738380859185A285B3850097A105FC
:10027000B10589F04481558166817781841795079E
:10028000A607B70750F481E090E09787868714822D
:10029000158216821782158614861F910F91089574
:1002A000CF93DF93EC010E9403011C821D821E820A
:1002B0001F821F861E86DF91CF9108950F931F9393
:1002C000CF93DF938C010A5F1F4FFC01248935898E
:1002D00021303105B1F4EC01158A148A338B228B5D
:1002E0000E948C0026E636E646E451E46A817B8172
:1002F0008C819D810E94590B181654F4C8010E94EC
:100300005001C801DF91CF911F910F910C9403010F
:1003100087E491E00E949D02F1CF40E65AEE60E052
:1003200070E0FC0146875787608B718B21E030E0DD
:10033000338B228B06960C945001FC01148215829B
:1003400016821782158614861086118612861386E9
:1003500010821182128213821786168608950F93D7
:100360001F93CF93DF93FC01A685B7858D01005CB9
:100370001F4FE8018881998101968F739927AD01FC
:100380004E5B5F4FEA012881398128173907D1F385
:10039000E80128813981A20FB31F6C93A685B78528
:1003A000A05CBF4F11969C938E93A689B7892C9120
:1003B00081E090E0078C02C0880F991F0A94E2F751
:1003C000822B8C9381E081A30488F589E02D8081C4
:1003D0008064808381E090E0DF91CF911F910F9145
:1003E0000895FC0181A1882329F0A489B5898C9105
:1003F00086FFFBCF11A20895FC01A485B585FD0100
:10040000E05CFF4F208131813296808191812817F5
:10041000390779F080819181A80FB91F8C912081D3
:1004200031812F5F3F4F2F7333273183208390E03B
:1004300008958FEF9FEF0895DC011C96ED91FC91DC
:100440001D97DF01A05CBF4F2D913C911197129633
:100450008D919C9111972817390739F08D919C91B6
:10046000E80FF91F808190E008958FEF9FEF0895C6
:10047000FC0124853585F901E05CFF4F8081918185
:10048000329620813181821B930B8F7399270895B7
:100490000895CF92DF92EF92FF920F931F93CF9325
:1004A000DF936C01EB017B01E40EF51E00E010E030
:1004B000CE15DF0561F06991D601ED91FC910190B7
:1004C000F081E02DC6010995080F191FF1CFC80171
:1004D000DF91CF911F910F91FF90EF90DF90CF9020
:1004E0000895009769F0FC0101900020E9F7319729
:1004F000AF01481B590BBC018AE492E00C944902FD
:1005000080E090E008958091C402882349F08091B2
:10051000C502882329F081E09091C602911101C0A3
:1005200080E008958091C702811105C00E94830276
:1005300091E08927089580E008950C947102EDE61A
:10054000F2E010A211A280899189A289B3898087E3
:100550009187A287B38781E090E09587848713A273
:10056000CF010C9450018F929F92AF92BF92EF9265
:10057000FF920F931F93CF93DF93CDB7DEB7A19771
:100580000FB6F894DEBF0FBECDBF162F042F19A2F1
:10059000423008F40AE07E0121E2E20EF11C802ED6
:1005A000912CA12CB12C612FA50194010E942F0D3B
:1005B000029F1019112481E0E81AF1081A3014F48E
:1005C000105D01C0195CF7011083122F732FCA014F
:1005D000232B242B252B39F7C7010E947102A196EA
:1005E0000FB6F894DEBF0FBECDBFDF91CF911F9144
:1005F0000F91FF90EF90BF90AF909F908F900895D4
:100600004F925F926F927F928F929F92AF92BF9222
:10061000CF92DF92EF92FF92CF93DF936B017C0139
:10062000B42E9B01AC010E942A0D882319F08EEF95
:1006300091E027C026013701E89477F82FEF3FEFCC
:100640004FE75FE7C301B2010E942A0D81110DC07F
:100650002FEF3FEF4FE75FE7C301B2010E94590B55
:1006600018161CF482E092E00CC02FEF3FEF4FE72A
:100670005FE4C701B6010E94B80C181694F486E036
:1006800092E0DF91CF91FF90EF90DF90CF90BF90FD
:10069000AF909F908F907F906F905F904F900C9451
:1006A00071022FEF3FEF4FE75FECC701B6010E94E9
:1006B000590B87FDE4CF20E030E0A901C701B60166
:1006C0000E94590B87FF0BC06DE28AE492E00E9402
:1006D000AF01EC01F7FAF094F7F8F09402C0C0E033
:1006E000D0E0A12C60E070E080E09FE3BA1441F01C
:1006F00020E030E040E251E40E945E0BA394F6CF8C
:10070000A70196010E94ED0A6B017C010E94D70BA4
:100710002B013C014AE00E94B302C80FD91FBB2045
:1007200009F450C0C301B2010E94060C9B01AC0148
:10073000C701B6010E94EC0A2B013C018AE092E05D
:100740000E947102C80FD91FFB2C20E030E040E26C
:1007500051E4C301B2010E94BD0C2B013C010E9477
:10076000D00B4B01770FAA08BB08B7FE15C06DE28E
:100770008AE492E00E94AF016C0188279927DC018E
:1007800088199909AA09BB094AE0BC01CD010E9458
:10079000B3028C0D9D1D05C04AE0C501B4010E9445
:1007A000B302C80FD91FC501B4010E94080C9B01F8
:1007B000AC01C301B2010E94EC0A2B013C01FA9486
:1007C000F110C3CFCE01DF91CF91FF90EF90DF907A
:1007D000CF90BF90AF909F908F907F906F905F90E1
:1007E0004F9008950F931F93CF930DEC12E0C0E04C
:1007F0008CE092E00E949D02C23051F0C33059F06B
:10080000C13019F085E192E008C08FE192E005C0A7
:1008100089E292E002C083E392E00E949D02F80127
:1008200061917191819191918F0142E00E94000349
:100830008DE392E00E949D02CF5FC430C9F6CF9154
:100840001F910F91089580917B0290917C028130DD
:100850009105B9F510927C0210927B0290937A0276
:100860008093790280918E0290918F02981760F0A8
:100870008F5F80938E0280918D028F5F80938D02B7
:100880008DE692E00E94500181E080939002E09119
:100890008E0284E0E89FF0011124E358FD4F80812F
:1008A0009181A281B3818093750290937602A09387
:1008B0007702B093780281E090E090937A0280937F
:1008C000790290918E0280918F02891728F480918D
:1008D000910281110E949F028DE692E00C94030127
:1008E0001F920F920FB60F9211242F933F938F9365
:1008F0009F93EF93FF9320919703309198038091FA
:10090000990390919A032817390731F48091C10017
:100910008F7D8093C10014C0E0919903F0919A03F8
:10092000E95AFC4F20818091990390919A03019696
:100930008F73992790939A03809399032093C6000D
:10094000FF91EF919F918F913F912F910F900FBE4B
:100950000F901F9018951F920F920FB60F921124AF
:100960002F934F935F938F939F93EF93FF93809178
:10097000C00082FD1CC02091C6008091DB039091D5
:10098000DC034091DD035091DE0301968F739927BC
:100990004817590771F0E091DB03F091DC03E5564D
:1009A000FC4F20839093DC038093DB0302C0809193
:1009B000C600FF91EF919F918F915F914F912F9181
:1009C0000F900FBE0F901F9018958E3008F08E502C
:1009D0008770806480937C0080917A00806480932B
:1009E0007A0080917A0086FDFCCF8091780020917A
:1009F000790090E0922B0895833081F028F48130C3
:100A000099F08230A1F008958630A9F08730B9F0CE
:100A10008430D1F4809180008F7D03C0809180006C
:100A20008F7780938000089584B58F7702C084B556
:100A30008F7D84BD08958091B0008F7703C0809131
:100A4000B0008F7D8093B00008951F93CF93DF9304
:100A5000282F30E0F901E255FF4F8491F901E65665
:100A6000FF4FD491F901EA57FF4FC491CC23C1F055
:100A7000162F81110E94FC04EC2FF0E0EE0FFF1FF7
:100A8000E458FF4FA591B4919FB7F894111104C099
:100A90008C91D095D82302C0EC91DE2BDC939FBFC4
:100AA000DF91CF911F910895CF93DF9390E0FC01E8
:100AB000E656FF4F2491FC01EA57FF4F84918823AB
:100AC00061F190E0880F991FFC01EE58FF4FC5912E
:100AD000D491FC01E458FF4FA591B491611109C074
:100AE0009FB7F8948881209582238883EC912E23E8
:100AF0000BC0623061F49FB7F8948881322F309533
:100B000083238883EC912E2B2C939FBF06C08FB735
:100B1000F894E8812E2B28838FBFDF91CF91089521
:100B2000FF920F931F93CF93DF93F62EEC018C016E
:100B30000C5F1F4F6F2D89910E945405C017D1077C
:100B4000C9F7DF91CF911F910F91FF9008953FB7A3
:100B5000F8948091460290914702A0914802B0918A
:100B6000490226B5A89B05C02F3F19F00196A11D8B
:100B7000B11D3FBFBA2FA92F982F8827820F911D33
:100B8000A11DB11DBC01CD0142E0660F771F881F7A
:100B9000991F4A95D1F70895789484B5826084BDF1
:100BA00084B5816084BD85B5826085BD85B5816071
:100BB00085BD80916E00816080936E0010928100EF
:100BC00080918100826080938100809181008160AA
:100BD000809381008091800081608093800080916B
:100BE000B10084608093B1008091B00081608093F7
:100BF000B00080917A00846080937A0080917A00BE
:100C0000826080937A0080917A00816080937A007C
:100C100080917A00806880937A001092C100E09100
:100C20005E02F0915F02C1E0D0E0CE0100906A0266
:100C300002C0880F991F0A94E2F78083E0915A025C
:100C4000F0915B021082E0915C02F0915D028FEC0A
:100C5000808310926B02E0916002F091610220812A
:100C6000CE010090660202C0880F991F0A94E2F735
:100C7000822B8083E0916002F09161022081CE019D
:100C80000090670202C0880F991F0A94E2F7822B36
:100C90008083E0916002F09161022081CE0100909A
:100CA000680202C0880F991F0A94E2F7822B8083A2
:100CB000E0916002F091610290819E0100906902D2
:100CC00002C0220F331F0A94E2F7822F80958923F6
:100CD000808382E591E00E949D0261E08DE00E94A8
:100CE000540560E084E091E00E94900560E080E0BF
:100CF00091E00E94900561E088E091E00E949005FB
:100D000061E08CE00E94540561E087E00E94540598
:100D100084EF91E0A0E0B0E080934F039093500304
:100D2000A0935103B0935203D0935403C093530341
:100D300080E395E7A0E0B0E080933F039093400309
:100D4000A0934103B0934203D0934403C093430361
:100D500081E293E00E948C008AE492E00E94F1011B
:100D60000E94A705EB0160E7C62E67E1D62EE12CB5
:100D7000F12C0E94A7056C1B7D0B683E7340C8F3E5
:100D800091E0C91AD108E108F108C851DC4FC1143B
:100D9000D104E104F10469F785E691E00E949D0227
:100DA0005BE0252E51E0352E80916C02882311F0F6
:100DB00061E001C060E08DE00E942505809155034F
:100DC0009091560381309105B1F410925603109220
:100DD0005503909354038093530380916C028111C7
:100DE00004C081E080936C0202C010926C0287E420
:100DF00093E00E94500187E493E00E94030181E2A6
:100E000093E00E945E0184EF91E0A0E0B0E0809367
:100E10004F0390935003A0935103B0935203A1E06A
:100E2000B0E0B0935403A093530380914503909195
:100E300046038130910559F4109246031092450300
:100E4000909344038093430381E0809340020E9487
:100E50008302811104C080918D02813029F487E3DF
:100E600093E00E94030106C01092400287E393E0E2
:100E70000E9450018091A1029091A20281309105BF
:100E800009F002C21092A2021092A1029093A00255
:100E900080939F0283E992E00E9450018091B30207
:100EA000803108F05FC0F82E44E0E42EE80E809117
:100EB000B302FE1408F052C00F2D10E0CF2DC81B56
:100EC000D0E0C359DD4FFE01E55AFF4F208130E0ED
:100ED000F901E255FF4F8491F901E656FF4FD49096
:100EE000F901EA57FF4FC490CC2079F081110E949C
:100EF000FC04EC2DF0E0EE0FFF1FE859FF4FA59129
:100F0000B491EC91DE2281E009F480E0F801EC5428
:100F1000FD4F8083C059DF4F88810E94E504000F98
:100F2000111F000F111FE801CF51DD4FBC01990FB8
:100F3000880B990B0E94080C2EEA37E04EE753E429
:100F40000E94BD0C20E030EC4FE754E40E945E0BA1
:100F5000688379838A839B83F394A9CF8C5F809382
:100F6000B302B0C01092B302CDE6D2E08E01C12C24
:100F7000D12CF801E95BFF4F908134968081892B59
:100F800034969081892B34969081892B3496908168
:100F9000891711F0CC24C39480837E01B0E6EB0E58
:100FA000F11CFE01EC58FF4FDE01AC57BF4F2D91F5
:100FB0003D914D915C9160817181828193810E940C
:100FC000ED0AFE01EC56FF4F2081318142815381B1
:100FD0000E94ED0AFE01EC55FF4F208131814281D4
:100FE00053810E94ED0A20E030E040E85EE30E9479
:100FF000BD0CF7016083718382839383D3940F5F69
:101000001F4F2496F4E0DF12B4CFCC2009F45AC06D
:101010008091C602811115C08091C402813051F4C3
:101020008091C502811108C08BE691E00E949D026B
:1010300011E014C0811111C08091C5028130A1F36B
:101040000CC0813051F48091C402882349F381306F
:1010500021F48091C502882339F310E0C4ECD2E07A
:10106000C12CD12C7601C394899181110DC082E8E5
:1010700091E00E949D024AE0C701B6010E94B302BE
:1010800089E891E00E949D028FEFC81AD80AE80A09
:10109000F80A95E0C916D104E104F10429F7111109
:1010A00011C00E948302811107C00E94920288230E
:1010B00039F089E991E002C080ED91E00E949D0243
:1010C0000E94F2038091B1029091B20281309105A9
:1010D00009F0DFC0C091CC021092B2021092B102AE
:1010E0009093B0028093AF0283EA92E00E94500195
:1010F0008090CD029090CE02A090CF02B090D0020E
:101100004090D1025090D2026090D3027090D402ED
:1011100020E030E040E251E4C501B4010E94BD0C82
:1011200020E030E048EC52E40E945E0B9B01AC01F1
:10113000C501B4010E94EC0AA30192010E94B80CFF
:10114000C090D502D090D602E090D702F090D8029D
:1011500020E030E040E251E41816DCF4C701B601AB
:101160000E94BD0C20E030E048EC52E40E945E0B8F
:101170009B01AC01C701B6010E94EC0A9B01AC01C6
:10118000C501B4010E94590B881F8827881F880F4A
:101190001AC0C701B6010E94BD0C20E030E048EC47
:1011A00052E40E945E0B9B01AC01C701B6010E9494
:1011B000EC0A9B01AC01C301B2010E94590B881FCC
:1011C0008827881F8F5F8093CC02C8130E94F20388
:1011D0000E949202C1E0D82FDC270E9483028C2754
:1011E0008093920290918D02913059F018F09230D4
:1011F000B9F412C0DD23A1F0882391F00E942304EA
:1012000011C0DD2369F08823C9F3109290028DE6A6
:1012100092E00E94500106C0DD2311F0882371F393
:101220000E949F020E949202882311F061E001C097
:1012300060E08CE00E94250580918D02833031F0C2
:10124000811106C080919202811102C061E001C04B
:1012500060E087E00E94250580918D028130F1F4E5
:10126000C8E0D1E060E089910E9425052C163D067A
:10127000C9F780914002882311F061E001C060E06D
:1012800086E00E94250590CD83E992E00E9403014B
:1012900019CF83EA92E00E9403019ACF0091CC0219
:1012A00060E086E00E942505C8E0D1E010E001136F
:1012B00006C080914002882311F061E001C060E027
:1012C00088810E9425051F5F2196133081F76CCD20
:1012D0008F929F92AF92BF92CF92DF92EF92FF9246
:1012E0000F931F93CF93DF93CDB7DEB7C056D109CD
:1012F0000FB6F894DEBF0FBECDBF10924D02109214
:101300004C0288EE93E0A0E0B0E080934E02909310
:101310004F02A0935002B09351028CE291E090935F
:101320004B0280934A028BE993E09093570280939B
:10133000560287E593E0909359028093580285EC1A
:1013400090E090935B0280935A0284EC90E090933B
:101350005D0280935C0280EC90E090935F0280934A
:101360005E0281EC90E0909361028093600282ECD7
:1013700090E0909363028093620286EC90E09093F9
:1013800065028093640284E08093660283E0809328
:10139000670287E08093680285E08093690211E02C
:1013A00010936A0287E493E00E949D0187E393E033
:1013B0000E949D018CE391E090932203809321038E
:1013C00010922303109224031092250310922603F7
:1013D00087E293E00E949D0181E293E00E948D01EB
:1013E0008DE692E00E949D0110927D0210927E0295
:1013F00010927F021092800210928F02109391023D
:101400000E949F0288EB9BE0A0E0B0E080937D0209
:1014100090937E02A0937F02B09380020E949F026D
:1014200080E797E1A0E0B0E0809381029093820290
:10143000A0938302B093840280918F02811102C035
:1014400010938F020E949F0288EB9BE0A0E0B0E027
:101450008093850290938602A0938702B0938802BE
:1014600080918F02823018F482E080938F020E9474
:101470009F021092910283E992E00E949D0183EA0B
:1014800092E00E949D0180900C0190900D01A0902F
:101490000E01B0900F0180E1E0E1F1E0DE01AF5A12
:1014A000BF4F01900D928A95E1F780E18E010F5BAD
:1014B0001F4FF801482F11924A95E9F790E49E01D9
:1014C0002F5F3F4FF901492F11924A95E9F7C090DC
:1014D0002001D0902101E0902201F0902301409161
:1014E00024015091250160912601709127011092ED
:1014F000B3028092C4029092C502A092C602B0923A
:10150000C702FE01EF5AFF4FA4EBB2E0B82E0190E4
:101510000D92BA94E1F7C092C802D092C902E0924B
:10152000CA02F092CB024093DD025093DE02609338
:10153000DF027093E002F801ADECB2E001900D9291
:101540008A95E1F7F901A1EEB2E001900D929A952A
:10155000E1F78EE190E0A0E0B0E080939B029093F1
:101560009C02A0939D02B0939E0201E010E01093B4
:10157000A00200939F0283E992E00E94500182E35F
:1015800090E0A0E0B0E08093AB029093AC02A09317
:10159000AD02B093AE021093B0020093AF0283EAA3
:1015A00092E00E94500110926C02C05ADF4F0FB6B9
:1015B000F894DEBF0FBECDBFDF91CF911F910F9189
:1015C000FF90EF90DF90CF90BF90AF909F908F9063
:1015D0000895F8940C94570D5058BB27AA270E94E1
:1015E000040B0C947E0C0E94700C38F00E94770C57
:1015F00020F039F49F3F19F426F40C946D0C0EF48E
:10160000E095E7FB0C94670CE92F0E948F0C58F3D0
:10161000BA17620773078407950720F079F4A6F5D7
:101620000C94B10C0EF4E0950B2EBA2FA02D0B01EB
:10163000B90190010C01CA01A0011124FF27591B17
:1016400099F0593F50F4503E68F11A16F040A22F1D
:10165000232F342F4427585FF3CF4695379527958E
:10166000A795F0405395C9F77EF41F16BA0B620B8D
:10167000730B840BBAF09150A1F0FF0FBB1F661FD4
:10168000771F881FC2F70EC0BA0F621F731F841F17
:1016900048F4879577956795B795F7959E3F08F03D
:1016A000B0CF9395880F08F09927EE0F97958795FF
:1016B00008950E94430C08F481E008950E94720B83
:1016C0000C947E0C0E94770C58F00E94700C40F035
:1016D00029F45F3F29F00C94670C51110C94B20C63
:1016E0000C946D0C0E948F0C68F39923B1F3552371
:1016F00091F3951B550BBB27AA2762177307840725
:1017000038F09F5F5F4F220F331F441FAA1FA9F3BA
:1017100035D00E2E3AF0E0E832D091505040E695A8
:10172000001CCAF72BD0FE2F29D0660F771F881F09
:10173000BB1F261737074807AB07B0E809F0BB0BFC
:10174000802DBF01FF2793585F4F3AF09E3F510510
:1017500078F00C94670C0C94B20C5F3FE4F3983E65
:10176000D4F3869577956795B795F7959F5FC9F7F9
:10177000880F911D9695879597F90895E1E0660F7A
:10178000771F881FBB1F621773078407BA0720F0F3
:10179000621B730B840BBA0BEE1F88F7E09508955C
:1017A0000E94D70B6894B1110C94B20C08950E945A
:1017B000970C88F09F5798F0B92F9927B751B0F040
:1017C000E1F0660F771F881F991F1AF0BA95C9F7C5
:1017D00014C0B13091F00E94B10CB1E008950C94A6
:1017E000B10C672F782F8827B85F39F0B93FCCF359
:1017F000869577956795B395D9F73EF49095809542
:10180000709561957F4F8F4F9F4F0895E89409C061
:1018100097FB3EF490958095709561957F4F8F4F23
:101820009F4F9923A9F0F92F96E9BB279395F69539
:10183000879577956795B795F111F8CFFAF4BB0FB7
:1018400011F460FF1BC06F5F7F4F8F4F9F4F16C01B
:10185000882311F096E911C0772321F09EE8872FA5
:10186000762F05C0662371F096E8862F70E060E061
:101870002AF09A95660F771F881FDAF7880F9695DA
:10188000879597F90895990F0008550FAA0BE0E87E
:10189000FEEF16161706E807F907C0F01216130632
:1018A000E407F50798F0621B730B840B950B39F472
:1018B0000A2661F0232B242B252B21F408950A26D8
:1018C00009F4A140A6958FEF811D811D089597F918
:1018D0009F6780E870E060E008959FEF80EC0895D6
:1018E00000240A94161617061806090608950024FF
:1018F0000A9412161306140605060895092E039479
:10190000000C11F4882352F0BB0F40F4BF2B11F4EC
:1019100060FF04C06F5F7F4F8F4F9F4F089557FD4B
:101920009058440F551F59F05F3F71F04795880F4D
:1019300097FB991F61F09F3F79F0879508951216E4
:1019400013061406551FF2CF4695F1DF08C0161690
:1019500017061806991FF1CF869571056105089441
:101960000895E894BB2766277727CB0197F9089558
:101970000E94430C08F48FEF08950E94D00C0C9441
:101980007E0C0E94700C38F00E94770C20F095239A
:1019900011F00C94670C0C946D0C11240C94B20C87
:1019A0000E948F0C70F3959FC1F3950F50E0551F67
:1019B000629FF001729FBB27F00DB11D639FAA27A4
:1019C000F00DB11DAA1F649F6627B00DA11D661FF3
:1019D000829F2227B00DA11D621F739FB00DA11D14
:1019E000621F839FA00D611D221F749F3327A00DCE
:1019F000611D231F849F600D211D822F762F6A2F6A
:101A000011249F5750409AF0F1F088234AF0EE0FCE
:101A1000FF1FBB1F661F771F881F91505040A9F7FB
:101A20009E3F510580F00C94670C0C94B20C5F3F04
:101A3000E4F3983ED4F3869577956795B795F79537
:101A4000E7959F5FC1F7FE2B880F911D96958795AF
:101A500097F908950E94430C880B990B0895A1E211
:101A60001A2EAA1BBB1BFD010DC0AA1FBB1FEE1F18
:101A7000FF1FA217B307E407F50720F0A21BB30B63
:101A8000E40BF50B661F771F881F991F1A9469F7DF
:101A900060957095809590959B01AC01BD01CF013B
:101AA0000895EE0FFF1F0590F491E02D0994F8942E
:021AB000FFCF66
:101AB2000F101112090A0B020304050601010101AC
:101AC2000101010101010101010101010101010104
:101AD200090A0B020F10111200000000AF014902A7
:101AE2003802FC011C02F101000000008D015E01C0
:101AF200764261743A200076426174204C4F57213D
:101B02000A00496E697469616C697A696E67202E90
:101B12002E2E200A00446F6E650A0041626E6F72BB
:101B22006D616C20706F77657220696E70757421BB
:101B32000A00506861736520003A20646973636F1C
:101B42006E6E65637465640A004E6F20706F776510
:101B5200722070726573656E74206174207468659A
:101B6200206D61696E732C207374617274696E6783
:101B72002067656E657261746F72202E2E2E0A00C8
:101B8200506F7765722070726573656E742C207267
:101B920065636F6E6E656374696E6720746F20741F
:101BA2006865206D61696E73202E2E2E0A006E61AB
:101BB2006E00696E66006F7666002E00566F6C745A
:101BC2006167652000706861736520523A20007079
:101BD2006861736520533A20007068617365205410
:101BE2003A2000706861736520473A2000560A0067
:00000001FF
