:100000000C9462000C948A000C948A000C948A0070
:100010000C948A000C948A000C948A000C948A0038
:100020000C948A000C948A000C948A000C948A0028
:100030000C948A000C948A000C948A000C948A0018
:100040000C9477040C948A000C943D040C940204E4
:100050000C948A000C948A000C948A000C948A00F8
:100060000C948A000C948A000000000023002600F3
:10007000290000000000240027002A0000000000E2
:10008000250028002B0004040404040404040202D4
:100090000202020203030303030301020408102007
:1000A0004080010204081020010204081020000012
:1000B0000007000201000003040600000000000029
:1000C0000000D30411241FBECFEFD8E0DEBFCDBFA8
:1000D00012E0A0E0B1E0E4E3F6E102C005900D9289
:1000E000A236B107D9F723E0A2E6B2E001C01D9223
:1000F000AC39B207E1F710E0C2E6D0E004C02197C6
:10010000FE010E94120BC136D107C9F70E94DB0520
:100110000C94AA080C9400000F931F93CF93DF93C5
:10012000FC01A685B7858D01005C1F4FE801888121
:10013000998101968F739927AD014E5B5F4FEA015C
:100140002881398128173907D1F3E80128813981BD
:10015000A20FB31F6C93A685B785A05CBF4F119605
:100160009C938E93A689B7892C9181E090E0078CAF
:1001700002C0880F991F0A94E2F7822B8C9381E0CA
:1001800081A30488F589E02D80818064808381E0EB
:1001900090E0DF91CF911F910F910895FC0181A113
:1001A000882329F0A489B5898C9186FFFBCF11A201
:1001B0000895FC01A485B585FD01E05CFF4F208119
:1001C00031813296808191812817390779F08081B9
:1001D0009181A80FB91F8C91208131812F5F3F4FF2
:1001E0002F7333273183208390E008958FEF9FEFA3
:1001F0000895DC011C96ED91FC911D97DF01A05C38
:10020000BF4F2D913C91119712968D919C91119712
:100210002817390739F08D919C91E80FF91F8081DB
:1002200090E008958FEF9FEF0895FC0124853585B8
:10023000F901E05CFF4F808191813296208131810C
:10024000821B930B8F73992708950895CF92DF92A5
:10025000EF92FF920F931F93CF93DF936C01EB010B
:100260007B01E40EF51E00E010E0CE15DF0561F025
:100270006991D601ED91FC910190F081E02DC601CC
:100280000995080F191FF1CFC801DF91CF911F9178
:100290000F91FF90EF90DF90CF900895833081F021
:1002A00028F4813099F08230A1F008958630A9F0C9
:1002B0008730B9F08430D1F4809180008F7D03C005
:1002C000809180008F7780938000089584B58F7728
:1002D00002C084B58F7D84BD08958091B0008F7772
:1002E00003C08091B0008F7D8093B00008951F936C
:1002F000CF93DF93282F30E0F901E255FF4F84912F
:10030000F901E656FF4FD491F901EA57FF4FC49126
:10031000CC23C1F0162F81110E944E01EC2FF0E08A
:10032000EE0FFF1FE458FF4FA591B4919FB7F894CB
:10033000111104C08C91D095D82302C0EC91DE2B12
:10034000DC939FBFDF91CF911F910895CF93DF93EF
:1003500090E0FC01E656FF4F2491FC01EA57FF4F65
:100360008491882361F190E0880F991FFC01EE5879
:10037000FF4FC591D491FC01E458FF4FA591B49172
:10038000611109C09FB7F8948881209582238883E2
:10039000EC912E230BC0623061F49FB7F8948881F2
:1003A000322F309583238883EC912E2B2C939FBF83
:1003B00006C08FB7F894E8812E2B28838FBFDF917A
:1003C000CF9108953FB7F89480916C0290916D029F
:1003D000A0916E02B0916F0226B5A89B05C02F3F79
:1003E00019F00196A11DB11D3FBFBA2FA92F982F5B
:1003F0008827820F911DA11DB11DBC01CD0142E0D6
:10040000660F771F881F991F4A95D1F708950F939C
:100410001F93FC018FB7F8944091680250916902D4
:1004200060916A0270916B028FBF848595850197F8
:10043000C9F4008111812281338184819581A68153
:10044000B781840F951FA61FB71F4017510762077A
:10045000730720F0801B910BA20BB30B8483958351
:10046000A683B7834083518362837383808591859C
:10047000A285B3850097A105B10589F04481558116
:100480006681778184179507A607B70750F481E046
:1004900090E09787868714821582168217821586C8
:1004A00014861F910F910895CF93DF93EC010E9462
:1004B00007021C821D821E821F821F861E86DF91FC
:1004C000CF910895009769F0FC0101900020E9F7B1
:1004D0003197AF01481B590BBC0188EF92E00C9497
:1004E000260180E090E008950C9462028F929F9222
:1004F000AF92BF92EF92FF920F931F93CF93DF9330
:10050000CDB7DEB7A1970FB6F894DEBF0FBECDBF53
:10051000162F042F19A2423008F40AE07E0121E2CE
:10052000E20EF11C802E912CA12CB12C612FA50183
:1005300094010E94F00A029F1019112481E0E81A28
:10054000F1081A3014F4105D01C0195CF701108332
:10055000122F732FCA01232B242B252B39F7C70108
:100560000E946202A1960FB6F894DEBF0FBECDBF07
:10057000DF91CF911F910F91FF90EF90BF90AF90BF
:100580009F908F9008954F925F926F927F928F927B
:100590009F92AF92BF92CF92DF92EF92FF92CF9352
:1005A000DF936B017C01B42E9B01AC010E94EB0A2E
:1005B000882319F082E291E027C026013701E894F0
:1005C00077F82FEF3FEF4FE75FE7C301B2010E94DB
:1005D000EB0A81110DC02FEF3FEF4FE75FE7C3013B
:1005E000B2010E941A0918161CF486E291E00CC0B0
:1005F0002FEF3FEF4FE75FE4C701B6010E94790A92
:10060000181694F48AE291E0DF91CF91FF90EF9079
:10061000DF90CF90BF90AF909F908F907F906F9022
:100620005F904F900C9462022FEF3FEF4FE75FEC2B
:10063000C701B6010E941A0987FDE4CF20E030E02F
:10064000A901C701B6010E941A0987FF0BC06DE21C
:1006500088EF92E00E948C00EC01F7FAF094F7F832
:10066000F09402C0C0E0D0E0A12C60E070E080E037
:100670009FE3BA1441F020E030E040E251E40E94F0
:100680001F09A394F6CFA70196010E94AE086B0143
:100690007C010E9498092B013C014AE00E947602ED
:1006A000C80FD91FBB2009F450C0C301B2010E947A
:1006B000C7099B01AC01C701B6010E94AD082B011F
:1006C0003C018EE291E00E946202C80FD91FFB2C10
:1006D00020E030E040E251E4C301B2010E947E0A12
:1006E0002B013C010E9491094B01770FAA08BB081E
:1006F000B7FE15C06DE288EF92E00E948C006C019D
:1007000088279927DC0188199909AA09BB094AE0B9
:10071000BC01CD010E9476028C0D9D1D05C04AE0F2
:10072000C501B4010E947602C80FD91FC501B401EA
:100730000E94C9099B01AC01C301B2010E94AD082E
:100740002B013C01FA94F110C3CFCE01DF91CF9180
:10075000FF90EF90DF90CF90BF90AF909F908F90E1
:100760007F906F905F904F90089580E480937C001D
:1007700080917A00806480937A0080917A0086FD6F
:10078000FCCF609178008091790070E0782B072E83
:10079000000C880B990B0E94C90920E030E040E86A
:1007A00051E40E947E0A20E030E040E85AE30E94D3
:1007B0007E0A609362027093630280936402909356
:1007C000650226E636E646E451E40E941A09181648
:1007D000B4F081E08093660280E391E00E947402AD
:1007E000609162027091630280916402909165024F
:1007F00042E00E94C30284E891E00C9474021092DB
:10080000660208951F920F920FB60F9211242F9334
:100810003F938F939F93EF93FF932091B00230917A
:10082000B1028091B2029091B3022817390731F4D6
:100830008091C1008F7D8093C10014C0E091B2020D
:10084000F091B302E059FD4F20818091B202909166
:10085000B30201968F7399279093B3028093B202EB
:100860002093C600FF91EF919F918F913F912F911F
:100870000F900FBE0F901F9018951F920F920FB6FA
:100880000F9211242F934F935F938F939F93EF9326
:10089000FF938091C00082FD1CC02091C600809112
:1008A000F4029091F5024091F6025091F702019600
:1008B0008F7399274817590771F0E091F402F0916E
:1008C000F502EC54FD4F20839093F5028093F402DF
:1008D00002C08091C600FF91EF919F918F915F912F
:1008E0004F912F910F900FBE0F901F9018951F9250
:1008F0000F920FB60F9211242F933F938F939F93D4
:10090000AF93BF938091680290916902A0916A02AF
:10091000B0916B023091670223E0230F2D3720F452
:100920000196A11DB11D05C026E8230F0296A11D49
:10093000B11D209367028093680290936902A0938F
:100940006A02B0936B0280916C0290916D02A0914B
:100950006E02B0916F020196A11DB11D80936C02D1
:1009600090936D02A0936E02B0936F02BF91AF910E
:100970009F918F913F912F910F900FBE0F901F90DD
:100980001895FC011482158216821782158614862A
:1009900010861186128613861082118212821382AB
:1009A000178616860895CF92DF92EF921F93CF930A
:1009B000DF93CDB7DEB729970FB6F894DEBF0FBE31
:1009C000CDBF1092FB021092FA0288EE93E0A0E0F5
:1009D000B0E08093FC029093FD02A093FE02B093DE
:1009E000FF0286E191E09093F9028093F80284EB94
:1009F00092E0909305038093040380E792E0909344
:100A000007038093060385EC90E09093090380939D
:100A1000080384EC90E090930B0380930A0380EC2E
:100A200090E090930D0380930C0381EC90E0909301
:100A30000F0380930E0382EC90E090931103809358
:100A4000100386EC90E0909313038093120314E05C
:100A50001093140383E08093150387E080931603BB
:100A600085E08093170381E0809318038CE893E07E
:100A70000E94C1048CE793E00E94C1048CE693E0DD
:100A80000E94C1048CE593E00E94C1048CE193E0D4
:100A90000E94C1048CE293E00E94C1048CE393E0C5
:100AA0000E94C104C0900301D0900401E0900501B0
:100AB00089E0E6E0F1E0DE01119601900D928A9561
:100AC000E1F720910F013091100140911101109236
:100AD0004C03C0925603D0925703E092580389E02A
:100AE000FE013196ADE4B3E001900D928A95E1F7F5
:100AF0002093590330935A0340935B038EE190E0B7
:100B0000A0E0B0E08093340390933503A0933603C4
:100B1000B093370381E090E09093390380933803DA
:100B200040E355E760E070E04093240350932503D1
:100B300060932603709327039093290380932803DF
:100B400040E556E460E070E0409344035093450371
:100B5000609346037093470390934903809348033F
:100B600010921B038CE293E00E9454028CE393E00A
:100B70000E9454028CE193E00E945402809156033B
:100B8000882321F080915703811112C081E0809366
:100B90001B0310921A0329960FB6F894DEBF0FBEFE
:100BA000CDBFDF91CF911F91EF90DF90CF9008954F
:100BB00010931B03EECF789484B5826084BD84B516
:100BC000816084BD85B5826085BD85B5816085BD48
:100BD00080916E00816080936E0010928100809100
:100BE0008100826080938100809181008160809388
:100BF0008100809180008160809380008091B100AD
:100C000084608093B1008091B00081608093B000D7
:100C100080917A00846080937A0080917A0082606B
:100C200080937A0080917A00816080937A0080912D
:100C30007A00806880937A001092C100E0910C03E2
:100C4000F0910D03C1E0D0E0CE010090180302C086
:100C5000880F991F0A94E2F78083E0910803F091CE
:100C600009031082E0910A03F0910B038FEC80835B
:100C700010921903E0910E03F0910F032081CE0131
:100C80000090140302C0880F991F0A94E2F7822B88
:100C90008083E0910E03F0910F032081CE0100903C
:100CA000150302C0880F991F0A94E2F7822B8083F4
:100CB000E0910E03F0910F032081CE010090160306
:100CC00002C0880F991F0A94E2F7822B8083E0917B
:100CD0000E03F0910F0390819E010090170302C054
:100CE000220F331F0A94E2F7822F80958923808395
:100CF0008CE391E00E94740261E08DE00E94A60105
:100D000060E0809100010E94A60160E080910101F5
:100D10000E94A60160E0809102010E94A60161E0AC
:100D20008CE00E94A60184EF91E0A0E0B0E0809307
:100D3000940390939503A0939603B0939703D09355
:100D40009903C093980340E65AEE60E070E0409348
:100D50008403509385036093860370938703D09335
:100D60008903C093880340E25FEB60E070E040934A
:100D70007403509375036093760370937703D09355
:100D80007903C09378038093640390936503A093E1
:100D90006603B0936703D0936903C09368030E940E
:100DA000B5038EE491E00E94740282E591E00E9416
:100DB000740260916202709163028091640290916A
:100DC000650242E00E94C30284E891E00E9474023E
:100DD00089E591E00E94740288EF92E00E94CE00C3
:100DE0000E94E201EB0160E7C62E67E1D62EE12CFE
:100DF000F12C0E94E2016C1B7D0B683E7340C8F32E
:100E000091E0C91AD108E108F108C851DC4FC114BA
:100E1000D104E104F10469F789E691E00E947402CB
:100E200034EF832E99249394A12CB12C01E010E08F
:100E300042E3442E512C612C712C56E0252E8091DA
:100E40001A03882311F061E001C060E08DE00E9488
:100E5000770180919A0390919B0381309105B1F4C1
:100E600010929B0310929A03909399038093980396
:100E700080911A03811104C081E080931A0302C09B
:100E800010921A038CE893E00E9454028CE893E0DD
:100E90000E94070280918A0390918B038130910513
:100EA00071F410928B0310928A03909389038093BC
:100EB00088030E94B5038CE793E00E9454028CE7FC
:100EC00093E00E94070280916602813049F44092CB
:100ED000940350929503609296037092970308C012
:100EE0008092940390929503A0929603B0929703F8
:100EF000109399030093980380913A0390913B03D8
:100F00008130910509F0C9C010923B0310923A0359
:100F100090933903809338038CE293E00E9454024B
:100F200080914C03893008F038C0F82E23E0C22E9F
:100F3000C80E80914C03FC1460F5CF2DD0E0EF2D4E
:100F4000E81BF0E0E55EFC4F26AD30E0F901E2552C
:100F5000FF4F8491F901E656FF4FE490F901EA57FB
:100F6000FF4FD490DD2079F081110E944E01ED2DCC
:100F7000F0E0EE0FFF1FE859FF4FA591B491EC91FF
:100F8000EE2281E009F480E0C55EDC4F8AABF39489
:100F9000D0CF8D5F80934C0365C010924C03EDE47D
:100FA000F3E020E0919132818581832B892B90851C
:100FB000891321E0808780E593E08E179F0791F7E2
:100FC000222309F44FC08091560381110BC08091F8
:100FD0005703813069F48FE691E00E947402332454
:100FE000339407C0813021F480915703882399F30B
:100FF000312CC6E5D3E0C12CD12C7601C394899164
:1010000081110DC086E891E00E9474024AE0C70198
:10101000B6010E9476028DE891E00E9474029FEF73
:10102000C91AD90AE90AF90A84E0C816D104E10408
:10103000F10429F7332021F095E090931B0312C0AF
:1010400080915603882371F180915703882351F1D1
:101050008DEF91E00E94740280911B03873071F53F
:1010600020921B0380911B03823011F0843019F40D
:101070008650823028F58CE393E00E9454028091E0
:101080005803813029F4C0911B03C23009F447C0D2
:101090008CE193E00E945402D2CE8CE293E00E9455
:1010A0000702E0CF809158038111DCCF8BE292E000
:1010B0000E94740281E080931B03D4CF84E0FBCFB5
:1010C00080914A0390914B0381309105B9F41092BD
:1010D0004B0310924A0390934903809348038DE990
:1010E00091E00E94740280915803813061F08EEC8F
:1010F00091E00E94740220921B03C1CF8CE393E025
:101100000E940702BCCF80911B03823081F783EBE2
:1011100091E00E94740297E090931B03B0CF8091FE
:101120002A0390912B038130910579F410922B03BF
:1011300010922A03909329038093280384EE91E070
:101140000E947402C0931B037ACE8CE193E00E944C
:10115000070275CEF8940C94180B5058BB27AA2799
:101160000E94C5080C943F0A0E94310A38F00E9480
:10117000380A20F039F49F3F19F426F40C942E0A13
:101180000EF4E095E7FB0C94280AE92F0E94500A20
:1011900058F3BA17620773078407950720F079F4AC
:1011A000A6F50C94720A0EF4E0950B2EBA2FA02D22
:1011B0000B01B90190010C01CA01A0011124FF2704
:1011C000591B99F0593F50F4503E68F11A16F040FF
:1011D000A22F232F342F4427585FF3CF46953795FE
:1011E0002795A795F0405395C9F77EF41F16BA0BC3
:1011F000620B730B840BBAF09150A1F0FF0FBB1F71
:10120000661F771F881FC2F70EC0BA0F621F731FB9
:10121000841F48F4879577956795B795F7959E3F16
:1012200008F0B0CF9395880F08F09927EE0F9795A7
:10123000879508950E94040A08F481E008950E94A9
:1012400033090C943F0A0E94380A58F00E94310A70
:1012500040F029F45F3F29F00C94280A51110C94B6
:10126000730A0C942E0A0E94500A68F39923B1F372
:10127000552391F3951B550BBB27AA2762177307BC
:10128000840738F09F5F5F4F220F331F441FAA1F50
:10129000A9F335D00E2E3AF0E0E832D0915050400C
:1012A000E695001CCAF72BD0FE2F29D0660F771FBA
:1012B000881FBB1F261737074807AB07B0E809F0A0
:1012C000BB0B802DBF01FF2793585F4F3AF09E3F25
:1012D000510578F00C94280A0C94730A5F3FE4F3EC
:1012E000983ED4F3869577956795B795F7959F5F68
:1012F000C9F7880F911D9695879597F90895E1E0B4
:10130000660F771F881FBB1F621773078407BA0712
:1013100020F0621B730B840BBA0BEE1F88F7E0956D
:1013200008950E9498096894B1110C94730A089565
:101330000E94580A88F09F5798F0B92F9927B75103
:10134000B0F0E1F0660F771F881F991F1AF0BA9569
:10135000C9F714C0B13091F00E94720AB1E008954B
:101360000C94720A672F782F8827B85F39F0B93F3D
:10137000CCF3869577956795B395D9F73EF490951C
:101380008095709561957F4F8F4F9F4F0895E8949A
:1013900009C097FB3EF490958095709561957F4FBD
:1013A0008F4F9F4F9923A9F0F92F96E9BB2793956B
:1013B000F695879577956795B795F111F8CFFAF47B
:1013C000BB0F11F460FF1BC06F5F7F4F8F4F9F4FAC
:1013D00016C0882311F096E911C0772321F09EE80A
:1013E000872F762F05C0662371F096E8862F70E070
:1013F00060E02AF09A95660F771F881FDAF7880F4A
:101400009695879597F90895990F0008550FAA0B9F
:10141000E0E8FEEF16161706E807F907C0F0121607
:101420001306E407F50798F0621B730B840B950B0A
:1014300039F40A2661F0232B242B252B21F408955F
:101440000A2609F4A140A6958FEF811D811D0895FC
:1014500097F99F6780E870E060E008959FEF80EC67
:10146000089500240A94161617061806090608950A
:1014700000240A9412161306140605060895092E70
:101480000394000C11F4882352F0BB0F40F4BF2BDF
:1014900011F460FF04C06F5F7F4F8F4F9F4F08951F
:1014A00057FD9058440F551F59F05F3F71F0479515
:1014B000880F97FB991F61F09F3F79F087950895FA
:1014C000121613061406551FF2CF4695F1DF08C019
:1014D000161617061806991FF1CF86957105610536
:1014E00008940895E894BB2766277727CB0197F9DE
:1014F00008950E94040A08F48FEF08950E94910A4B
:101500000C943F0A0E94310A38F00E94380A20F0F9
:10151000952311F00C94280A0C942E0A11240C9493
:10152000730A0E94500A70F3959FC1F3950F50E023
:10153000551F629FF001729FBB27F00DB11D639F85
:10154000AA27F00DB11DAA1F649F6627B00DA11D2B
:10155000661F829F2227B00DA11D621F739FB00DD1
:10156000A11D621F839FA00D611D221F749F332741
:10157000A00D611D231F849F600D211D822F762FDA
:101580006A2F11249F5750409AF0F1F088234AF0B7
:10159000EE0FFF1FBB1F661F771F881F9150504023
:1015A000A9F79E3F510580F00C94280A0C94730A09
:1015B0005F3FE4F3983ED4F3869577956795B795AA
:1015C000F795E7959F5FC1F7FE2B880F911D9695C4
:1015D000879597F908950E94040A880B990B08953E
:1015E000A1E21A2EAA1BBB1BFD010DC0AA1FBB1F27
:1015F000EE1FFF1FA217B307E407F50720F0A21B99
:10160000B30BE40BF50B661F771F881F991F1A9405
:1016100069F760957095809590959B01AC01BD012F
:10162000CF010895EE0FFF1F0590F491E02D09946E
:04163000F894FFCF5C
:1016340002090A0101010101010101010101010283
:10164400090A000000008C0026011501D900F900E8
:10165400CE006E616E00696E66006F7666002E00C5
:1016640076426174204C4F57213A2000496E6974C8
:1016740069616C697A696E67202E2E2E20004F6B8B
:101684000A00764261743A2000426F6F7420446508
:101694006C6179202E2E2E2000446F6E650A004165
:1016A400626E6F726D616C20706F77657220696E07
:1016B400707574210A00506861736520003A2064D3
:1016C4006973636F6E6E65637465640A00506F7747
:1016D400657220726561647920746F206170706C2A
:1016E400790A00436F6E6E656374696E672067657F
:1016F4006E657261746F72206C6F61640A00436F6F
:101704006E6E656374696E67206C696E65206C6FBC
:1017140061640A0047656E657261746F7220776157
:10172400726D6564207570202E2E2E0A00506F771E
:1017340065722070726573656E742C207265636FB8
:101744006E6E656374696E6720746F2074686520BB
:101754006D61696E73202E2E2E0A004E6F20706FFD
:101764007765722070726573656E7420617420747D
:101774006865206D61696E732C207374617274697D
:101784006E672067656E657261746F72202E2E2EEF
:021794000A0049
:00000001FF
