:100000000C9462000C948A000C948A000C948A0070
:100010000C948A000C948A000C948A000C948A0038
:100020000C948A000C948A000C948A000C948A0028
:100030000C948A000C948A000C948A000C948A0018
:100040000C94B8040C948A000C947E040C94430421
:100050000C948A000C948A000C948A000C948A00F8
:100060000C948A000C948A000000000024002700F1
:100070002A0000000000250028002B0000000000DE
:1000800023002600290004040404040404040202DA
:100090000202020203030303030301020408102007
:1000A0004080010204081020010204081020000012
:1000B0000007000201000003040600000000000029
:1000C0000000020511241FBECFEFD8E0DEBFCDBF78
:1000D00011E0A0E0B1E0EEEEF4E102C005900D9277
:1000E000A03EB107D9F722E0A0EEB1E001C01D9219
:1000F000A93DB207E1F710E0C2E6D0E004C02197C5
:10010000FE010E946F0AC136D107C9F70E94870518
:100110000C9407080C9400000F931F93CF93DF9368
:10012000FC01A685B7858D01005C1F4FE801888121
:10013000998101968F739927AD014E5B5F4FEA015C
:100140002881398128173907D1F3E80128813981BD
:10015000A20FB31F6C93A685B785A05CBF4F119605
:100160009C938E93A689B7892C9181E090E0078CAF
:1001700002C0880F991F0A94E2F7822B8C9381E0CA
:1001800081A30488F589E02D80818064808381E0EB
:1001900090E0DF91CF911F910F910895FC0181A113
:1001A000882329F0A489B5898C9186FFFBCF11A201
:1001B0000895FC01A485B585FD01E05CFF4F208119
:1001C00031813296808191812817390779F08081B9
:1001D0009181A80FB91F8C91208131812F5F3F4FF2
:1001E0002F7333273183208390E008958FEF9FEFA3
:1001F0000895DC011C96ED91FC911D97DF01A05C38
:10020000BF4F2D913C91119712968D919C91119712
:100210002817390739F08D919C91E80FF91F8081DB
:1002200090E008958FEF9FEF0895FC0124853585B8
:10023000F901E05CFF4F808191813296208131810C
:10024000821B930B8F73992708950895CF92DF92A5
:10025000EF92FF920F931F93CF93DF936C01EB010B
:100260007B01E40EF51E00E010E0CE15DF0561F025
:100270006991D601ED91FC910190F081E02DC601CC
:100280000995080F191FF1CFC801DF91CF911F9178
:100290000F91FF90EF90DF90CF900895833081F021
:1002A00028F4813099F08230A1F008958630A9F0C9
:1002B0008730B9F08430D1F4809180008F7D03C005
:1002C000809180008F7780938000089584B58F7728
:1002D00002C084B58F7D84BD08958091B0008F7772
:1002E00003C08091B0008F7D8093B0000895CF93BC
:1002F000DF93282F30E0F901E255FF4F8491F90197
:10030000E656FF4FD491F901EA57FF4FC491CC2331
:1003100091F081110E944E01EC2FF0E0EE0FFF1FD3
:10032000E458FF4FA591B491EC91ED2381E090E06A
:1003300021F480E002C080E090E0DF91CF91089549
:100340001F93CF93DF93282F30E0F901E255FF4F41
:100350008491F901E656FF4FD491F901EA57FF4F16
:10036000C491CC23C1F0162F81110E944E01EC2FB5
:10037000F0E0EE0FFF1FEE58FF4FA591B4919FB72D
:10038000F894111104C08C91D095D82302C0EC913F
:10039000DE2BDC939FBFDF91CF911F910895CF9308
:1003A000DF9390E0FC01E656FF4F2491FC01EA57F1
:1003B000FF4F8491882361F190E0880F991FFC0121
:1003C000E859FF4FC591D491FC01EE58FF4FA5911C
:1003D000B491611109C09FB7F89488812095822358
:1003E0008883EC912E230BC0623061F49FB7F894A0
:1003F0008881322F309583238883EC912E2B2C9388
:100400009FBF06C08FB7F894E8812E2B28838FBF3B
:10041000DF91CF9108953FB7F8948091EA019091D0
:10042000EB01A091EC01B091ED0126B5A89B05C0B0
:100430002F3F19F00196A11DB11D3FBFBA2FA92F63
:10044000982F8827820F911DA11DB11DBC01CD01E0
:1004500042E0660F771F881F991F4A95D1F70895CC
:10046000CF92DF92EF92FF92CF93DF936B017C01EB
:100470000E940B02EB01C114D104E104F10479F0F4
:100480000E940B026C1B7D0B683E7340A0F381E061
:10049000C81AD108E108F108C851DC4FECCFDF9150
:1004A000CF91FF90EF90DF90CF9008950F931F931F
:1004B000FC018FB7F8944091E6015091E7016091FB
:1004C000E8017091E9018FBF848595850197C9F492
:1004D000008111812281338184819581A681B78138
:1004E000840F951FA61FB71F401751076207730798
:1004F00020F0801B910BA20BB30B84839583A68302
:10050000B783408351836283738380859185A285FD
:10051000B3850097A105B10589F0448155816681B5
:10052000778184179507A607B70750F481E090E01C
:1005300097878687148215821682178215861486FD
:100540001F910F910895009769F0FC010190002020
:10055000E9F73197AF01481B590BBC0186E792E0E0
:100560000C94260180E090E008950C94A3028F92F1
:100570009F92AF92BF92EF92FF920F931F93CF93F0
:10058000DF93CDB7DEB7A1970FB6F894DEBF0FBEED
:10059000CDBF162F042F19A2423008F40AE07E01C5
:1005A00021E2E20EF11C802E912CA12CB12C612FA6
:1005B000A50194010E944D0A029F1019112481E0A7
:1005C000E81AF1081A3014F4105D01C0195CF70143
:1005D0001083122F732FCA01232B242B252B39F7BD
:1005E000C7010E94A302A1960FB6F894DEBF0FBE0A
:1005F000CDBFDF91CF911F910F91FF90EF90BF90F2
:10060000AF909F908F9008954F925F926F927F92DC
:100610008F929F92AF92BF92CF92DF92EF92FF9212
:10062000CF93DF936B017C01B42E9B01AC010E9440
:10063000480A882319F087E191E027C02601370195
:10064000E89477F82FEF3FEF4FE75FE7C301B20180
:100650000E94480A81110DC02FEF3FEF4FE75FE77F
:10066000C301B2010E94770818161CF48BE191E0D7
:100670000CC02FEF3FEF4FE75FE4C701B6010E94C8
:10068000D609181694F48FE191E0DF91CF91FF9095
:10069000EF90DF90CF90BF90AF909F908F907F9022
:1006A0006F905F904F900C94A3022FEF3FEF4FE7B6
:1006B0005FECC701B6010E94770887FDE4CF20E018
:1006C00030E0A901C701B6010E94770887FF0BC07F
:1006D0006DE286E792E00E948C00EC01F7FAF0945C
:1006E000F7F8F09402C0C0E0D0E0A12C60E070E028
:1006F00080E09FE3BA1441F020E030E040E251E4B2
:100700000E947C08A394F6CFA70196010E940B08D3
:100710006B017C010E94F5082B013C014AE00E941C
:10072000B702C80FD91FBB2009F450C0C301B201E2
:100730000E9424099B01AC01C701B6010E940A086E
:100740002B013C0183E291E00E94A302C80FD91F54
:10075000FB2C20E030E040E251E4C301B2010E94F2
:10076000DB092B013C010E94EE084B01770FAA0820
:10077000BB08B7FE15C06DE286E792E00E948C00D0
:100780006C0188279927DC0188199909AA09BB09F6
:100790004AE0BC01CD010E94B7028C0D9D1D05C031
:1007A0004AE0C501B4010E94B702C80FD91FC501B4
:1007B000B4010E9426099B01AC01C301B2010E9451
:1007C0000A082B013C01FA94F110C3CFCE01DF914E
:1007D000CF91FF90EF90DF90CF90BF90AF909F9020
:1007E0008F907F906F905F904F90089580E48093FA
:1007F0007C0080917A00806480937A0080917A00F6
:1008000086FDFCCF609178008091790070E0782BB4
:10081000072E000C880B990B0E94260920E030E07F
:1008200040E751E40E94DB0920E030E040E85AE371
:100830000E94DB096093E0017093E1018093E20183
:100840009093E30126E636E646E451E40E947708F9
:100850001816B4F081E08093E40185E291E00E94F3
:10086000B5026091E0017091E1018091E201909107
:10087000E30142E00E94040389E991E00C94B5028F
:100880001092E40108951F920F920FB60F92112457
:100890002F933F938F939F93EF93FF9320912E027B
:1008A00030912F0280913002909131022817390740
:1008B00031F48091C1008F7D8093C10014C0E0911C
:1008C0003002F0913102E251FE4F208180913002DE
:1008D0009091310201968F73992790933102809302
:1008E00030022093C600FF91EF919F918F913F912D
:1008F0002F910F900FBE0F901F9018951F920F927F
:100900000FB60F9211242F934F935F938F939F9362
:10091000EF93FF938091C00082FD1CC02091C60020
:10092000809172029091730240917402509175020D
:1009300001968F7399274817590771F0E091720259
:10094000F0917302EE5CFD4F2083909373028093CD
:10095000720202C08091C600FF91EF919F918F912A
:100960005F914F912F910F900FBE0F901F90189590
:100970001F920F920FB60F9211242F933F938F93D4
:100980009F93AF93BF938091E6019091E701A0916F
:10099000E801B091E9013091E50123E0230F2D3703
:1009A00020F40196A11DB11D05C026E8230F029673
:1009B000A11DB11D2093E5018093E6019093E7010D
:1009C000A093E801B093E9018091EA019091EB01D5
:1009D000A091EC01B091ED010196A11DB11D809394
:1009E000EA019093EB01A093EC01B093ED01BF916C
:1009F000AF919F918F913F912F910F900FBE0F90CC
:100A00001F901895E6E7F2E01382128288EE93E0D9
:100A1000A0E0B0E084839583A683B7838BE091E068
:100A20009183808382E392E0958784878EEE91E0C4
:100A30009787868785EC90E0918B808B84EC90E0A3
:100A4000938B828B80EC90E0958B848B81EC90E093
:100A5000978B868B82EC90E0918F808F86EC90E074
:100A6000938F828F84E0848F83E0858F87E0868FE9
:100A700085E0878F81E080A3E9ECF2E014821582A3
:100A800016821782158614861086118612861386A2
:100A9000108211821282138217861686E9EBF2E029
:100AA0001482158216821782158614861086118686
:100AB000128613861082118212821382178616867E
:100AC000E9EAF2E0148215821682178215861486EE
:100AD000108611861286138610821182128213826A
:100AE00017861686E9E9F2E01482158216821782CB
:100AF000158614861086118612861386108211823E
:100B00001282138217861686109298020895CF9348
:100B1000DF93CDB7DEB760970FB6F894DEBF0FBE98
:100B2000CDBF789484B5826084BD84B5816084BD76
:100B300085B5826085BD85B5816085BD80916E007B
:100B4000816080936E0010928100809181008260AC
:100B500080938100809181008160809381008091E9
:100B600080008160809380008091B10084608093D8
:100B7000B1008091B00081608093B00080917A00D4
:100B8000846080937A0080917A00826080937A00FA
:100B900080917A00816080937A0080917A008068E9
:100BA00080937A001092C100E0918A02F0918B024A
:100BB00001E010E0C8010090960202C0880F991F62
:100BC0000A94E2F78083E0918602F0918702108216
:100BD000E0918802F09189028FEC80831092970255
:100BE000E0918C02F0918D022081C8010090920268
:100BF00002C0880F991F0A94E2F7822B8083E0914C
:100C00008C02F0918D022081C8010090930202C0F5
:100C1000880F991F0A94E2F7822B8083E0918C025F
:100C2000F0918D022081C8010090940202C0880FCB
:100C3000991F0A94E2F7822B8083E0918C02F09155
:100C40008D02908198010090950202C0220F331FFF
:100C50000A94E2F7822F80958923808381E391E0D3
:100C60000E94B50261E08DE00E94CF0160E08091BA
:100C700000010E94CF0160E0809101010E94CF013C
:100C800060E0809102010E94CF0161E08091030148
:100C90000E94CF0184EF91E0A0E0B0E08093D10208
:100CA0009093D202A093D302B093D4021093D602B1
:100CB0000093D50240E65AEE60E070E04093C10236
:100CC0005093C2026093C3027093C4021093C60291
:100CD0000093C50240E25FEB60E070E04093B10238
:100CE0005093B2026093B3027093B4021093B602B1
:100CF0000093B5028093A1029093A202A093A30255
:100D0000B093A4021093A6020093A5020E94F603DA
:100D100083E491E00E94B50287E491E00E94B5026D
:100D20006091E0017091E1018091E2019091E30115
:100D300042E00E94040389E991E00E94B5028EE43A
:100D400091E00E94B50286E792E00E94CE0060E743
:100D500077E180E090E00E9430028EE591E00E9411
:100D6000B50234EF432E55245394612C712C42E389
:100D7000842E912CA12CB12CCE010D969E878D87AF
:100D800080919802882311F061E001C060E08DE05D
:100D90000E94A0018091D7029091D80281309105E4
:100DA000D1F41092D8021092D7029093D602809379
:100DB000D50280919802811104C081E0809398024D
:100DC00002C0109298021092CD021092CE021092A0
:100DD000CF021092D00289EC92E00E9456028091DC
:100DE000C7029091C8028130910591F41092C80217
:100DF0001092C7029093C6028093C5020E94F60328
:100E00001092BD021092BE021092BF021092C00258
:100E100089EB92E00E9456028091E401813079F4DE
:100E20008092D1029092D202A092D302B092D402C8
:100E3000E1E0F0E0F093D602E093D5020EC04092DC
:100E4000D1025092D2026092D3027092D40281E019
:100E500090E09093D6028093D5028091A702909162
:100E6000A8028130910509F0CDC01092A80210921D
:100E7000A7029093A6028093A50210929D02109261
:100E80009E0210929F021092A0021A861B861C8658
:100E90001F82188619861C821D821E8219821A8260
:100EA0001B82E0E0F1E0F88BEF878E01065F1F4FB9
:100EB00068017F01F70181917F010E947701F601AE
:100EC00081936F01F3E0EF16F1E0FF0699F761E01F
:100ED00070E080E090E00E9430021E0127E0220EC8
:100EE000311C610120E0E22E21E0F22EF701819118
:100EF0007F010E947701F60181936F01F3E0EF1605
:100F0000F1E0FF0699F761E070E080E090E00E9478
:100F100030026E0124E0C20ED11C7601EF85F88903
:100F20008191F88BEF870E947701F70181937F0110
:100F30008F8598898350914089F7DE011196AD0124
:100F4000F80121918F01F10181911F01F601919129
:100F50006F01822B892BFA018193AF018D859E85CC
:100F60000817190769F794E0292E91E0392EF1014D
:100F700010E08D919081981311E0819391E0E7301A
:100F8000F907B9F780910401811112C08091050120
:100F900081110EC0112321F084E691E00E94B50278
:100FA00081E080930301C12CD12C7601C39424C02D
:100FB000112321F08BE991E00E94B5021092030108
:100FC000F2CF112369F089EC91E00E94B5024AE06A
:100FD000C701B6010E94B70280ED91E00E94B50200
:100FE000FFEFCF1ADF0AEF0AFF0A24E0C216D1048E
:100FF000E104F10409F4C4CEF10181911F018111D2
:10100000EFCFDFCF89E992E00E9456023ECFF894FD
:101010000C94750A5058BB27AA270E9422080C94EA
:101020009C090E948E0938F00E94950920F039F43D
:101030009F3F19F426F40C948B090EF4E095E7FB1E
:101040000C948509E92F0E94AD0958F3BA1762077D
:1010500073078407950720F079F4A6F50C94CF095F
:101060000EF4E0950B2EBA2FA02D0B01B9019001C3
:101070000C01CA01A0011124FF27591B99F0593F07
:1010800050F4503E68F11A16F040A22F232F342F4F
:101090004427585FF3CF469537952795A795F0409D
:1010A0005395C9F77EF41F16BA0B620B730B840BB2
:1010B000BAF09150A1F0FF0FBB1F661F771F881F6A
:1010C000C2F70EC0BA0F621F731F841F48F48795C2
:1010D00077956795B795F7959E3F08F0B0CF9395B4
:1010E000880F08F09927EE0F9795879508950E942D
:1010F000610908F481E008950E9490080C949C090D
:101100000E94950958F00E948E0940F029F45F3F33
:1011100029F00C94850951110C94D0090C948B0979
:101120000E94AD0968F39923B1F3552391F3951B00
:10113000550BBB27AA2762177307840738F09F5FF8
:101140005F4F220F331F441FAA1FA9F335D00E2E65
:101150003AF0E0E832D091505040E695001CCAF7D2
:101160002BD0FE2F29D0660F771F881FBB1F261795
:1011700037074807AB07B0E809F0BB0B802DBF016C
:10118000FF2793585F4F3AF09E3F510578F00C943B
:1011900085090C94D0095F3FE4F3983ED4F386951B
:1011A00077956795B795F7959F5FC9F7880F911D5C
:1011B0009695879597F90895E1E0660F771F881F48
:1011C000BB1F621773078407BA0720F0621B730BFB
:1011D000840BBA0BEE1F88F7E09508950E94F5087E
:1011E0006894B1110C94D00908950E94B50988F053
:1011F0009F5798F0B92F9927B751B0F0E1F0660FDB
:10120000771F881F991F1AF0BA95C9F714C0B1301B
:1012100091F00E94CF09B1E008950C94CF09672F97
:10122000782F8827B85F39F0B93FCCF3869577954A
:101230006795B395D9F73EF4909580957095619533
:101240007F4F8F4F9F4F0895E89409C097FB3EF45E
:1012500090958095709561957F4F8F4F9F4F992303
:10126000A9F0F92F96E9BB279395F6958795779581
:101270006795B795F111F8CFFAF4BB0F11F460FF41
:101280001BC06F5F7F4F8F4F9F4F16C0882311F099
:1012900096E911C0772321F09EE8872F762F05C0AD
:1012A000662371F096E8862F70E060E02AF09A9548
:1012B000660F771F881FDAF7880F9695879597F93D
:1012C0000895990F0008550FAA0BE0E8FEEF1616D7
:1012D0001706E807F907C0F012161306E407F5072A
:1012E00098F0621B730B840B950B39F40A2661F09E
:1012F000232B242B252B21F408950A2609F4A14041
:10130000A6958FEF811D811D089597F99F6780E84D
:1013100070E060E008959FEF80EC089500240A9447
:101320001616170618060906089500240A941216C0
:101330001306140605060895092E0394000C11F4F3
:10134000882352F0BB0F40F4BF2B11F460FF04C0A0
:101350006F5F7F4F8F4F9F4F089557FD9058440FF9
:10136000551F59F05F3F71F04795880F97FB991F04
:1013700061F09F3F79F087950895121613061406C1
:10138000551FF2CF4695F1DF08C01616170618064E
:10139000991FF1CF86957105610508940895E89429
:1013A000BB2766277727CB0197F908950E9461092B
:1013B00008F48FEF08950E94EE090C949C090E9496
:1013C0008E0938F00E94950920F0952311F00C94B5
:1013D00085090C948B0911240C94D0090E94AD0945
:1013E00070F3959FC1F3950F50E0551F629FF00178
:1013F000729FBB27F00DB11D639FAA27F00DB11D91
:10140000AA1F649F6627B00DA11D661F829F222719
:10141000B00DA11D621F739FB00DA11D621F839FA0
:10142000A00D611D221F749F3327A00D611D231F76
:10143000849F600D211D822F762F6A2F11249F57C4
:1014400050409AF0F1F088234AF0EE0FFF1FBB1FC7
:10145000661F771F881F91505040A9F79E3F510586
:1014600080F00C9485090C94D0095F3FE4F3983E1A
:10147000D4F3869577956795B795F795E7959F5F30
:10148000C1F7FE2B880F911D9695879597F90895C2
:101490000E946109880B990B0895A1E21A2EAA1BDC
:1014A000BB1BFD010DC0AA1FBB1FEE1FFF1FA21714
:1014B000B307E407F50720F0A21BB30BE40BF50B11
:1014C000661F771F881F991F1A9469F7609570959A
:1014D000809590959B01AC01BD01CF010895EE0F61
:0E14E000FF1F0590F491E02D0994F894FFCFC2
:1014EE0002090A0C010101000000008C0026011502
:1014FE0001D900F900CE006E616E00696E66006F54
:10150E007666002E0076426174204C4F57213A20A9
:10151E0000496E697469616C697A696E67202E2E56
:10152E002E20004F6B0A00764261743A2000426F03
:10153E006F742044656C6179202E2E2E2000446F2E
:10154E006E650A004E6F20706F776572207072653F
:10155E0073656E7420696E20746865206D61696EA6
:10156E00732C207374617274696E672067656E6583
:10157E007261746F72202E2E2E0A00506F77657274
:10158E002070726573656E742C207265636F6E6E5B
:10159E00656374696E6720746F20746865206D6171
:1015AE00696E73202E2E2E0A00506861736520001E
:1015BE003A20646973636F6E6E65637465640A00C6
:00000001FF
