:100000000C9462000C948A000C948A000C948A0070
:100010000C948A000C948A000C948A000C948A0038
:100020000C948A000C948A000C948A000C948A0028
:100030000C948A000C948A000C948A000C948A0018
:100040000C9469040C948A000C942F040C94F4030F
:100050000C948A000C948A000C948A000C948A00F8
:100060000C948A000C948A000000000023002600F3
:10007000290000000000240027002A0000000000E2
:10008000250028002B0004040404040404040202D4
:100090000202020203030303030301020408102007
:1000A0004080010204081020010204081020000012
:1000B0000007000201000003040600000000000029
:1000C0000000C50411241FBECFEFD8E0DEBFCDBFB6
:1000D00012E0A0E0B1E0ECEEF5E102C005900D9277
:1000E000A833B107D9F723E0A8E3B2E001C01D921D
:1000F000AA37B207E1F710E0C2E6D0E004C02197CA
:10010000FE010E94EE0AC136D107C9F70E9485059B
:100110000C9486080C9400000F931F93CF93DF93E9
:10012000FC01A685B7858D01005C1F4FE801888121
:10013000998101968F739927AD014E5B5F4FEA015C
:100140002881398128173907D1F3E80128813981BD
:10015000A20FB31F6C93A685B785A05CBF4F119605
:100160009C938E93A689B7892C9181E090E0078CAF
:1001700002C0880F991F0A94E2F7822B8C9381E0CA
:1001800081A30488F589E02D80818064808381E0EB
:1001900090E0DF91CF911F910F910895FC0181A113
:1001A000882329F0A489B5898C9186FFFBCF11A201
:1001B0000895FC01A485B585FD01E05CFF4F208119
:1001C00031813296808191812817390779F08081B9
:1001D0009181A80FB91F8C91208131812F5F3F4FF2
:1001E0002F7333273183208390E008958FEF9FEFA3
:1001F0000895DC011C96ED91FC911D97DF01A05C38
:10020000BF4F2D913C91119712968D919C91119712
:100210002817390739F08D919C91E80FF91F8081DB
:1002200090E008958FEF9FEF0895FC0124853585B8
:10023000F901E05CFF4F808191813296208131810C
:10024000821B930B8F73992708950895CF92DF92A5
:10025000EF92FF920F931F93CF93DF936C01EB010B
:100260007B01E40EF51E00E010E0CE15DF0561F025
:100270006991D601ED91FC910190F081E02DC601CC
:100280000995080F191FF1CFC801DF91CF911F9178
:100290000F91FF90EF90DF90CF900895833081F021
:1002A00028F4813099F08230A1F008958630A9F0C9
:1002B0008730B9F08430D1F4809180008F7D03C005
:1002C000809180008F7780938000089584B58F7728
:1002D00002C084B58F7D84BD08958091B0008F7772
:1002E00003C08091B0008F7D8093B00008951F936C
:1002F000CF93DF93282F30E0F901E255FF4F84912F
:10030000F901E656FF4FD491F901EA57FF4FC49126
:10031000CC23C1F0162F81110E944E01EC2FF0E08A
:10032000EE0FFF1FE458FF4FA591B4919FB7F894CB
:10033000111104C08C91D095D82302C0EC91DE2B12
:10034000DC939FBFDF91CF911F910895CF93DF93EF
:1003500090E0FC01E656FF4F2491FC01EA57FF4F65
:100360008491882361F190E0880F991FFC01EE5879
:10037000FF4FC591D491FC01E458FF4FA591B49172
:10038000611109C09FB7F8948881209582238883E2
:10039000EC912E230BC0623061F49FB7F8948881F2
:1003A000322F309583238883EC912E2B2C939FBF83
:1003B00006C08FB7F894E8812E2B28838FBFDF917A
:1003C000CF9108953FB7F8948091420290914302F3
:1003D000A0914402B091450226B5A89B05C02F3FCD
:1003E00019F00196A11DB11D3FBFBA2FA92F982F5B
:1003F0008827820F911DA11DB11DBC01CD0142E0D6
:10040000660F771F881F991F4A95D1F708950F939C
:100410001F93FC018FB7F89440913E0250913F0228
:1004200060914002709141028FBF8485958501974C
:10043000C9F4008111812281338184819581A68153
:10044000B781840F951FA61FB71F4017510762077A
:10045000730720F0801B910BA20BB30B8483958351
:10046000A683B7834083518362837383808591859C
:10047000A285B3850097A105B10589F04481558116
:100480006681778184179507A607B70750F481E046
:1004900090E09787868714821582168217821586C8
:1004A00014861F910F910895009769F0FC01019047
:1004B0000020E9F73197AF01481B590BBC018EECC6
:1004C00092E00C94260180E090E008950C94540290
:1004D0008F929F92AF92BF92EF92FF920F931F93D2
:1004E000CF93DF93CDB7DEB7A1970FB6F894DEBFF9
:1004F0000FBECDBF162F042F19A2423008F40AE018
:100500007E0121E2E20EF11C802E912CA12CB12C57
:10051000612FA50194010E94CC0A029F1019112499
:1005200081E0E81AF1081A3014F4105D01C0195C7A
:10053000F7011083122F732FCA01232B242B252B95
:1005400039F7C7010E945402A1960FB6F894DEBF96
:100550000FBECDBFDF91CF911F910F91FF90EF9014
:10056000BF90AF909F908F9008954F925F926F923F
:100570007F928F929F92AF92BF92CF92DF92EF9233
:10058000FF92CF93DF936B017C01B42E9B01AC01F2
:100590000E94C70A882319F088E291E027C026014B
:1005A0003701E89477F82FEF3FEF4FE75FE7C3019C
:1005B000B2010E94C70A81110DC02FEF3FEF4FE734
:1005C0005FE7C301B2010E94F60818161CF48CE222
:1005D00091E00CC02FEF3FEF4FE75FE4C701B6019A
:1005E0000E94550A181694F480E391E0DF91CF91B0
:1005F000FF90EF90DF90CF90BF90AF909F908F9043
:100600007F906F905F904F900C9454022FEF3FEFCC
:100610004FE75FECC701B6010E94F60887FDE4CF03
:1006200020E030E0A901C701B6010E94F60887FF6B
:100630000BC06DE28EEC92E00E948C00EC01F7FAA8
:10064000F094F7F8F09402C0C0E0D0E0A12C60E094
:1006500070E080E09FE3BA1441F020E030E040E237
:1006600051E40E94FB08A394F6CFA70196010E94D3
:100670008A086B017C010E9474092B013C014AE04D
:100680000E946802C80FD91FBB2009F450C0C301E3
:10069000B2010E94A3099B01AC01C701B6010E94EF
:1006A00089082B013C0184E391E00E945402C80FA9
:1006B000D91FFB2C20E030E040E251E4C301B2013D
:1006C0000E945A0A2B013C010E946D094B01770FD1
:1006D000AA08BB08B7FE15C06DE28EEC92E00E943E
:1006E0008C006C0188279927DC0188199909AA09CF
:1006F000BB094AE0BC01CD010E9468028C0D9D1D22
:1007000005C04AE0C501B4010E946802C80FD91FA4
:10071000C501B4010E94A5099B01AC01C301B2014E
:100720000E9489082B013C01FA94F110C3CFCE013D
:10073000DF91CF91FF90EF90DF90CF90BF90AF907F
:100740009F908F907F906F905F904F90089580E47E
:1007500080937C0080917A00806480937A008091FD
:100760007A0086FDFCCF609178008091790070E07E
:10077000782B072E000C880B990B0E94A50920E00E
:1007800030E040E851E40E945A0A20E030E040E8BE
:100790005AE30E945A0A6093380270933902809398
:1007A0003A0290933B0226E636E646E451E40E9484
:1007B000F6081816B4F081E080933C0286E391E0DD
:1007C0000E946602609138027091390280913A026B
:1007D00090913B0242E00E94B5028AE891E00C94BD
:1007E000660210923C0208951F920F920FB60F926C
:1007F00011242F933F938F939F93EF93FF93209117
:100800008602309187028091880290918902281790
:10081000390731F48091C1008F7D8093C10014C0ED
:10082000E0918802F0918902EA5BFD4F208180917E
:1008300088029091890201968F739927909389027B
:10084000809388022093C600FF91EF919F918F9132
:100850003F912F910F900FBE0F901F9018951F92F0
:100860000F920FB60F9211242F934F935F938F9394
:100870009F93EF93FF938091C00082FD1CC0209155
:10088000C6008091CA029091CB024091CC02509157
:10089000CD0201968F7399274817590771F0E0919F
:1008A000CA02F091CB02E657FD4F20839093CB0212
:1008B0008093CA0202C08091C600FF91EF919F9180
:1008C0008F915F914F912F910F900FBE0F901F90BE
:1008D00018951F920F920FB60F9211242F933F93EA
:1008E0008F939F93AF93BF9380913E0290913F026D
:1008F000A0914002B091410230913D0223E0230FCC
:100900002D3720F40196A11DB11D05C026E8230F47
:100910000296A11DB11D20933D0280933E0290934B
:100920003F02A0934002B093410280914202909115
:100930004302A0914402B09145020196A11DB11D50
:100940008093420290934302A0934402B0934502E5
:10095000BF91AF919F918F913F912F910F900FBEBB
:100960000F901F901895FC01148215821682178231
:1009700015861486108611861286138610821182BF
:1009800012821382178616860895CF93DF93CDB710
:10099000DEB762970FB6F894DEBF0FBECDBFEEECA8
:1009A000F2E01382128288EE93E0A0E0B0E084834C
:1009B0009583A683B7838CE191E0918380838AE855
:1009C00092E09587848786E492E09787868785EC16
:1009D00090E0918B808B84EC90E0938B828B80EC09
:1009E00090E0958B848B81EC90E0978B868B82ECEA
:1009F00090E0918F808F86EC90E0938F828F84E0DF
:100A0000848F83E0858F87E0868F85E0878F81E004
:100A100080A38AE693E00E94B3048AE593E00E94F3
:100A2000B3048AE493E00E94B3048AE393E00E9453
:100A3000B30484EF92E00E94B30484E093E00E9448
:100A4000B30484E193E00E94B30420910301309148
:100A500004014091050189E0E6E0F1E0DE011A962B
:100A600001900D928A95E1F789E0EFE0F1E0DE0177
:100A7000119601900D928A95E1F781EF92E0FC01C9
:100A800013AA25AF36AF47AF29E0FE013A96A5E29B
:100A9000B3E001900D922A95E1F729E0FE0131962D
:100AA000A1E3B3E001900D922A95E1F746E150E011
:100AB00060E070E0FC01438F548F658F768F21E0FA
:100AC00030E030A3278F40E355E760E070E04387D4
:100AD000548765877687308B278740E556E460E04A
:100AE00070E043A754A765A776A730AB27A710826D
:100AF000118212821092F00262960FB6F894DEBF55
:100B00000FBECDBFDF91CF910895CF93DF9300D07B
:100B100000D01F92CDB7DEB7789484B5826084BDD3
:100B200084B5816084BD85B5826085BD85B58160F1
:100B300085BD80916E00816080936E00109281006F
:100B4000809181008260809381008091810081602A
:100B500080938100809180008160809380008091EB
:100B6000B10084608093B1008091B0008160809377
:100B7000B00080917A00846080937A0080917A003E
:100B8000826080937A0080917A00816080937A00FD
:100B900080917A00806880937A001092C100E09181
:100BA000E202F091E30201E010E0C8010090EE02E1
:100BB00002C0880F991F0A94E2F78083E091DE0259
:100BC000F091DF021082E091E002F091E1028FECFF
:100BD00080831092EF02E091E402F091E50220811F
:100BE000C8010090EA0202C0880F991F0A94E2F738
:100BF000822B8083E091E402F091E5022081C8011C
:100C00000090EB0202C0880F991F0A94E2F7822B32
:100C10008083E091E402F091E5022081C801009018
:100C2000EC0202C0880F991F0A94E2F7822B80839E
:100C3000E091E402F091E502908198010090ED02CC
:100C400002C0220F331F0A94E2F7822F8095892376
:100C5000808382E491E00E94660261E08DE00E9460
:100C6000A60160E0809100010E94A60160E08091F1
:100C700001010E94A60160E0809102010E94A6018C
:100C800061E08CE00E94A60184EF91E0A0E0B0E07A
:100C90008093720390937303A0937403B0937503CE
:100CA000109377030093760340E65AEE60E070E01D
:100CB00040936203509363036093640370936503EE
:100CC000109367030093660340E25FEB60E070E01F
:100CD000409352035093530360935403709355030E
:100CE000109357030093560380934203909343035A
:100CF000A0934403B0934503109347030093460326
:100D00000E94A70384E591E00E94660288E591E0D5
:100D10000E946602609138027091390280913A0215
:100D200090913B0242E00E94B5028AE891E00E9465
:100D300066028FE591E00E9466028EEC92E00E94CE
:100D4000CE000E94E2018B0160E7C62E67E1D62E3D
:100D5000E12CF12C0E94E201601B710B683E734094
:100D6000C8F391E0C91AD108E108F10808511C4FF5
:100D7000C114D104E104F10469F78FE691E00E9407
:100D8000660234EF832E99249394A12CB12C222453
:100D90002394312C52E3452E512C612C712C8091DF
:100DA000F002882311F061E001C060E08DE00E9454
:100DB0007701809178039091790381309105D1F486
:100DC00010927903109278039093770380937603BF
:100DD0008091F002811104C081E08093F00202C092
:100DE0001092F00210926E0310926F031092700333
:100DF000109271038AE693E00E94070280916803D3
:100E0000909169038130910591F4109269031092D9
:100E1000680390936703809366030E94A703109270
:100E20005E0310925F0310926003109261038AE5E3
:100E300093E00E94070280913C02813049F4409285
:100E4000720350927303609274037092750308C02A
:100E50008092720390927303A0927403B092750310
:100E600030927703209276038091120390911303BE
:100E70008130910509F03BC11092130310921203C7
:100E800090931103809310031092080310920903AA
:100E900010920A0310920B0319821A821B8280910E
:100EA0002403893008F038C0F82E23E0D22ED80E63
:100EB000FD1460F50F2D10E00F501D4FF801E05CA0
:100EC000FF4F208130E0F901E255FF4F8491F90195
:100ED000E656FF4FE490F901EA57FF4FC490CC204B
:100EE00079F081110E944E01EC2DF0E0EE0FFF1F12
:100EF000E859FF4FA591B491EC91EE2281E009F4FD
:100F000080E0D801D4968C93F394D2CF80912403BF
:100F10008D5F8093240394C010922403E5E2F3E0F4
:100F2000BE016F5F7F4F9B01919142818581842B30
:100F3000892BD9018D939D01B3E0E832FB07A1F71E
:100F4000EEE2F3E080E0DB019D91BD0120812913F9
:100F500081E09193B3E0E133FB07A9F7882309F41B
:100F60006FC080912E0381110AC080912F038130C0
:100F700061F485E791E00E94660211E007C08130CC
:100F800021F480912F038823A1F310E0EEE2F3E037
:100F9000FD83EC83C12CD12C7601C394AC81BD813F
:100FA0008D91BD83AC8381110DC08CE891E00E94CE
:100FB00066024AE0C701B6010E94680283E991E037
:100FC0000E946602BFEFCB1ADB0AEB0AFB0AE4E0E1
:100FD000CE16D104E104F10409F7112319F010929F
:100FE000F2022EC080912E03811118C080912F0330
:100FF000811114C083EA91E00E9466028091F3029D
:10100000811122C081E08093F3021092F8021092C5
:10101000F9021092FA021092FB0212C08AED91E0DE
:101020000E9466028091F302882391F11092F302EC
:10103000109218031092190310921A0310921B03B6
:101040008091F302882321F18091F102811120C067
:1010500080910203909103038130910509F04CC007
:1010600010920303109202039093010380930003F4
:1010700081E08093F10288E092E00E946602109283
:1010800018031092190310921A0310921B030AC03E
:101090001092F8021092F9021092FA021092FB02DA
:1010A0001092F1028091F302882309F478CE8091A6
:1010B000F102882309F473CE8091F20281116FCE80
:1010C000809122039091230381309105D1F41092F5
:1010D000230310922203909321038093200381E045
:1010E0008093F2028DE192E00E94660258CE84E085
:1010F00093E00E940702A4CF84EF92E00E940702CF
:10110000BECF84E193E00E94070249CEF8940C948C
:10111000F40A5058BB27AA270E94A1080C941B0A66
:101120000E940D0A38F00E94140A20F039F49F3F03
:1011300019F426F40C940A0A0EF4E095E7FB0C94DB
:10114000040AE92F0E942C0A58F3BA1762077307A2
:101150008407950720F079F4A6F50C944E0A0EF456
:10116000E0950B2EBA2FA02D0B01B90190010C01B7
:10117000CA01A0011124FF27591B99F0593F50F4CF
:10118000503E68F11A16F040A22F232F342F442727
:10119000585FF3CF469537952795A795F04053951F
:1011A000C9F77EF41F16BA0B620B730B840BBAF0EF
:1011B0009150A1F0FF0FBB1F661F771F881FC2F75A
:1011C0000EC0BA0F621F731F841F48F4879577956E
:1011D0006795B795F7959E3F08F0B0CF9395880F28
:1011E00008F09927EE0F9795879508950E94E009DA
:1011F00008F481E008950E940F090C941B0A0E94D4
:10120000140A58F00E940D0A40F029F45F3F29F0BB
:101210000C94040A51110C944F0A0C940A0A0E946F
:101220002C0A68F39923B1F3552391F3951B550BC1
:10123000BB27AA2762177307840738F09F5F5F4FA9
:10124000220F331F441FAA1FA9F335D00E2E3AF0E8
:10125000E0E832D091505040E695001CCAF72BD000
:10126000FE2F29D0660F771F881FBB1F2617370751
:101270004807AB07B0E809F0BB0B802DBF01FF2783
:1012800093585F4F3AF09E3F510578F00C94040A52
:101290000C944F0A5F3FE4F3983ED4F3869577951C
:1012A0006795B795F7959F5FC9F7880F911D96953C
:1012B000879597F90895E1E0660F771F881FBB1F98
:1012C000621773078407BA0720F0621B730B840B45
:1012D000BA0BEE1F88F7E09508950E947409689490
:1012E000B1110C944F0A08950E94340A88F09F5758
:1012F00098F0B92F9927B751B0F0E1F0660F771F3A
:10130000881F991F1AF0BA95C9F714C0B13091F02F
:101310000E944E0AB1E008950C944E0A672F782F70
:101320008827B85F39F0B93FCCF3869577956795F4
:10133000B395D9F73EF490958095709561957F4F60
:101340008F4F9F4F0895E89409C097FB3EF4909506
:101350008095709561957F4F8F4F9F4F9923A9F08E
:10136000F92F96E9BB279395F6958795779567951D
:10137000B795F111F8CFFAF4BB0F11F460FF1BC061
:101380006F5F7F4F8F4F9F4F16C0882311F096E9F4
:1013900011C0772321F09EE8872F762F05C06623A2
:1013A00071F096E8862F70E060E02AF09A95660F5B
:1013B000771F881FDAF7880F9695879597F9089514
:1013C000990F0008550FAA0BE0E8FEEF1616170656
:1013D000E807F907C0F012161306E407F50798F0BE
:1013E000621B730B840B950B39F40A2661F0232BD7
:1013F000242B252B21F408950A2609F4A140A69553
:101400008FEF811D811D089597F99F6780E870E037
:1014100060E008959FEF80EC089500240A9416166A
:10142000170618060906089500240A9412161306D2
:10143000140605060895092E0394000C11F4882360
:1014400052F0BB0F40F4BF2B11F460FF04C06F5F7C
:101450007F4F8F4F9F4F089557FD9058440F551F52
:1014600059F05F3F71F04795880F97FB991F61F026
:101470009F3F79F087950895121613061406551F9D
:10148000F2CF4695F1DF08C0161617061806991F09
:10149000F1CF86957105610508940895E894BB27FE
:1014A00066277727CB0197F908950E94E00908F491
:1014B0008FEF08950E946D0A0C941B0A0E940D0A7A
:1014C00038F00E94140A20F0952311F00C94040ABD
:1014D0000C940A0A11240C944F0A0E942C0A70F3EF
:1014E000959FC1F3950F50E0551F629FF001729FC9
:1014F000BB27F00DB11D639FAA27F00DB11DAA1FD8
:10150000649F6627B00DA11D661F829F2227B00D24
:10151000A11D621F739FB00DA11D621F839FA00DAF
:10152000611D221F749F3327A00D611D231F849FFF
:10153000600D211D822F762F6A2F11249F57504056
:101540009AF0F1F088234AF0EE0FFF1FBB1F661FD1
:10155000771F881F91505040A9F79E3F510580F09A
:101560000C94040A0C944F0A5F3FE4F3983ED4F3C2
:10157000869577956795B795F795E7959F5FC1F73E
:10158000FE2B880F911D9695879597F908950E94D7
:10159000E009880B990B0895A1E21A2EAA1BBB1B28
:1015A000FD010DC0AA1FBB1FEE1FFF1FA217B3072F
:1015B000E407F50720F0A21BB30BE40BF50B661F45
:1015C000771F881F991F1A9469F760957095809509
:1015D00090959B01AC01BD01CF010895EE0FFF1F57
:0C15E0000590F491E02D0994F894FFCFE1
:1015EC0002090A01010101010101010101010102CC
:1015FC00090A02090A02090A000000008C002601EF
:10160C001501D900F900CE006E616E00696E66009E
:10161C006F7666002E0076426174204C4F57213A4B
:10162C002000496E697469616C697A696E67202E55
:10163C002E2E20004F6B0A00764261743A20004235
:10164C006F6F742044656C6179202E2E2E2000441F
:10165C006F6E650A0041626E6F726D616C20706F07
:10166C0077657220696E707574210A005068617319
:10167C006520003A20646973636F6E6E65637465F0
:10168C00640A004E6F20706F7765722070726573FC
:10169C00656E7420696E20746865206D61696E7367
:1016AC002C207374617274696E672067656E657245
:1016BC0061746F72202E2E2E0A00506F7765722087
:1016CC0070726573656E742C207265636F6E6E65D7
:1016DC006374696E6720746F20746865206D61692E
:1016EC006E73202E2E2E0A0047656E657261746F24
:1016FC0072206973207265616479210A00436F6EF0
:10170C006E656374696E672067656E657261746F70
:08171C0072206C6F61640A0089
:00000001FF
