:100000000C9462000C948A000C948A000C948A0070
:100010000C948A000C948A000C948A000C948A0038
:100020000C948A000C948A000C948A000C948A0028
:100030000C948A000C948A000C948A000C948A0018
:100040000C94C1000C948A000C94C1040C94860496
:100050000C948A000C948A000C948A000C948A00F8
:100060000C948A000C948A000000000023002600F3
:10007000290000000000240027002A0000000000E2
:10008000250028002B0004040404040404040202D4
:100090000202020203030303030301020408102007
:1000A0004080010204081020010204081020000012
:1000B0000007000201000003040600000000000029
:1000C00000007E0911241FBECFEFD8E0DEBFCDBFF8
:1000D00012E0A0E0B1E0EEEDFAE102C005900D9271
:1000E000A234B107D9F723E0A2E4B2E001C01D9227
:1000F000A13EB207E1F710E0C2E6D0E004C02197CC
:10010000FE010E94670DC136D107C9F70E94E205C2
:100110000C94FF0A0C940000CF93DF93EC0180E471
:1001200091E00E94B3026A817B818C819D8142E0D3
:100130000E94160384E691E0DF91CF910C94B30204
:10014000CF93DF93EC018EE00E94FB04BC01990F7A
:10015000880B990B0E941E0C20E030E040E851E42F
:100160000E94D30C20E030EC4FE754E40E94740B63
:100170006A837B838C839D83CE01DF91CF910C9426
:100180008C001F920F920FB60F9211242F933F9362
:100190008F939F93AF93BF938091440290914502B8
:1001A000A0914602B09147023091430223E0230F11
:1001B0002D3720F40196A11DB11D05C026E8230F9F
:1001C0000296A11DB11D2093430280934402909397
:1001D0004502A0934602B093470280914802909155
:1001E0004902A0914A02B0914B020196A11DB11D96
:1001F0008093480290934902A0934A02B0934B0225
:10020000BF91AF919F918F913F912F910F900FBE12
:100210000F901F9018950F931F93FC018FB7F894C0
:10022000409144025091450260914602709147020C
:100230008FBF848595850197C9F400811181228142
:10024000338184819581A681B781840F951FA61F74
:10025000B71F401751076207730720F0801B910BEF
:10026000A20BB30B84839583A683B783408351830A
:100270006283738380859185A285B3850097A105EC
:10028000B10589F04481558166817781841795078E
:10029000A607B70750F481E090E09787868714821D
:1002A000158216821782158614861F910F91089564
:1002B000CF93DF93EC010E940B011C821D821E82F2
:1002C0001F821F861E86DF91CF9108950F931F9383
:1002D000CF93DF938C010A5F1F4FFC01248935897E
:1002E0002130310529F5EC01158A148A338B228BD4
:1002F0000E94A00026E636E646E451E46A817B814E
:100300008C819D810E946F0B1816CCF087E491E0E0
:100310000E94B3026A817B818C819D8142E00E94B0
:10032000160384E691E00E94B302C8010E945801BE
:10033000C801DF91CF911F910F910C940B01CE0159
:100340000E948C00F2CF40E65AEE60E070E0FC01C3
:1003500046875787608B718B21E030E0338B228B8F
:1003600006960C945801FC0114821582168217829D
:1003700015861486108611861286138610821182C5
:10038000128213821786168608950F931F93CF93B8
:10039000DF93FC01A685B7858D01005C1F4FE80146
:1003A0008881998101968F739927AD014E5B5F4FCC
:1003B000EA012881398128173907D1F3E80128811A
:1003C0003981A20FB31F6C93A685B785A05CBF4F80
:1003D00011969C938E93A689B7892C9181E090E029
:1003E000078C02C0880F991F0A94E2F7822B8C9326
:1003F00081E081A30488F589E02D80818064808379
:1004000081E090E0DF91CF911F910F910895FC0161
:1004100081A1882329F0A489B5898C9186FFFBCF1F
:1004200011A20895FC01A485B585FD01E05CFF4F94
:10043000208131813296808191812817390779F0A6
:1004400080819181A80FB91F8C91208131812F5F0C
:100450003F4F2F7333273183208390E008958FEF30
:100460009FEF0895DC011C96ED91FC911D97DF0133
:10047000A05CBF4F2D913C91119712968D919C914C
:1004800011972817390739F08D919C91E80FF91FC2
:10049000808190E008958FEF9FEF0895FC012485FF
:1004A0003585F901E05CFF4F808191813296208192
:1004B0003181821B930B8F73992708950895CF92F2
:1004C000DF92EF92FF920F931F93CF93DF936C0114
:1004D000EB017B01E40EF51E00E010E0CE15DF0518
:1004E00061F06991D601ED91FC910190F081E02DD0
:1004F000C6010995080F191FF1CFC801DF91CF91EF
:100500001F910F91FF90EF90DF90CF90089500978B
:1005100069F0FC0101900020E9F73197AF01481B19
:10052000590BBC018CE492E00C945F0280E090E0F7
:1005300008958091C602882349F08091C7028823DC
:1005400029F081E09091C802911101C080E00895E6
:100550008091C902811105C00E94990291E089270A
:10056000089580E008950C948702EFE6F2E010A26F
:1005700011A280899189A289B38980879187A287F6
:10058000B38781E090E09587848713A2CF010C9414
:1005900058018F929F92AF92BF92EF92FF920F936A
:1005A0001F93CF93DF93CDB7DEB7A1970FB6F89423
:1005B000DEBF0FBECDBF162F042F19A2423008F4A4
:1005C0000AE07E0121E2E20EF11C802E912CA12C8A
:1005D000B12C612FA50194010E94450D029F1019B5
:1005E000112481E0E81AF1081A3014F4105D01C0FA
:1005F000195CF7011083122F732FCA01232B242BB0
:10060000252B39F7C7010E948702A1960FB6F894EF
:10061000DEBF0FBECDBFDF91CF911F910F91FF9035
:10062000EF90BF90AF909F908F9008954F925F9200
:100630006F927F928F929F92AF92BF92CF92DF92F2
:10064000EF92FF92CF93DF936B017C01B42E9B015D
:10065000AC010E94400D882319F08FEF91E027C074
:1006600026013701E89477F82FEF3FEF4FE75FE778
:10067000C301B2010E94400D81110DC02FEF3FEF69
:100680004FE75FE7C301B2010E946F0B18161CF41D
:1006900083E092E00CC02FEF3FEF4FE75FE4C7012C
:1006A000B6010E94CE0C181694F487E092E0DF9118
:1006B000CF91FF90EF90DF90CF90BF90AF909F9041
:1006C0008F907F906F905F904F900C9487022FEFE8
:1006D0003FEF4FE75FECC701B6010E946F0B87FD4C
:1006E000E4CF20E030E0A901C701B6010E946F0B02
:1006F00087FF0BC06DE28CE492E00E94C501EC0123
:10070000F7FAF094F7F8F09402C0C0E0D0E0A12C22
:1007100060E070E080E09FE3BA1441F020E030E058
:1007200040E251E40E94740BA394F6CFA701960116
:100730000E94030B6B017C010E94ED0B2B013C011D
:100740004AE00E94C902C80FD91FBB2009F450C05B
:10075000C301B2010E941C0C9B01AC01C701B60190
:100760000E94020B2B013C018BE092E00E94870269
:10077000C80FD91FFB2C20E030E040E251E4C30158
:10078000B2010E94D30C2B013C010E94E60B4B01ED
:10079000770FAA08BB08B7FE15C06DE28CE492E0A3
:1007A0000E94C5016C0188279927DC0188199909E5
:1007B000AA09BB094AE0BC01CD010E94C9028C0D07
:1007C0009D1D05C04AE0C501B4010E94C902C80FC1
:1007D000D91FC501B4010E941E0C9B01AC01C301CD
:1007E000B2010E94020B2B013C01FA94F110C3CF1D
:1007F000CE01DF91CF91FF90EF90DF90CF90BF902F
:10080000AF909F908F907F906F905F904F900895E2
:100810000F931F93CF930FEC12E0C0E08DE092E0B6
:100820000E94B302C23051F0C33059F0C13019F008
:1008300086E192E008C080E292E005C08AE292E0A0
:1008400002C084E392E00E94B302F80161917191C9
:10085000819191918F0142E00E9416038EE392E014
:100860000E94B302CF5FC430C9F6CF911F910F91A0
:10087000089580917D0290917E0281309105B9F5B5
:1008800010927E0210927D0290937C0280937B02F4
:100890008091900290919102981760F08F5F809301
:1008A000900280918F028F5F80938F028FE692E09B
:1008B0000E94580181E080939202E091900284E0CE
:1008C000E89FF0011124E158FD4F80819181A281C0
:1008D000B3818093770290937802A0937902B093CA
:1008E0007A0281E090E090937C0280937B02909169
:1008F000900280919102891728F4809193028111CE
:100900000E94B5028FE692E00C940B011F920F92A9
:100910000FB60F9211242F933F938F939F93EF93D2
:10092000FF932091990330919A0380919B039091BA
:100930009C032817390731F48091C1008F7D809383
:10094000C10014C0E0919B03F0919C03E75AFC4F57
:10095000208180919B0390919C0301968F7399272E
:1009600090939C0380939B032093C600FF91EF918B
:100970009F918F913F912F910F900FBE0F901F90DD
:1009800018951F920F920FB60F9211242F934F9329
:100990005F938F939F93EF93FF938091C00082FDAD
:1009A0001CC02091C6008091DD039091DE03409130
:1009B000DF035091E00301968F7399274817590779
:1009C00071F0E091DD03F091DE03E356FC4F2083EC
:1009D0009093DE038093DD0302C08091C600FF91F7
:1009E000EF919F918F915F914F912F910F900FBE3B
:1009F0000F901F9018958E3008F08E50877080648D
:100A000080937C0080917A00806480937A0080914A
:100A10007A0086FDFCCF809178002091790090E0EB
:100A2000922B0895833081F028F4813099F0823040
:100A3000A1F008958630A9F08730B9F08430D1F460
:100A4000809180008F7D03C0809180008F7780939C
:100A50008000089584B58F7702C084B58F7D84BDF2
:100A600008958091B0008F7703C08091B0008F7D92
:100A70008093B00008951F93CF93DF93282F30E029
:100A8000F901E255FF4F8491F901E656FF4FD491E9
:100A9000F901EA57FF4FC491CC23C1F0162F811101
:100AA0000E941205EC2FF0E0EE0FFF1FE458FF4FFD
:100AB000A591B4919FB7F894111104C08C91D09571
:100AC000D82302C0EC91DE2BDC939FBFDF91CF9146
:100AD0001F910895CF93DF9390E0FC01E656FF4FFE
:100AE0002491FC01EA57FF4F8491882361F190E043
:100AF000880F991FFC01EE58FF4FC591D491FC015E
:100B0000E458FF4FA591B491611109C09FB7F894C3
:100B10008881209582238883EC912E230BC062303C
:100B200061F49FB7F8948881322F309583238883AE
:100B3000EC912E2B2C939FBF06C08FB7F894E881C1
:100B40002E2B28838FBFDF91CF910895FF920F93B3
:100B50001F93CF93DF93F62EEC018C010C5F1F4F98
:100B60006F2D89910E946A05C017D107C9F7DF91DF
:100B7000CF911F910F91FF9008953FB7F894809106
:100B8000480290914902A0914A02B0914B0226B5C9
:100B9000A89B05C02F3F19F00196A11DB11D3FBFB5
:100BA000BA2FA92F982F8827820F911DA11DB11D43
:100BB000BC01CD0142E0660F771F881F991F4A953F
:100BC000D1F70895789484B5826084BD84B581603E
:100BD00084BD85B5826085BD85B5816085BD809108
:100BE0006E00816080936E00109281008091810080
:100BF0008260809381008091810081608093810078
:100C0000809180008160809380008091B100846039
:100C10008093B1008091B00081608093B00080919A
:100C20007A00846080937A0080917A008260809359
:100C30007A0080917A00816080937A0080917A00B6
:100C4000806880937A001092C100E0916002F09178
:100C50006102C1E0D0E0CE0100906C0202C0880FBA
:100C6000991F0A94E2F78083E0915C02F0915D02A3
:100C70001082E0915E02F0915F028FEC808310920F
:100C80006D02E0916202F09163022081CE0100903A
:100C9000680202C0880F991F0A94E2F7822B8083B2
:100CA000E0916202F09163022081CE01009069021E
:100CB00002C0880F991F0A94E2F7822B8083E0918B
:100CC0006202F09163022081CE0100906A0202C0AC
:100CD000880F991F0A94E2F7822B8083E0916202C9
:100CE000F091630290819E0100906B0202C0220F7E
:100CF000331F0A94E2F7822F80958923808383E54E
:100D000091E00E94B30261E08DE00E946A0560E01C
:100D100084E091E00E94A60560E080E091E00E94FE
:100D2000A60561E088E091E00E94A60561E08CE004
:100D30000E946A0561E087E00E946A0584EF91E005
:100D4000A0E0B0E08093510390935203A09353032B
:100D5000B0935403D0935603C093550380E395E7B3
:100D6000A0E0B0E08093410390934203A09343033B
:100D7000B0934403D0934603C093450383E293E0CA
:100D80000E94A0008CE492E00E9407020E94BD0530
:100D9000EB0160E7C62E67E1D62EE12CF12C0E9414
:100DA000BD056C1B7D0B683E7340C8F391E0C91A0A
:100DB000D108E108F108C851DC4FC114D104E104A5
:100DC000F10469F786E691E00E94B3025BE0252E0C
:100DD00051E0352E80916E02882311F061E001C050
:100DE00060E08DE00E943B0580915703909158038D
:100DF00081309105B1F410925803109257039093EB
:100E000056038093550380916E02811104C081E0E6
:100E100080936E0202C010926E0289E493E00E94F9
:100E2000580189E493E00E940B0183E293E00E9461
:100E3000660184EF91E0A0E0B0E0809351039093CD
:100E40005203A0935303B0935403A1E0B0E0B093D6
:100E50005603A09355038091470390914803813036
:100E6000910559F41092480310924703909346035A
:100E70008093450381E0809342020E949902811190
:100E800004C080918F02813029F489E393E00E94AD
:100E90000B0106C01092420289E393E00E945801C0
:100EA0008091A3029091A4028130910509F002C2C1
:100EB0001092A4021092A3029093A2028093A10226
:100EC00085E992E00E9458018091B502803108F0D6
:100ED0005FC0F82E44E0E42EE80E8091B502FE14C7
:100EE00008F052C00F2D10E0CF2DC81BD0E0C15923
:100EF000DD4FFE01E55AFF4F208130E0F901E25558
:100F0000FF4F8491F901E656FF4FD490F901EA575B
:100F1000FF4FC490CC2079F081110E941205EC2D76
:100F2000F0E0EE0FFF1FE859FF4FA591B491EC914F
:100F3000DE2281E009F480E0F801EA54FD4F80836D
:100F4000C059DF4F88810E94FB04000F111F000F62
:100F5000111FE801CD51DD4FBC01990F880B990B92
:100F60000E941E0C2EEA37E04EE753E40E94D30C99
:100F700020E030EC4FE754E40E94740B68837983DF
:100F80008A839B83F394A9CF8C5F8093B502B0C012
:100F90001092B502CFE6D2E08E01C12CD12CF8011F
:100FA000E95BFF4F908134968081892B3496908144
:100FB000892B34969081892B34969081891711F072
:100FC000CC24C39480837E01B0E6EB0EF11CFE01BD
:100FD000EC58FF4FDE01AC57BF4F2D913D914D9125
:100FE0005C9160817181828193810E94030BFE017B
:100FF000EC56FF4F20813181428153810E94030BC7
:10100000FE01EC55FF4F20813181428153810E94C6
:10101000030B20E030E040E85EE30E94D30CF701D0
:101020006083718382839383D3940F5F1F4F2496D1
:10103000F4E0DF12B4CFCC2009F45AC08091C8028A
:10104000811115C08091C602813051F48091C70290
:10105000811108C08CE691E00E94B30211E014C037
:10106000811111C08091C7028130A1F30CC0813081
:1010700051F48091C602882349F3813021F4809194
:10108000C702882339F310E0C6ECD2E0C12CD12C82
:101090007601C394899181110DC083E891E00E948B
:1010A000B3024AE0C701B6010E94C9028AE891E092
:1010B0000E94B3028FEFC81AD80AE80AF80A95E02E
:1010C000C916D104E104F10429F7111111C00E94DD
:1010D0009902811107C00E94A802882339F08AE989
:1010E00091E002C081ED91E00E94B3020E940804E9
:1010F0008091B3029091B4028130910509F0DFC074
:10110000C091CE021092B4021092B3029093B20238
:101110008093B10285EA92E00E9458018090CF024C
:101120009090D002A090D102B090D2024090D30211
:101130005090D4026090D5027090D60220E030E04A
:1011400040E251E4C501B4010E94D30C20E030E03C
:1011500048EC52E40E94740B9B01AC01C501B40140
:101160000E94020BA30192010E94CE0CC090D702F4
:10117000D090D802E090D902F090DA0220E030E07E
:1011800040E251E41816DCF4C701B6010E94D30C0A
:1011900020E030E048EC52E40E94740B9B01AC016B
:1011A000C701B6010E94020B9B01AC01C501B4014D
:1011B0000E946F0B881F8827881F880F1AC0C701DD
:1011C000B6010E94D30C20E030E048EC52E40E94CB
:1011D000740B9B01AC01C701B6010E94020B9B017D
:1011E000AC01C301B2010E946F0B881F8827881FC2
:1011F0008F5F8093CE02C8130E9408040E94A80249
:10120000C1E0D82FDC270E9499028C27809394029A
:1012100090918F02913059F018F09230B9F412C0C9
:10122000DD23A1F0882391F00E94390411C0DD2351
:1012300069F08823C9F3109292028FE692E00E942F
:10124000580106C0DD2311F0882371F30E94B50216
:101250000E94A802882311F061E001C060E08CE0E8
:101260000E943B0580918F02833031F0811106C0CE
:1012700080919402811102C061E001C060E087E0CA
:101280000E943B0580918F028130F1F4C8E0D1E0EB
:1012900060E089910E943B052C163D06C9F78091BC
:1012A0004202882311F061E001C060E086E00E9404
:1012B0003B0590CD85E992E00E940B0119CF85EAAC
:1012C00092E00E940B019ACF0091CE0260E086E08E
:1012D0000E943B05C8E0D1E010E0011306C08091F8
:1012E0004202882311F061E001C060E088810E9421
:1012F0003B051F5F2196133081F76CCD8F929F9233
:10130000AF92BF92CF92DF92EF92FF920F931F9313
:10131000CF93DF93CDB7DEB7C056D1090FB6F8949F
:10132000DEBF0FBECDBF10924F0210924E0288EE6C
:1013300093E0A0E0B0E08093500290935102A0931C
:101340005202B09353028CE291E090934D0280934D
:101350004C028DE993E0909359028093580289E5FD
:1013600093E090935B0280935A0285EC90E0909317
:101370005D0280935C0284EC90E090935F02809326
:101380005E0280EC90E0909361028093600281ECB9
:1013900090E0909363028093620282EC90E09093DD
:1013A00065028093640286EC90E0909367028093DC
:1013B000660284E08093680283E08093690287E09C
:1013C00080936A0285E080936B0211E010936C02B7
:1013D00089E493E00E94B30189E393E00E94B301A2
:1013E0008CE391E0909324038093230310922503D0
:1013F00010922603109227031092280389E293E0AB
:101400000E94B30183E293E00E94A3018FE692E081
:101410000E94B30110927F0210928002109281020A
:101420001092820210929102109393020E94B502D0
:1014300088EB9BE0A0E0B0E080937F029093800275
:10144000A0938102B09382020E94B50280E797E1E7
:10145000A0E0B0E08093830290938402A093850281
:10146000B093860280919102811102C01093910283
:101470000E94B50288EB9BE0A0E0B0E08093870279
:1014800090938802A0938902B0938A02809191027E
:10149000823018F482E0809391020E94B50210928B
:1014A000930285E992E00E94B30185EA92E00E94EE
:1014B000B30180900C0190900D01A0900E01B090AE
:1014C0000F0180E1E0E1F1E0DE01AF5ABF4F019092
:1014D0000D928A95E1F780E18E010F5B1F4FF801B5
:1014E000482F11924A95E9F790E49E012F5F3F4FF4
:1014F000F901492F11924A95E9F7C0902001D09047
:101500002101E0902201F0902301409124015091AB
:10151000250160912601709127011092B5028092F9
:10152000C6029092C702A092C802B092C902FE0100
:10153000EF5AFF4FA6EBB2E0B82E01900D92BA948D
:10154000E1F7C092CA02D092CB02E092CC02F092B4
:10155000CD024093DF025093E0026093E10270936A
:10156000E202F801AFECB2E001900D928A95E1F74A
:10157000F901A3EEB2E001900D929A95E1F78EE1A8
:1015800090E0A0E0B0E080939D0290939E02A09333
:101590009F02B093A00201E010E01093A20200931A
:1015A000A10285E992E00E94580182E390E0A0E068
:1015B000B0E08093AD029093AE02A093AF02B093DF
:1015C000B0021093B2020093B10285EA92E00E9449
:1015D000580110926E02C05ADF4F0FB6F894DEBF6A
:1015E0000FBECDBFDF91CF911F910F91FF90EF9074
:1015F000DF90CF90BF90AF909F908F900895F89418
:101600000C946D0D5058BB27AA270E941A0B0C94FE
:10161000940C0E94860C38F00E948D0C20F039F456
:101620009F3F19F426F40C94830C0EF4E095E7FB2D
:101630000C947D0CE92F0E94A50C58F3BA17620791
:1016400073078407950720F079F4A6F50C94C70C6E
:101650000EF4E0950B2EBA2FA02D0B01B9019001CD
:101660000C01CA01A0011124FF27591B99F0593F11
:1016700050F4503E68F11A16F040A22F232F342F59
:101680004427585FF3CF469537952795A795F040A7
:101690005395C9F77EF41F16BA0B620B730B840BBC
:1016A000BAF09150A1F0FF0FBB1F661F771F881F74
:1016B000C2F70EC0BA0F621F731F841F48F48795CC
:1016C00077956795B795F7959E3F08F0B0CF9395BE
:1016D000880F08F09927EE0F9795879508950E9437
:1016E000590C08F481E008950E94880B0C94940C26
:1016F0000E948D0C58F00E94860C40F029F45F3F48
:1017000029F00C947D0C51110C94C80C0C94830C92
:101710000E94A50C68F39923B1F3552391F3951B0F
:10172000550BBB27AA2762177307840738F09F5F02
:101730005F4F220F331F441FAA1FA9F335D00E2E6F
:101740003AF0E0E832D091505040E695001CCAF7DC
:101750002BD0FE2F29D0660F771F881FBB1F26179F
:1017600037074807AB07B0E809F0BB0B802DBF0176
:10177000FF2793585F4F3AF09E3F510578F00C9445
:101780007D0C0C94C80C5F3FE4F3983ED4F386952F
:1017900077956795B795F7959F5FC9F7880F911D66
:1017A0009695879597F90895E1E0660F771F881F52
:1017B000BB1F621773078407BA0720F0621B730B05
:1017C000840BBA0BEE1F88F7E09508950E94ED0B8D
:1017D0006894B1110C94C80C08950E94AD0C88F067
:1017E0009F5798F0B92F9927B751B0F0E1F0660FE5
:1017F000771F881F991F1AF0BA95C9F714C0B13026
:1018000091F00E94C70CB1E008950C94C70C672FAB
:10181000782F8827B85F39F0B93FCCF38695779554
:101820006795B395D9F73EF490958095709561953D
:101830007F4F8F4F9F4F0895E89409C097FB3EF468
:1018400090958095709561957F4F8F4F9F4F99230D
:10185000A9F0F92F96E9BB279395F695879577958B
:101860006795B795F111F8CFFAF4BB0F11F460FF4B
:101870001BC06F5F7F4F8F4F9F4F16C0882311F0A3
:1018800096E911C0772321F09EE8872F762F05C0B7
:10189000662371F096E8862F70E060E02AF09A9552
:1018A000660F771F881FDAF7880F9695879597F947
:1018B0000895990F0008550FAA0BE0E8FEEF1616E1
:1018C0001706E807F907C0F012161306E407F50734
:1018D00098F0621B730B840B950B39F40A2661F0A8
:1018E000232B242B252B21F408950A2609F4A1404B
:1018F000A6958FEF811D811D089597F99F6780E858
:1019000070E060E008959FEF80EC089500240A9451
:101910001616170618060906089500240A941216CA
:101920001306140605060895092E0394000C11F4FD
:10193000882352F0BB0F40F4BF2B11F460FF04C0AA
:101940006F5F7F4F8F4F9F4F089557FD9058440F03
:10195000551F59F05F3F71F04795880F97FB991F0E
:1019600061F09F3F79F087950895121613061406CB
:10197000551FF2CF4695F1DF08C016161706180658
:10198000991FF1CF86957105610508940895E89433
:10199000BB2766277727CB0197F908950E94590C3A
:1019A00008F48FEF08950E94E60C0C94940C0E94AA
:1019B000860C38F00E948D0C20F0952311F00C94C9
:1019C0007D0C0C94830C11240C94C80C0E94A50C63
:1019D00070F3959FC1F3950F50E0551F629FF00182
:1019E000729FBB27F00DB11D639FAA27F00DB11D9B
:1019F000AA1F649F6627B00DA11D661F829F222724
:101A0000B00DA11D621F739FB00DA11D621F839FAA
:101A1000A00D611D221F749F3327A00D611D231F80
:101A2000849F600D211D822F762F6A2F11249F57CE
:101A300050409AF0F1F088234AF0EE0FFF1FBB1FD1
:101A4000661F771F881F91505040A9F79E3F510590
:101A500080F00C947D0C0C94C80C5F3FE4F3983E2E
:101A6000D4F3869577956795B795F795E7959F5F3A
:101A7000C1F7FE2B880F911D9695879597F90895CC
:101A80000E94590C880B990B0895A1E21A2EAA1BEB
:101A9000BB1BFD010DC0AA1FBB1FEE1FFF1FA2171E
:101AA000B307E407F50720F0A21BB30BE40BF50B1B
:101AB000661F771F881F991F1A9469F760957095A4
:101AC000809590959B01AC01BD01CF010895EE0F6B
:0E1AD000FF1F0590F491E02D0994F894FFCFCC
:101ADE000F101112090A0B02030405060101010180
:101AEE0001010101010101010101010101010101D8
:101AFE00090A0B020F10111200000000C5015F024F
:101B0E004E0212023202070200000000A30166011B
:101B1E00764261743A200076426174204C4F572110
:101B2E003A2000496E697469616C697A696E672042
:101B3E002E2E2E200A00446F6E650A0041626E6FD3
:101B4E00726D616C20706F77657220696E7075743E
:101B5E00210A00506861736520003A20646973633E
:101B6E006F6E6E65637465640A004E6F20706F77DA
:101B7E0065722070726573656E742061742074686E
:101B8E0065206D61696E732C207374617274696E59
:101B9E00672067656E657261746F72202E2E2E0A35
:101BAE0000506F7765722070726573656E742C20AD
:101BBE007265636F6E6E656374696E6720746F20F5
:101BCE00746865206D61696E73202E2E2E0A006E6C
:101BDE00616E00696E66006F7666002E00566F6C41
:101BEE00746167652000706861736520523A200049
:101BFE00706861736520533A2000706861736520C8
:101C0E00543A2000706861736520473A2000560AE6
:021C1E000000C4
:00000001FF
