:100000000C9462000C948A000C948A000C948A0070
:100010000C948A000C948A000C948A000C948A0038
:100020000C948A000C948A000C948A000C948A0028
:100030000C948A000C948A000C948A000C948A0018
:100040000C9469040C948A000C942F040C94F4030F
:100050000C948A000C948A000C948A000C948A00F8
:100060000C948A000C948A000000000023002600F3
:10007000290000000000240027002A0000000000E2
:10008000250028002B0004040404040404040202D4
:100090000202020203030303030301020408102007
:1000A0004080010204081020010204081020000012
:1000B0000007000201000003040600000000000029
:1000C0000000B30411241FBECFEFD8E0DEBFCDBFC8
:1000D00011E0A0E0B1E0E8EFF4E102C005900D927C
:1000E000AC3FB107D9F722E0ACEFB1E001C01D92FF
:1000F000AE3FB207E1F710E0C2E6D0E004C02197BE
:10010000FE010E94740AC136D107C9F70E94950505
:100110000C940C080C9400000F931F93CF93DF9363
:10012000FC01A685B7858D01005C1F4FE801888121
:10013000998101968F739927AD014E5B5F4FEA015C
:100140002881398128173907D1F3E80128813981BD
:10015000A20FB31F6C93A685B785A05CBF4F119605
:100160009C938E93A689B7892C9181E090E0078CAF
:1001700002C0880F991F0A94E2F7822B8C9381E0CA
:1001800081A30488F589E02D80818064808381E0EB
:1001900090E0DF91CF911F910F910895FC0181A113
:1001A000882329F0A489B5898C9186FFFBCF11A201
:1001B0000895FC01A485B585FD01E05CFF4F208119
:1001C00031813296808191812817390779F08081B9
:1001D0009181A80FB91F8C91208131812F5F3F4FF2
:1001E0002F7333273183208390E008958FEF9FEFA3
:1001F0000895DC011C96ED91FC911D97DF01A05C38
:10020000BF4F2D913C91119712968D919C91119712
:100210002817390739F08D919C91E80FF91F8081DB
:1002200090E008958FEF9FEF0895FC0124853585B8
:10023000F901E05CFF4F808191813296208131810C
:10024000821B930B8F73992708950895CF92DF92A5
:10025000EF92FF920F931F93CF93DF936C01EB010B
:100260007B01E40EF51E00E010E0CE15DF0561F025
:100270006991D601ED91FC910190F081E02DC601CC
:100280000995080F191FF1CFC801DF91CF911F9178
:100290000F91FF90EF90DF90CF900895833081F021
:1002A00028F4813099F08230A1F008958630A9F0C9
:1002B0008730B9F08430D1F4809180008F7D03C005
:1002C000809180008F7780938000089584B58F7728
:1002D00002C084B58F7D84BD08958091B0008F7772
:1002E00003C08091B0008F7D8093B00008951F936C
:1002F000CF93DF93282F30E0F901E255FF4F84912F
:10030000F901E656FF4FD491F901EA57FF4FC49126
:10031000CC23C1F0162F81110E944E01EC2FF0E08A
:10032000EE0FFF1FE458FF4FA591B4919FB7F894CB
:10033000111104C08C91D095D82302C0EC91DE2B12
:10034000DC939FBFDF91CF911F910895CF93DF93EF
:1003500090E0FC01E656FF4F2491FC01EA57FF4F65
:100360008491882361F190E0880F991FFC01EE5879
:10037000FF4FC591D491FC01E458FF4FA591B49172
:10038000611109C09FB7F8948881209582238883E2
:10039000EC912E230BC0623061F49FB7F8948881F2
:1003A000322F309583238883EC912E2B2C939FBF83
:1003B00006C08FB7F894E8812E2B28838FBFDF917A
:1003C000CF9108953FB7F89480910602909107026B
:1003D000A0910802B091090226B5A89B05C02F3F45
:1003E00019F00196A11DB11D3FBFBA2FA92F982F5B
:1003F0008827820F911DA11DB11DBC01CD0142E0D6
:10040000660F771F881F991F4A95D1F708950F939C
:100410001F93FC018FB7F8944091020250910302A0
:1004200060910402709105028FBF848595850197C4
:10043000C9F4008111812281338184819581A68153
:10044000B781840F951FA61FB71F4017510762077A
:10045000730720F0801B910BA20BB30B8483958351
:10046000A683B7834083518362837383808591859C
:10047000A285B3850097A105B10589F04481558116
:100480006681778184179507A607B70750F481E046
:1004900090E09787868714821582168217821586C8
:1004A00014861F910F910895009769F0FC01019047
:1004B0000020E9F73197AF01481B590BBC0182E9D5
:1004C00092E00C94260180E090E008950C94540290
:1004D0008F929F92AF92BF92EF92FF920F931F93D2
:1004E000CF93DF93CDB7DEB7A1970FB6F894DEBFF9
:1004F0000FBECDBF162F042F19A2423008F40AE018
:100500007E0121E2E20EF11C802E912CA12CB12C57
:10051000612FA50194010E94520A029F1019112413
:1005200081E0E81AF1081A3014F4105D01C0195C7A
:10053000F7011083122F732FCA01232B242B252B95
:1005400039F7C7010E945402A1960FB6F894DEBF96
:100550000FBECDBFDF91CF911F910F91FF90EF9014
:10056000BF90AF909F908F9008954F925F926F923F
:100570007F928F929F92AF92BF92CF92DF92EF9233
:10058000FF92CF93DF936B017C01B42E9B01AC01F2
:100590000E944D0A882319F08CE191E027C02601C2
:1005A0003701E89477F82FEF3FEF4FE75FE7C3019C
:1005B000B2010E944D0A81110DC02FEF3FEF4FE7AE
:1005C0005FE7C301B2010E947C0818161CF480E2A8
:1005D00091E00CC02FEF3FEF4FE75FE4C701B6019A
:1005E0000E94DB09181694F484E291E0DF91CF9128
:1005F000FF90EF90DF90CF90BF90AF909F908F9043
:100600007F906F905F904F900C9454022FEF3FEFCC
:100610004FE75FECC701B6010E947C0887FDE4CF7D
:1006200020E030E0A901C701B6010E947C0887FFE5
:100630000BC06DE282E992E00E948C00EC01F7FAB7
:10064000F094F7F8F09402C0C0E0D0E0A12C60E094
:1006500070E080E09FE3BA1441F020E030E040E237
:1006600051E40E948108A394F6CFA70196010E944D
:1006700010086B017C010E94FA082B013C014AE042
:100680000E946802C80FD91FBB2009F450C0C301E3
:10069000B2010E9429099B01AC01C701B6010E9469
:1006A0000F082B013C0188E291E00E945402C80F20
:1006B000D91FFB2C20E030E040E251E4C301B2013D
:1006C0000E94E0092B013C010E94F3084B01770FC7
:1006D000AA08BB08B7FE15C06DE282E992E00E944D
:1006E0008C006C0188279927DC0188199909AA09CF
:1006F000BB094AE0BC01CD010E9468028C0D9D1D22
:1007000005C04AE0C501B4010E946802C80FD91FA4
:10071000C501B4010E942B099B01AC01C301B201C8
:100720000E940F082B013C01FA94F110C3CFCE01B7
:10073000DF91CF91FF90EF90DF90CF90BF90AF907F
:100740009F908F907F906F905F904F90089580E47E
:1007500080937C0080917A00806480937A008091FD
:100760007A0086FDFCCF609178008091790070E07E
:10077000782B072E000C880B990B0E942B0920E088
:1007800030E040E851E40E94E00920E030E040E839
:100790005AE30E94E0096093FC017093FD0180938D
:1007A000FE019093FF0126E636E646E451E40E94FE
:1007B0007C081816B4F081E0809300028AE291E090
:1007C0000E9466026091FC017091FD018091FE0122
:1007D0009091FF0142E00E94B5028EE791E00C94F7
:1007E00066021092000208951F920F920FB60F92A8
:1007F00011242F933F938F939F93EF93FF93209117
:100800004A0230914B0280914C0290914D02281780
:10081000390731F48091C1008F7D8093C10014C0ED
:10082000E0914C02F0914D02E65FFD4F20818091F6
:100830004C0290914D0201968F73992790934D022F
:1008400080934C022093C600FF91EF919F918F916E
:100850003F912F910F900FBE0F901F9018951F92F0
:100860000F920FB60F9211242F934F935F938F9394
:100870009F93EF93FF938091C00082FD1CC0209155
:10088000C60080918E0290918F024091900250910B
:10089000910201968F7399274817590771F0E091DB
:1008A0008E02F0918F02E25BFD4F208390938F02C6
:1008B00080938E0202C08091C600FF91EF919F91BC
:1008C0008F915F914F912F910F900FBE0F901F90BE
:1008D00018951F920F920FB60F9211242F933F93EA
:1008E0008F939F93AF93BF938091020290910302E5
:1008F000A0910402B09105023091010223E0230F80
:100900002D3720F40196A11DB11D05C026E8230F47
:100910000296A11DB11D20930102809302029093C3
:100920000302A0930402B093050280910602909105
:100930000702A0910802B09109020196A11DB11D04
:100940008093060290930702A0930802B0930902D5
:10095000BF91AF919F918F913F912F910F900FBEBB
:100960000F901F901895CF92DF92EF92FF920F9306
:100970001F93CF93DF93CDB7DEB760970FB6F89490
:10098000DEBF0FBECDBFE2E9F2E01382128288EE35
:1009900093E0A0E0B0E084839583A683B78380E1F1
:1009A00091E0918380838EE492E0958784878AE04A
:1009B00092E09787868785EC90E0918B808B84EC22
:1009C00090E0938B828B80EC90E0958B848B81EC14
:1009D00090E0978B868B82EC90E0918F808F86ECF5
:1009E00090E0938F828F84E0848F83E0858F87E00F
:1009F000868F85E0878F81E080A3EEEEF2E014829F
:100A00001582168217821586148610861186128624
:100A10001386108211821282138217861686EEEDDB
:100A2000F2E01482158216821782158614861086CB
:100A30001186128613861082118212821382178603
:100A4000168605EB12E0D80114961D921D921D9298
:100A50001C921797F8011082118212821382178656
:100A60001686C0900401D0900501E0900601F09038
:100A70000701FE01319690E1DF011D929A95E9F799
:100A8000409108015091090160910A0170910B0198
:100A9000D80150961C9250979196CD92DD92ED928E
:100AA000FC92949789838A838B838C838D838E8336
:100AB0008F83888789878A878B878C8780E1A6ECDC
:100AC000B2E001900D928A95E1F7F80145A356A393
:100AD00067A370A78EE190E0A0E0B0E080879187E7
:100AE000A287B38781E090E095878487C8010E9440
:100AF0000702D80114961D921D921D921C92179701
:100B00001F961C921E921E971092B40260960FB60A
:100B1000F894DEBF0FBECDBFDF91CF911F910F9133
:100B2000FF90EF90DF90CF900895789484B5826025
:100B300084BD84B5816084BD85B5826085BD85B581
:100B4000816085BD80916E00816080936E001092FF
:100B5000810080918100826080938100809181007A
:100B6000816080938100809180008160809380000B
:100B70008091B10084608093B1008091B000816069
:100B80008093B00080917A00846080937A00809195
:100B90007A00826080937A0080917A0081608093ED
:100BA0007A0080917A00806880937A001092C10068
:100BB000E091A602F091A702C1E0D0E0CE01009042
:100BC000B20202C0880F991F0A94E2F78083E09175
:100BD000A202F091A3021082E091A402F091A5027A
:100BE0008FEC80831092B302E091A802F091A902E9
:100BF0002081CE010090AE0202C0880F991F0A9496
:100C0000E2F7822B8083E091A802F091A902208173
:100C1000CE010090AF0202C0880F991F0A94E2F73C
:100C2000822B8083E091A802F091A9022081CE015D
:100C30000090B00202C0880F991F0A94E2F7822B3D
:100C40008083E091A802F091A90290819E0100901A
:100C5000B10202C0220F331F0A94E2F7822F80955F
:100C60008923808386E391E00E94660261E08DE043
:100C70000E94A60160E0809100010E94A60160E050
:100C8000809101010E94A60160E0809102010E9412
:100C9000A60161E08CE00E94A60184EF91E0A0E053
:100CA000B0E08093F6029093F702A093F802B0931D
:100CB000F902D093FB02C093FA0280E69AEEA0E01C
:100CC000B0E08093E6029093E702A093E802B0932D
:100CD000E902D093EB02C093EA020E94A70388E4E2
:100CE00091E00E9466028CE491E00E9466026091AD
:100CF000FC017091FD018091FE019091FF0142E0A5
:100D00000E94B5028EE791E00E94660283E591E0C1
:100D10000E94660282E992E00E94CE000E94E201F7
:100D2000EB0150E7C52E57E1D52EE12CF12C0E94A6
:100D3000E2016C1B7D0B683E7340C8F381E0C81A6A
:100D4000D108E108F108C851DC4FC114D104E10415
:100D5000F10469F783E691E00E94660234EF832E86
:100D600099249394A12CB12C01E010E042E3442E8D
:100D7000512C612C712C8091B402882311F061E018
:100D800001C060E08DE00E9477018091FC029091AB
:100D9000FD028130910511F51092FD021092FC02C6
:100DA0009093FB028093FA028091B402811104C0F7
:100DB00081E08093B40202C01092B4028EEE92E001
:100DC0000E9407021092F2021092F3021092F402B3
:100DD0001092F5021092FD021092FC028EEE92E04B
:100DE0000E9407028091EC029091ED028130910502
:100DF000D1F41092ED021092EC029093EB028093EA
:100E0000EA020E94A7038EED92E00E940702109270
:100E1000E2021092E3021092E4021092E5021092B4
:100E2000ED021092EC028EED92E00E94070280919A
:100E30000002813049F44092F6025092F70260922B
:100E4000F8027092F90208C08092F6029092F702BE
:100E5000A092F802B092F9021093FB020093FA02FA
:100E60008091C3029091C4028130910509F0C6C0FF
:100E70001092C4021092C3029093C2028093C102E6
:100E800085EB92E00E9407021092B9021092BA021A
:100E90001092BB021092BC021092C4021092C302C4
:100EA0008091C502803108F038C0F82E24E0D22E9F
:100EB000D80E8091C502FD1460F5CF2DD0E0EF2D46
:100EC000E81BF0E0EB54FD4F25A130E0F901E255BD
:100ED000FF4F8491F901E656FF4FE490F901EA577C
:100EE000FF4FC490CC2079F081110E944E01EC2D6F
:100EF000F0E0EE0FFF1FE859FF4FA591B491EC9180
:100F0000EE2281E009F480E0CB54DD4F898BF3942D
:100F1000D0CF8C5F8093C5022ECF1092C502E5EB37
:100F2000F2E030E020E091898589892B918D892B31
:100F3000958D892B91A1891331E081A32F5F319683
:100F4000243089F7332309F416CF8091D802811118
:100F500016C08091D602813059F48091D702811158
:100F600009C089E691E00E9466023324339414C0DC
:100F7000811111C08091D702813099F30CC081306A
:100F800051F48091D602882341F3813021F480917D
:100F9000D702882331F3312CC6EDD2E0C12CD12CFD
:100FA0007601C394899181110DC080E891E00E947F
:100FB00066024AE0C701B6010E94680287E891E034
:100FC0000E9466028FEFC81AD80AE80AF80A85E07C
:100FD000C816D104E104F10429F73110CCCE809178
:100FE000D602882381F08091D702882361F0809116
:100FF000D802882341F087E991E00BC085EB92E0AD
:101000000E940702B8CE8091D9028111B4CE85EC3E
:1010100091E00E946602AFCEF8940C947A0A505880
:10102000BB27AA270E9427080C94A1090E949309B4
:1010300038F00E949A0920F039F49F3F19F426F401
:101040000C9490090EF4E095E7FB0C948A09E92FC3
:101050000E94B20958F3BA1762077307840795070D
:1010600020F079F4A6F50C94D4090EF4E0950B2E3B
:10107000BA2FA02D0B01B90190010C01CA01A001EA
:101080001124FF27591B99F0593F50F4503E68F145
:101090001A16F040A22F232F342F4427585FF3CF86
:1010A000469537952795A795F0405395C9F77EF457
:1010B0001F16BA0B620B730B840BBAF09150A1F0A0
:1010C000FF0FBB1F661F771F881FC2F70EC0BA0F26
:1010D000621F731F841F48F4879577956795B795AE
:1010E000F7959E3F08F0B0CF9395880F08F09927A9
:1010F000EE0F9795879508950E94660908F481E0A0
:1011000008950E9495080C94A1090E949A0958F02C
:101110000E94930940F029F45F3F29F00C948A095A
:1011200051110C94D5090C9490090E94B20968F3EE
:101130009923B1F3552391F3951B550BBB27AA2790
:1011400062177307840738F09F5F5F4F220F331FCA
:10115000441FAA1FA9F335D00E2E3AF0E0E832D092
:1011600091505040E695001CCAF72BD0FE2F29D095
:10117000660F771F881FBB1F261737074807AB0767
:10118000B0E809F0BB0B802DBF01FF2793585F4FDC
:101190003AF09E3F510578F00C948A090C94D509D9
:1011A0005F3FE4F3983ED4F3869577956795B795BE
:1011B000F7959F5FC9F7880F911D9695879597F9C9
:1011C0000895E1E0660F771F881FBB1F6217730742
:1011D0008407BA0720F0621B730B840BBA0BEE1F57
:1011E00088F7E09508950E94FA086894B1110C946C
:1011F000D50908950E94BA0988F09F5798F0B92F31
:101200009927B751B0F0E1F0660F771F881F991F3B
:101210001AF0BA95C9F714C0B13091F00E94D40900
:10122000B1E008950C94D409672F782F8827B85F10
:1012300039F0B93FCCF3869577956795B395D9F793
:101240003EF490958095709561957F4F8F4F9F4F9D
:101250000895E89409C097FB3EF4909580957095A9
:1012600061957F4F8F4F9F4F9923A9F0F92F96E9F2
:10127000BB279395F695879577956795B795F11167
:10128000F8CFFAF4BB0F11F460FF1BC06F5F7F4F04
:101290008F4F9F4F16C0882311F096E911C0772316
:1012A00021F09EE8872F762F05C0662371F096E81F
:1012B000862F70E060E02AF09A95660F771F881FEE
:1012C000DAF7880F9695879597F90895990F000892
:1012D000550FAA0BE0E8FEEF16161706E807F90708
:1012E000C0F012161306E407F50798F0621B730BA3
:1012F000840B950B39F40A2661F0232B242B252B24
:1013000021F408950A2609F4A140A6958FEF811DC6
:10131000811D089597F99F6780E870E060E0089567
:101320009FEF80EC089500240A94161617061806FD
:101330000906089500240A941216130614060506D9
:101340000895092E0394000C11F4882352F0BB0F6A
:1013500040F4BF2B11F460FF04C06F5F7F4F8F4FCD
:101360009F4F089557FD9058440F551F59F05F3F08
:1013700071F04795880F97FB991F61F09F3F79F0B7
:1013800087950895121613061406551FF2CF469539
:10139000F1DF08C0161617061806991FF1CF8695BB
:1013A0007105610508940895E894BB27662777279F
:1013B000CB0197F908950E94660908F48FEF08950C
:1013C0000E94F3090C94A1090E94930938F00E942D
:1013D0009A0920F0952311F00C948A090C94900935
:1013E00011240C94D5090E94B20970F3959FC1F3A2
:1013F000950F50E0551F629FF001729FBB27F00DC3
:10140000B11D639FAA27F00DB11DAA1F649F662717
:10141000B00DA11D661F829F2227B00DA11D621F66
:10142000739FB00DA11D621F839FA00D611D221F20
:10143000749F3327A00D611D231F849F600D211D04
:10144000822F762F6A2F11249F5750409AF0F1F087
:1014500088234AF0EE0FFF1FBB1F661F771F881FF0
:1014600091505040A9F79E3F510580F00C948A0995
:101470000C94D5095F3FE4F3983ED4F386957795B5
:101480006795B795F795E7959F5FC1F7FE2B880F96
:10149000911D9695879597F908950E946609880B86
:1014A000990B0895A1E21A2EAA1BBB1BFD010DC0CA
:1014B000AA1FBB1FEE1FFF1FA217B307E407F50704
:1014C00020F0A21BB30BE40BF50B661F771F881FE0
:1014D000991F1A9469F760957095809590959B0176
:1014E000AC01BD01CF010895EE0FFF1F0590F491EF
:0814F000E02D0994F894FFCFF0
:1014F800090A0B0201010101090A0B0200000000A0
:101508008C0026011501D900F900CE006E616E002D
:10151800696E66006F7666002E0076426174204C14
:101528004F57213A2000496E697469616C697A697C
:101538006E67202E2E2E20004F6B0A0076426174B3
:101548003A2000426F6F742044656C6179202E2E1A
:101558002E2000446F6E650A0041626E6F726D61E5
:101568006C20706F77657220696E707574210A003F
:10157800506861736520003A20646973636F6E6E0A
:1015880065637465640A00506F77657220707265D0
:1015980073656E742C207265636F6E6E6563746913
:1015A8006E6720746F20746865206D61696E7320A2
:1015B8002E2E2E0A004E6F20706F77657220707283
:1015C8006573656E7420617420746865206D616947
:1015D8006E732C207374617274696E672067656E10
:0C15E800657261746F72202E2E2E0A00B6
:00000001FF
