:100000000C9462000C948A000C948A000C948A0070
:100010000C948A000C948A000C948A000C948A0038
:100020000C948A000C948A000C948A000C948A0028
:100030000C948A000C948A000C948A000C948A0018
:100040000C94B2040C948A000C9478040C943D0433
:100050000C948A000C948A000C948A000C948A00F8
:100060000C948A000C948A000000000023002600F3
:10007000290000000000240027002A0000000000E2
:10008000250028002B0004040404040404040202D4
:100090000202020203030303030301020408102007
:1000A0004080010204081020010204081020000012
:1000B0000007000201000003040600000000000029
:1000C0000000FC0411241FBECFEFD8E0DEBFCDBF7F
:1000D00012E0A0E0B1E0EEEFF7E102C005900D9272
:1000E000AE31B107D9F723E0AEE1B2E001C01D9215
:1000F000AA36B207E1F710E0C2E6D0E004C02197CB
:10010000FE010E94F70BC136D107C9F70E94DE0538
:100110000C948F090C94000080914503811110C04C
:1001200080914203882351F080914303882331F06A
:1001300081E090914403992321F002C081E0089569
:1001400080E008950F931F93CF93DF93FC01A68562
:10015000B7858D01005C1F4FE80188819981019668
:100160008F739927AD014E5B5F4FEA01288139817A
:1001700028173907D1F3E80128813981A20FB31F6D
:100180006C93A685B785A05CBF4F11969C938E9308
:10019000A689B7892C9181E090E0078C02C0880F76
:1001A000991F0A94E2F7822B8C9381E081A3048843
:1001B000F589E02D80818064808381E090E0DF918B
:1001C000CF911F910F910895FC0181A1882329F0FF
:1001D000A489B5898C9186FFFBCF11A20895FC01FB
:1001E000A485B585FD01E05CFF4F20813181329609
:1001F000808191812817390779F080819181A80F3A
:10020000B91F8C91208131812F5F3F4F2F7333278E
:100210003183208390E008958FEF9FEF0895DC01F4
:100220001C96ED91FC911D97DF01A05CBF4F2D91B5
:100230003C91119712968D919C911197281739072F
:1002400039F08D919C91E80FF91F808190E008951D
:100250008FEF9FEF0895FC0124853585F901E05C5F
:10026000FF4F80819181329620813181821B930BD7
:100270008F73992708950895CF92DF92EF92FF929E
:100280000F931F93CF93DF936C01EB017B01E40E7F
:10029000F51E00E010E0CE15DF0561F06991D60192
:1002A000ED91FC910190F081E02DC6010995080FB8
:1002B000191FF1CFC801DF91CF911F910F91FF90CE
:1002C000EF90DF90CF900895833081F028F4813053
:1002D00099F08230A1F008958630A9F08730B9F006
:1002E0008430D1F4809180008F7D03C080918000A4
:1002F0008F7780938000089584B58F7702C084B58E
:100300008F7D84BD08958091B0008F7703C0809168
:10031000B0008F7D8093B00008951F93CF93DF933B
:10032000282F30E0F901E255FF4F8491F901E6569C
:10033000FF4FD491F901EA57FF4FC491CC23C1F08C
:10034000162F81110E946401EC2FF0E0EE0FFF1FC9
:10035000E458FF4FA591B4919FB7F894111104C0D0
:100360008C91D095D82302C0EC91DE2BDC939FBFFB
:10037000DF91CF911F910895CF93DF9390E0FC011F
:10038000E656FF4F2491FC01EA57FF4F84918823E2
:1003900061F190E0880F991FFC01EE58FF4FC59165
:1003A000D491FC01E458FF4FA591B491611109C0AB
:1003B0009FB7F8948881209582238883EC912E231F
:1003C0000BC0623061F49FB7F8948881322F30956A
:1003D00083238883EC912E2B2C939FBF06C08FB76D
:1003E000F894E8812E2B28838FBFDF91CF91089559
:1003F0003FB7F8948091280290912902A0912A0297
:10040000B0912B0226B5A89B05C02F3F19F001968D
:10041000A11DB11D3FBFBA2FA92F982F8827820F8A
:10042000911DA11DB11DBC01CD0142E0660F771FDA
:10043000881F991F4A95D1F708950F931F93FC01C8
:100440008FB7F894409124025091250260912602C2
:10045000709127028FBF848595850197C9F400812B
:1004600011812281338184819581A681B781840F96
:10047000951FA61FB71F401751076207730720F08B
:10048000801B910BA20BB30B84839583A683B78348
:10049000408351836283738380859185A285B38570
:1004A0000097A105B10589F0448155816681778166
:1004B00084179507A607B70750F481E090E0978767
:1004C00086871482158216821782158614861F91DC
:1004D0000F910895CF93DF93EC010E941D021C82BF
:1004E0001D821E821F821F861E86DF91CF91089576
:1004F000E6EDF2E010A211A280899189A289B38968
:1005000080879187A287B38781E090E09587848771
:10051000CF010C946A02FC011482158216821782A4
:100520001586148610861186128613861082118213
:1005300012821382178616860895009769F0FC01CF
:1005400001900020E9F73197AF01481B590BBC011E
:1005500084EB92E00C943C0180E090E008950C94D0
:100560009D028F929F92AF92BF92EF92FF920F9354
:100570001F93CF93DF93CDB7DEB7A1970FB6F89453
:10058000DEBF0FBECDBF162F042F19A2423008F4D4
:100590000AE07E0121E2E20EF11C802E912CA12CBA
:1005A000B12C612FA50194010E94D50B029F101957
:1005B000112481E0E81AF1081A3014F4105D01C02A
:1005C000195CF7011083122F732FCA01232B242BE0
:1005D000252B39F7C7010E949D02A1960FB6F8940A
:1005E000DEBF0FBECDBFDF91CF911F910F91FF9066
:1005F000EF90BF90AF909F908F9008954F925F9231
:100600006F927F928F929F92AF92BF92CF92DF9222
:10061000EF92FF92CF93DF936B017C01B42E9B018D
:10062000AC010E94D00B882319F08CE291E027C026
:1006300026013701E89477F82FEF3FEF4FE75FE7A8
:10064000C301B2010E94D00B81110DC02FEF3FEF0B
:100650004FE75FE7C301B2010E94FF0918161CF4BF
:1006600080E391E00CC02FEF3FEF4FE75FE4C7015D
:10067000B6010E945E0B181694F484E391E0DF91BA
:10068000CF91FF90EF90DF90CF90BF90AF909F9071
:100690008F907F906F905F904F900C949D022FEF02
:1006A0003FEF4FE75FECC701B6010E94FF0987FDEE
:1006B000E4CF20E030E0A901C701B6010E94FF09A4
:1006C00087FF0BC06DE284EB92E00E94A200EC0178
:1006D000F7FAF094F7F8F09402C0C0E0D0E0A12C53
:1006E00060E070E080E09FE3BA1441F020E030E089
:1006F00040E251E40E94040AA394F6CFA7019601B8
:100700000E9493096B017C010E947D0A2B013C0130
:100710004AE00E94B102C80FD91FBB2009F450C0A3
:10072000C301B2010E94AC0A9B01AC01C701B60132
:100730000E9492092B013C0188E391E00E949D02F6
:10074000C80FD91FFB2C20E030E040E251E4C30188
:10075000B2010E94630B2B013C010E94760A4B01FF
:10076000770FAA08BB08B7FE15C06DE284EB92E0D4
:100770000E94A2006C0188279927DC018819990939
:10078000AA09BB094AE0BC01CD010E94B1028C0D4F
:100790009D1D05C04AE0C501B4010E94B102C80F09
:1007A000D91FC501B4010E94AE0A9B01AC01C3016F
:1007B000B2010E9492092B013C01FA94F110C3CFBF
:1007C000CE01DF91CF91FF90EF90DF90CF90BF905F
:1007D000AF909F908F907F906F905F904F90089513
:1007E00080E480937C0080917A00806480937A001A
:1007F00080917A0086FDFCCF60917800809179002D
:1008000070E0782B072E000C880B990B0E94AE0A23
:1008100020E030E040E851E40E94630B20E030E04B
:1008200040E85AE30E94630B60931E0270931F021C
:10083000809320029093210226E636E646E451E4B6
:100840000E94FF091816B4F081E0809322028AE327
:1008500091E00E94AF0260911E0270911F02809190
:1008600020029091210242E00E94FE028EE891E077
:100870000C94AF021092220208951F920F920FB6AD
:100880000F9211242F933F938F939F93EF93FF9396
:1008900020916C0230916D0280916E0290916F02F6
:1008A0002817390731F48091C1008F7D8093C100F2
:1008B00014C0E0916E02F0916F02E45DFD4F208163
:1008C00080916E0290916F0201968F739927909399
:1008D0006F0280936E022093C600FF91EF919F916B
:1008E0008F913F912F910F900FBE0F901F901895F1
:1008F0001F920F920FB60F9211242F934F935F9375
:100900008F939F93EF93FF938091C00082FD1CC053
:100910002091C6008091B0029091B1024091B20244
:100920005091B30201968F7399274817590771F0B8
:10093000E091B002F091B102E059FD4F2083909315
:10094000B1028093B00202C08091C600FF91EF9186
:100950009F918F915F914F912F910F900FBE0F90AC
:100960001F9018951F920F920FB60F9211242F937C
:100970003F938F939F93AF93BF9380912402909165
:100980002502A0912602B09127023091230223E094
:10099000230F2D3720F40196A11DB11D05C026E8B7
:1009A000230F0296A11DB11D2093230280932402E0
:1009B00090932502A0932602B093270280912802EB
:1009C00090912902A0912A02B0912B020196A11DBB
:1009D000B11D8093280290932902A0932A02B0931C
:1009E0002B02BF91AF919F918F913F912F910F90CB
:1009F0000FBE0F901F9018958F929F92AF92BF924B
:100A0000DF92EF92FF920F931F93CF93DF93CDB7B7
:100A1000DEB760970FB6F894DEBF0FBECDBFE4EB34
:100A2000F2E01382128288EE93E0A0E0B0E08483CB
:100A30009583A683B78380E291E09183808380E7EA
:100A400092E0958784878CE292E09787868785EC91
:100A500090E0918B808B84EC90E0938B828B80EC88
:100A600090E0958B848B81EC90E0978B868B82EC69
:100A700090E0918F808F86EC90E0938F828F84E05E
:100A8000848F83E0858F87E0868F85E0878FDD24E4
:100A9000D394D0A28AE593E00E948B028AE493E08B
:100AA0000E948B028CEF92E00E948B028CE093E01C
:100AB0000E948B020CEF12E0F80113A212A280E355
:100AC00095E7A0E0B0E080879187A287B387EE2406
:100AD000E394F12CF586E48680E99FE5A0E0B0E0A0
:100AE000808F918FA28FB38FF58EE48E81E293E099
:100AF0000E948B028090040190900501A090060155
:100B0000B090070180E1E8E0F1E0DE01119601908C
:100B10000D928A95E1F74091180150911901609169
:100B20001A0170911B01F80115AA8092420390925C
:100B30004303A0924403B092450380E1FE01319645
:100B4000A2E3B3E001900D928A95E1F7409346034A
:100B50005093470360934803709349038EE190E0FC
:100B6000A0E0B0E0F80185A796A7A7A7B0ABF2AACE
:100B7000E1AA81E293E00E946A021092FB0286EDF4
:100B800092E00E948B02E6EDF2E0108A118A128A4E
:100B9000138A12A2D4A260960FB6F894DEBF0FBEDD
:100BA000CDBFDF91CF911F910F91FF90EF90DF901C
:100BB000BF90AF909F908F900C947802789484B5FA
:100BC000826084BD84B5816084BD85B5826085BD49
:100BD00085B5816085BD80916E00816080936E00D7
:100BE00010928100809181008260809381008091C9
:100BF000810081608093810080918000816080937A
:100C000080008091B10084608093B1008091B00039
:100C100081608093B00080917A00846080937A0034
:100C200080917A00826080937A0080917A0081605E
:100C300080937A0080917A00806880937A00109285
:100C4000C100E091C802F091C90281E090E09C01EE
:100C50000090D40202C0220F331F0A94E2F72083CF
:100C6000E091C402F091C5021082E091C602F091B9
:100C7000C7022FEC20831092D502E091CA02F091B6
:100C8000CB0240819C010090D00202C0220F331F92
:100C90000A94E2F7242B2083E091CA02F091CB0260
:100CA00040819C010090D10202C0220F331F0A94A0
:100CB000E2F7242B2083E091CA02F091CB0240811D
:100CC0009C010090D20202C0220F331F0A94E2F767
:100CD000242B2083E091CA02F091CB022081009066
:100CE000D30202C0880F991F0A94E2F780958223ED
:100CF000808386E491E00E94AF0261E08DE00E9473
:100D0000BC01C0E0D1E060E089910E94BC0181E0BB
:100D1000C430D807C1F761E08CE00E94BC0161E0FB
:100D200087E00E94BC0184EF91E0A0E0B0E08093F6
:100D3000620390936303A0936403B093650381E01F
:100D400090E0909367038093660340E65AEE60E07C
:100D500070E0409352035093530360935403709395
:100D6000550390935703809356030E94F00388E540
:100D700091E00E94AF028CE591E00E94AF02609189
:100D80001E0270911F02809120029091210242E088
:100D90000E94FE028EE891E00E94AF0283E691E09D
:100DA0000E94AF0284EB92E00E94E4000E94F801EE
:100DB000EB0160E7C62E67E1D62EE12CF12C0E94F4
:100DC000F8016C1B7D0B683E7340C8F3F1E0CF1A4D
:100DD000D108E108F108C851DC4FC114D104E10485
:100DE000F10469F788EE93E0A0E0B0E08093E602BA
:100DF0009093E702A093E802B093E9020E94780280
:100E000080ED97E0A0E0B0E08093EA029093EB02DF
:100E1000A093EC02B093ED028091F802811103C01F
:100E200081E08093F8020E94780280EA9FE0A0E0CF
:100E3000B0E08093EE029093EF02A093F002B093A3
:100E4000F1028091F802823018F482E08093F80277
:100E50000E94780280E49FE1A0E0B0E08093F2027B
:100E60009093F302A093F402B093F5028091F802FC
:100E7000833018F483E08093F8020E947802109285
:100E8000FA0283E791E00E94AF0234EF432E55242B
:100E90005394612C712CC1E0D0E042E3842E912C5C
:100EA000A12CB12C52E0352E8091FB02882311F049
:100EB00061E001C060E08DE00E948D0180916803D7
:100EC0009091690381309105B1F4109269031092F9
:100ED000680390936703809366038091FB028111FE
:100EE00004C081E08093FB0202C01092FB028AE5FD
:100EF00093E00E946A028AE593E00E941D028091BD
:100F00005803909159038130910571F4109259035F
:100F10001092580390935703809356030E94F00356
:100F20008AE493E00E946A028AE493E00E941D0230
:100F300080912202813049F480926203909263038F
:100F4000A0926403B092650308C04092620350927D
:100F500063036092640370926503D0936703C09348
:100F6000660380912F03909130038130910509F041
:100F70002FC11092300310922F0390932E03809371
:100F80002D0381E293E00E946A0280913103803157
:100F900008F039C0F82E24E0D22ED80E809131030B
:100FA000FD1468F50F2D10E0EF2DE81BF0E0EA5B73
:100FB000FC4F208130E0F901E255FF4F8491F901A7
:100FC000E656FF4FE490F901EA57FF4FC490CC205A
:100FD00079F081110E946401EC2DF0E0EE0FFF1F0B
:100FE000E859FF4FA591B491EC91EE2281E009F40C
:100FF00080E0F801E450FD4F86ABF394CFCF8C5FD7
:10100000809331037BC010923103ECEFF2E030E0CB
:1010100020E096A982AD892B96AD892BDF01AE5BCE
:10102000BF4F9C91892B14969C91891331E08C932E
:101030002F5F3196243069F7332309F45FC0809124
:101040004403811116C080914203813059F480918C
:101050004303811109C089E791E00E94AF02222475
:10106000239414C0811111C080914303813099F3FE
:101070000CC0813051F480914203882341F38130C8
:1010800021F480914303882331F3212C02E413E0FF
:10109000C12CD12C7601C394F80181918F0181116B
:1010A0000DC080E991E00E94AF024AE0C701B6019D
:1010B0000E94B10287E991E00E94AF02FFEFCF1AD0
:1010C000DF0AEF0AFF0A85E0C816D104E104F10443
:1010D00019F7211013C080914203882309F47DC0C1
:1010E00080914303882309F478C0809144038823C6
:1010F00009F473C08FEE91E00E94AF028091420329
:10110000882349F080914303882329F081E090915E
:101110004403911101C080E021E0822780932003E5
:1011200090911F03913081F038F0923001F19330AB
:1011300069F520931E032CC0882319F020931F0308
:1011400027C030921F0324C080910A0390910B03A3
:1011500081309105E9F410920B0310920A039093E9
:10116000090380930803E3E0E0931F0311C080911B
:101170001A0390911B038130910551F410921B03C7
:1011800010921A03909319038093180310921F036F
:1011900080911F03813049F58CEF92E00E941D027F
:1011A00080911F03823031F58CE093E00E941D0294
:1011B0000E948C00882311F061E001C060E08CE0A7
:1011C0000E948D0180911F03811119C061E018C038
:1011D00081E293E00E941D0291CF0E948C0088233F
:1011E00009F48CCF87EA91E087CF8CEF92E00E94E0
:1011F0006A02D6CF8CE093E00E946A02D9CF60E009
:1012000087E00E948D018091F9021092F9028823F3
:10121000F9F08EED91E00E94AF026091F60270E06D
:1012200080E090E04AE00E94B10286E591E00E94F1
:10123000AF026091DA027091DB028091DC02909142
:10124000DD024AE00E94B1028EE891E00E94AF0206
:101250008091E4029091E50281309105A9F5109208
:10126000E5021092E4029093E3028093E2028091FF
:10127000F7029091F802981760F08F5F8093F70261
:101280008091F6028F5F8093F60286ED92E00E94D5
:101290006A0281E08093F902E091F70284E0E89F1E
:1012A000F0011124EA51FD4F80819181A281B38127
:1012B0008093DE029093DF02A093E002B093E102FC
:1012C000D093E302C093E2029091F7028091F8027A
:1012D000891700F58091FA028823E1F01092F60256
:1012E0001092F7028091E6029091E702A091E80245
:1012F000B091E9028093DE029093DF02A093E002B6
:10130000B093E102D093E302C093E20286ED92E053
:101310000E946A0286ED92E00E941D02C5CDF894FB
:101320000C94FD0B5058BB27AA270E94AA090C94C5
:10133000240B0E94160B38F00E941D0B20F039F48C
:101340009F3F19F426F40C94130B0EF4E095E7FB81
:101350000C940D0BE92F0E94350B58F3BA17620756
:1013600073078407950720F079F4A6F50C94570BC2
:101370000EF4E0950B2EBA2FA02D0B01B9019001B0
:101380000C01CA01A0011124FF27591B99F0593FF4
:1013900050F4503E68F11A16F040A22F232F342F3C
:1013A0004427585FF3CF469537952795A795F0408A
:1013B0005395C9F77EF41F16BA0B620B730B840B9F
:1013C000BAF09150A1F0FF0FBB1F661F771F881F57
:1013D000C2F70EC0BA0F621F731F841F48F48795AF
:1013E00077956795B795F7959E3F08F0B0CF9395A1
:1013F000880F08F09927EE0F9795879508950E941A
:10140000E90A08F481E008950E94180A0C94240B5C
:101410000E941D0B58F00E94160B40F029F45F3F0C
:1014200029F00C940D0B51110C94580B0C94130BC8
:101430000E94350B68F39923B1F3552391F3951B63
:10144000550BBB27AA2762177307840738F09F5FE5
:101450005F4F220F331F441FAA1FA9F335D00E2E52
:101460003AF0E0E832D091505040E695001CCAF7BF
:101470002BD0FE2F29D0660F771F881FBB1F261782
:1014800037074807AB07B0E809F0BB0B802DBF0159
:10149000FF2793585F4F3AF09E3F510578F00C9428
:1014A0000D0B0C94580B5F3FE4F3983ED4F38695F4
:1014B00077956795B795F7959F5FC9F7880F911D49
:1014C0009695879597F90895E1E0660F771F881F35
:1014D000BB1F621773078407BA0720F0621B730BE8
:1014E000840BBA0BEE1F88F7E09508950E947D0AE1
:1014F0006894B1110C94580B08950E943D0B88F02C
:101500009F5798F0B92F9927B751B0F0E1F0660FC7
:10151000771F881F991F1AF0BA95C9F714C0B13008
:1015200091F00E94570BB1E008950C94570B672F70
:10153000782F8827B85F39F0B93FCCF38695779537
:101540006795B395D9F73EF4909580957095619520
:101550007F4F8F4F9F4F0895E89409C097FB3EF44B
:1015600090958095709561957F4F8F4F9F4F9923F0
:10157000A9F0F92F96E9BB279395F695879577956E
:101580006795B795F111F8CFFAF4BB0F11F460FF2E
:101590001BC06F5F7F4F8F4F9F4F16C0882311F086
:1015A00096E911C0772321F09EE8872F762F05C09A
:1015B000662371F096E8862F70E060E02AF09A9535
:1015C000660F771F881FDAF7880F9695879597F92A
:1015D0000895990F0008550FAA0BE0E8FEEF1616C4
:1015E0001706E807F907C0F012161306E407F50717
:1015F00098F0621B730B840B950B39F40A2661F08B
:10160000232B242B252B21F408950A2609F4A1402D
:10161000A6958FEF811D811D089597F99F6780E83A
:1016200070E060E008959FEF80EC089500240A9434
:101630001616170618060906089500240A941216AD
:101640001306140605060895092E0394000C11F4E0
:10165000882352F0BB0F40F4BF2B11F460FF04C08D
:101660006F5F7F4F8F4F9F4F089557FD9058440FE6
:10167000551F59F05F3F71F04795880F97FB991FF1
:1016800061F09F3F79F087950895121613061406AE
:10169000551FF2CF4695F1DF08C01616170618063B
:1016A000991FF1CF86957105610508940895E89416
:1016B000BB2766277727CB0197F908950E94E90A8F
:1016C00008F48FEF08950E94760B0C94240B0E946F
:1016D000160B38F00E941D0B20F0952311F00C948E
:1016E0000D0B0C94130B11240C94580B0E94350B0A
:1016F00070F3959FC1F3950F50E0551F629FF00165
:10170000729FBB27F00DB11D639FAA27F00DB11D7D
:10171000AA1F649F6627B00DA11D661F829F222706
:10172000B00DA11D621F739FB00DA11D621F839F8D
:10173000A00D611D221F749F3327A00D611D231F63
:10174000849F600D211D822F762F6A2F11249F57B1
:1017500050409AF0F1F088234AF0EE0FFF1FBB1FB4
:10176000661F771F881F91505040A9F79E3F510573
:1017700080F00C940D0B0C94580B5F3FE4F3983EF3
:10178000D4F3869577956795B795F795E7959F5F1D
:10179000C1F7FE2B880F911D9695879597F90895AF
:1017A0000E94E90A880B990B0895A1E21A2EAA1B40
:1017B000BB1BFD010DC0AA1FBB1FEE1FFF1FA21701
:1017C000B307E407F50720F0A21BB30BE40BF50BFE
:1017D000661F771F881F991F1A9469F76095709587
:1017E000809590959B01AC01BD01CF010895EE0F4E
:0E17F000FF1F0590F491E02D0994F894FFCFAF
:1017FE00090A0B02010101010101010101010101AF
:10180E000101010101010101090A0B0200000000A2
:10181E00A2003C012B01EF000F01E4006E616E008F
:10182E00696E66006F7666002E0076426174204CFB
:10183E004F57213A2000496E697469616C697A6963
:10184E006E67202E2E2E20004F6B0A00764261749A
:10185E003A2000426F6F742044656C6179202E2E01
:10186E002E2000446F6E650A0041626E6F726D61CC
:10187E006C20706F77657220696E707574210A0026
:10188E00506861736520003A20646973636F6E6EF1
:10189E0065637465640A004E6F20706F7765722001
:1018AE0070726573656E7420617420746865206D46
:1018BE0061696E732C207374617274696E67206730
:1018CE00656E657261746F72202E2E2E0A0074651D
:1018DE0073744472756D206576656E743A2000508F
:1018EE006F7765722070726573656E742C207265E9
:1018FE00636F6E6E656374696E6720746F207468B3
:0E190E0065206D61696E73202E2E2E0A00007A
:00000001FF
