:100000000C94DF000C9407010C9407010C94070179
:100010000C9407010C9407010C9407010C94070140
:100020000C9407010C9407010C9407010C94070130
:100030000C9407010C9407010C9407010C94070120
:100040000C9426050C9407010C94EC040C94B10458
:100050000C9407010C9407010C9407010C94070100
:100060000C9407010C94070100407A10F35A00A089
:10007000724E18090010A5D4E80000E87648170071
:1000800000E40B54020000CA9A3B000000E1F505B1
:10009000000080969800000040420F000000A086FB
:1000A00001000000102700000000E803000000002D
:1000B0006400000000000A000000000001000000D1
:1000C00000002C76D888DC674F0823DFC1DFAE59EB
:1000D000E1B1B796E5E3E453C63AE651997696E87E
:1000E000E6C28426EB898C9B62ED407C6FFCEFBC02
:1000F0009C9F40F2BAA56FA5F490055A2AF75C932D
:100100006B6CF9676DC11BFCE0E40D47FEF520E662
:10011000B500D0ED902E0300943577050080841E45
:10012000080000204E0A000000C80C333333330FA0
:10013000986E12831141EF8D2114893BE65516CF3D
:10014000FEE6DB18D1844B381BF77C1D901DA4BB49
:10015000E424203284725E228100C9F124ECA1E5FE
:100160003D270000000023002600290000000000B9
:10017000240027002A0000000000250028002B0092
:10018000040404040404040402020202020203033D
:100190000303030301020408102040800102040845
:1001A00010200102040810200000000700020100D6
:1001B0000003040600000000000000007005112488
:1001C0001FBECFEFD8E0DEBFCDBF14E0A0E0B1E0AE
:1001D000E8EBFEE102C005900D92A033B107D9F71C
:1001E00025E0A0E3B4E001C01D92A73DB207E1F70E
:1001F00010E0CFEDD0E004C02197FE010E94540F23
:10020000CE3DD107C9F70E94F1060C94E00A0C9488
:10021000000080914005882349F0809141058823A2
:1002200029F081E090914205911101C080E008958C
:1002300080914305811105C00E94090191E0892741
:10024000089580E008950895CF92DF92EF92FF9293
:100250000F931F93CF93DF936C01EB017B01E40EAF
:10026000F51E00E010E0CE15DF0561F06991D601C2
:10027000ED91FC910190F081E02DC6010995080FE8
:10028000191FF1CFC801DF91CF911F910F91FF90FE
:10029000EF90DF90CF9008950F931F93CF93DF934C
:1002A000FC01A685B7858D01005C1F4FE8018881A0
:1002B000998101968F739927AD014E5B5F4FEA01DB
:1002C0002881398128173907D1F3E801288139813C
:1002D000A20FB31F6C93A685B785A05CBF4F119684
:1002E0009C938E93A689B7892C9181E090E0078C2E
:1002F00002C0880F991F0A94E2F7822B8C9381E049
:1003000081A30488F589E02D80818064808381E069
:1003100090E0DF91CF911F910F910895FC0181A191
:10032000882329F0A489B5898C9186FFFBCF11A27F
:100330000895FC01A485B585FD01E05CFF4F208197
:1003400031813296808191812817390779F0808137
:100350009181A80FB91F8C91208131812F5F3F4F70
:100360002F7333273183208390E008958FEF9FEF21
:100370000895DC011C96ED91FC911D97DF01A05CB6
:10038000BF4F2D913C91119712968D919C91119791
:100390002817390739F08D919C91E80FF91F80815A
:1003A00090E008958FEF9FEF0895FC012485358537
:1003B000F901E05CFF4F808191813296208131818B
:1003C000821B930B8F73992708958E3008F08E50FF
:1003D0008770806480937C0080917A008064809331
:1003E0007A0080917A0086FDFCCF80917800209180
:1003F000790090E0922B0895833081F028F48130C9
:1004000099F08230A1F008958630A9F08730B9F0D4
:100410008430D1F4809180008F7D03C08091800072
:100420008F7780938000089584B58F7702C084B55C
:100430008F7D84BD08958091B0008F7703C0809137
:10044000B0008F7D8093B00008951F93CF93DF930A
:10045000282F30E0F901E855FE4F8491F901EC5660
:10046000FE4FD491F901E058FE4FC491CC23C1F066
:10047000162F81110E94FC01EC2FF0E0EE0FFF1F00
:10048000EA58FE4FA591B4919FB7F894111104C09A
:100490008C91D095D82302C0EC91DE2BDC939FBFCA
:1004A000DF91CF911F910895CF93DF9390E0FC01EE
:1004B000EC56FE4F2491FC01E058FE4F84918823B6
:1004C00061F190E0880F991FFC01E459FE4FC5913E
:1004D000D491FC01EA58FE4FA591B491611109C075
:1004E0009FB7F8948881209582238883EC912E23EE
:1004F0000BC0623061F49FB7F8948881322F309539
:1005000083238883EC912E2B2C939FBF06C08FB73B
:10051000F894E8812E2B28838FBFDF91CF91089527
:10052000FF920F931F93CF93DF93F62EEC018C0174
:100530000C5F1F4F6F2D89910E945402C017D10785
:10054000C9F7DF91CF911F910F91FF9008953FB7A9
:10055000F8948091380490913904A0913A04B091B4
:100560003B0426B5A89B05C02F3F19F00196A11D9D
:10057000B11D3FBFBA2FA92F982F8827820F911D39
:10058000A11DB11DBC01CD0142E0660F771F881F80
:10059000991F4A95D1F708950F931F93CF93DF9337
:1005A000EC018B01F80181918F018823B1F081501A
:1005B00090E0FC01E95DFD4F6081FC01E85DFE4FCC
:1005C00080816883898384EC94E00E944C01698176
:1005D00084EC94E00E944C01E5CFDF91CF911F9114
:1005E0000F9108950F931F93FC018FB7F8944091DA
:1005F00034045091350460913604709137048FBFF4
:10060000848595850197C9F4008111812281338108
:1006100084819581A681B781840F951FA61FB71F7E
:10062000401751076207730720F0801B910BA20B44
:10063000B30B84839583A683B783408351836283FE
:10064000738380859185A285B3850097A105B10547
:1006500089F0448155816681778184179507A607C3
:10066000B70750F481E090E097878687148215825F
:1006700016821782158614861F910F910895CF93C5
:10068000DF93EC010E94F2021C821D821E821F82F7
:100690001F861E86DF91CF910895E7EEF4E010A249
:1006A00011A280899189A289B38980879187A287C5
:1006B000B38781E090E09587848713A2CF010C94E3
:1006C0003F038091F5049091F60481309105B9F5CE
:1006D0001092F6041092F5049093F4048093F304BE
:1006E0008091080590910905981760F08F5F8093BD
:1006F0000805809107058F5F8093070587EE94E0DA
:100700000E943F0381E080930A05E091080584E0A0
:10071000E89FF0011124E950FB4F80819181A28173
:10072000B3818093EF049093F004A093F104B0930D
:10073000F20481E090E09093F4048093F3049091AC
:10074000080580910905891728F480910B0581110E
:100750000E944D0387EE94E00C94F20240E65AEEBC
:1007600060E070E0FC0146875787608B718B21E069
:1007700030E0338B228B06960C943F03FC011482ED
:1007800015821682178215861486108611861286A7
:10079000138610821182128213821786168608959C
:1007A000EF92FF920F931F93CF93DF93CDB7DEB7F6
:1007B0002A970FB6F894DEBF0FBECDBF8C018EE036
:1007C0000E94E501BC01990F880B990B0E94320E23
:1007D00020E030E040E851E40E94E70E20E030ECF9
:1007E0004FE754E40E94BE0DF80162837383848353
:1007F00095837801F6E1EF0EF11C6EE373E0C7011B
:100800000E94CC02F80162817381848195818E01FE
:100810000F5F1F4F23E044E00E94C00AB801C701E8
:100820000E94CC0265E973E0C7010E94CC022A96BF
:100830000FB6F894DEBF0FBECDBFDF91CF911F91F1
:100840000F91FF90EF9008950F931F93CF93DF9335
:100850008C010A5F1F4FFC01248935892130310545
:10086000B1F4EC01158A148A338B228B0E94D003D9
:1008700026E636E646E451E46A817B818C819D81DF
:100880000E94B90D181654F4C8010E943F03C80114
:10089000DF91CF911F910F910C94F20265E473E008
:1008A000CE0146960E94CC02EFCFCF92DF92FF920C
:1008B0000F931F93CF93DF93CDB7DEB72A970FB671
:1008C000F894DEBF0FBECDBF89E4C82E85E0D82ED8
:1008D000F12C60E573E08DE995E00E94CC0282E0A6
:1008E000F81661F0E3E0FE1661F0F1E0FF1619F092
:1008F00069E573E008C063E673E005C06DE673E088
:1009000002C067E773E08DE995E00E94CC02F60132
:1009100061917191819191916F018E010F5F1F4FD4
:1009200023E044E00E94C00AB8018DE995E00E94EE
:10093000CC0261E873E08DE995E00E94CC02F3946B
:10094000F4E0FF12C6CF2A960FB6F894DEBF0FBEB2
:10095000CDBFDF91CF911F910F91FF90DF90CF908E
:1009600008951F920F920FB60F9211242F933F9369
:100970008F939F93EF93FF9320917C0430917D049C
:1009800080917E0490917F042817390731F480917B
:10099000C1008F7D8093C10014C0E0917E04F0916E
:1009A0007F04E45CFB4F208180917E0490917F0462
:1009B00001968F73992790937F0480937E042093F0
:1009C000C600FF91EF919F918F913F912F910F90D2
:1009D0000FBE0F901F9018951F920F920FB60F9297
:1009E00011242F934F935F938F939F93EF93FF93D4
:1009F0008091C00082FD1CC02091C6008091C0047F
:100A00009091C1044091C2045091C30401968F7328
:100A100099274817590771F0E091C004F091C1047B
:100A2000E058FB4F20839093C1048093C00402C020
:100A30008091C600FF91EF919F918F915F914F91AF
:100A40002F910F900FBE0F901F9018951F920F922D
:100A50000FB60F9211242F933F938F939F93AF93D1
:100A6000BF938091340490913504A0913604B091E5
:100A700037043091330423E0230F2D3720F40196FF
:100A8000A11DB11D05C026E8230F0296A11DB11DB1
:100A9000209333048093340490933504A093360458
:100AA000B09337048091380490913904A0913A04AE
:100AB000B0913B040196A11DB11D80933804909321
:100AC0003904A0933A04B0933B04BF91AF919F9136
:100AD0008F913F912F910F900FBE0F901F901895FF
:100AE0008F929F92AF92BF92CF92DF92EF92FF923E
:100AF0000F931F93CF93DF93CDB7DEB7C056D109C5
:100B00000FB6F894DEBF0FBECDBF1092C70410928F
:100B1000C60488EE93E0A0E0B0E08093C804909310
:100B2000C904A093CA04B093CB048AE293E09093E3
:100B3000C5048093C40480E894E09093D10480932A
:100B4000D0048CE394E09093D3048093D20485EC9A
:100B500090E09093D5048093D40484EC90E090933B
:100B6000D7048093D60480EC90E09093D9048093CE
:100B7000D80481EC90E09093DB048093DA0482EC5B
:100B800090E09093DD048093DC0486EC90E09093F9
:100B9000DF048093DE0484E08093E00483E08093AC
:100BA000E10487E08093E20485E08093E30411E0B0
:100BB0001093E40487EC95E00E94BE0387EB95E078
:100BC0000E94BE038AE393E09093A00580939F0563
:100BD0001092A1051092A2051092A3051092A405EF
:100BE00085EA95E00E94BE038FE995E00E94AE037E
:100BF00087EE94E00E94BE031092F7041092F8046E
:100C00001092F9041092FA041092090510930B0542
:100C10000E944D0388EB9BE0A0E0B0E08093F704D6
:100C20009093F804A093F904B093FA040E944D0342
:100C300080E797E1A0E0B0E08093FB049093FC0490
:100C4000A093FD04B093FE0480910905811102C0B8
:100C5000109309050E944D0388EB9BE0A0E0B0E0F3
:100C60008093FF0490930005A0930105B0930205C3
:100C700080910905823018F482E0809309050E9472
:100C80004D0310920B058FE095E00E94BE038FE1AB
:100C900095E00E94BE0380900C0190900D01A09001
:100CA0000E01B0900F0180E1E0E1F1E0DE01AF5A0A
:100CB000BF4F01900D928A95E1F780E18E010F5BA5
:100CC0001F4FF801482F11924A95E9F790E49E01D1
:100CD0002F5F3F4FF901492F11924A95E9F7C090D4
:100CE0002001D0902101E0902201F0902301409159
:100CF00024015091250160912601709127011092E5
:100D00002F058092400590924105A0924205B09235
:100D10004305FE01EF5AFF4FA0E3B5E0B82E019066
:100D20000D92BA94E1F7C0924405D0924505E09245
:100D30004605F09247054093590550935A05609334
:100D40005B0570935C05F801A9E4B5E001900D9294
:100D50008A95E1F7F901ADE5B5E001900D929A951C
:100D6000E1F78EE190E0A0E0B0E08093170590936A
:100D70001805A0931905B0931A0501E010E010932F
:100D80001C0500931B058FE095E00E943F0382E362
:100D900090E0A0E0B0E08093270590932805A09311
:100DA0002905B0932A0510932C0500932B058FE19C
:100DB00095E00E943F031092E604C05ADF4F0FB641
:100DC000F894DEBF0FBECDBFDF91CF911F910F9181
:100DD000FF90EF90DF90CF90BF90AF909F908F905B
:100DE0000895CF93DF93CDB7DEB72A970FB6F89467
:100DF000DEBF0FBECDBF789484B5826084BD84B55C
:100E0000816084BD85B5826085BD85B5816085BD05
:100E100080916E00816080936E00109281008091BD
:100E20008100826080938100809181008160809345
:100E30008100809180008160809380008091B1006A
:100E400084608093B1008091B00081608093B00095
:100E500080917A00846080937A0080917A00826029
:100E600080937A0080917A00816080937A008091EB
:100E70007A00806880937A001092C100E091D804D3
:100E8000F091D90401E010E0C8010090E40402C030
:100E9000880F991F0A94E2F78083E091D404F091BF
:100EA000D5041082E091D604F091D7048FEC8083B2
:100EB0001092E504E091DA04F091DB042081C8018E
:100EC0000090E00402C0880F991F0A94E2F7822B79
:100ED0008083E091DA04F091DB042081C801009066
:100EE000E10402C0880F991F0A94E2F7822B8083E5
:100EF000E091DA04F091DB042081C8010090E20463
:100F000002C0880F991F0A94E2F7822B8083E09138
:100F1000DA04F091DB04908198010090E30402C0B0
:100F2000220F331F0A94E2F7822F80958923808352
:100F300064E873E080E394E00E94CC0261E08DE01D
:100F40000E94540260E084E091E00E94900260E020
:100F500080E091E00E94900261E088E091E00E94D0
:100F6000900261E08CE00E94540261E087E00E9400
:100F7000540284EF91E0A0E0B0E08093CF0590931D
:100F8000D005A093D105B093D2051093D40500935A
:100F9000D30580E395E7A0E0B0E08093BF05909390
:100FA000C005A093C105B093C2051093C40500937A
:100FB000C3058FE995E00E94D00384EC94E00E9481
:100FC0008E010E94A7028B0170E7C72E77E1D72E12
:100FD000E12CF12C0E94A702601B710B683E73404C
:100FE000C8F331E0C31AD108E108F10808511C4FD9
:100FF000C114D104E104F10469F767E973E080E307
:1010000094E00E94CC026BE0262E61E0362E8091A7
:10101000E604882311F061E001C060E08DE00E94E9
:1010200025028091D5059091D60581309105B1F4C6
:101030001092D6051092D5059093D4058093D305D0
:101040008091E604811104C081E08093E60402C02F
:101050001092E60487EC95E00E943F0387EC95E050
:101060000E94F2028FE995E00E94240484EF91E04F
:10107000A0E0B0E08093CF059093D005A093D10578
:10108000B093D205A1E0B0E0B093D405A093D3050E
:101090008091C5059091C6058130910559F4109253
:1010A000C6051092C5059093C4058093C30581E0E1
:1010B000809332040E940901811104C080910705C8
:1010C000813029F487EB95E00E94F20206C010926D
:1010D000320487EB95E00E943F0380911D059091BB
:1010E0001E058130910509F020C210921E05109254
:1010F0001D0590931C0580931B058FE095E00E94D1
:101100003F0380912F05803108F063C0D82E54E052
:10111000C52EC80E80912F05DC1408F056C00D2D89
:1011200010E0ED2CE81A8E2D90E0FC01E951FB4F08
:101130007F01E35AFF4F208130E0F901E855FE4F6F
:101140008491F901EC56FE4FB490F901E058FE4F3E
:10115000A490AA2079F081110E94FC01EA2DF0E010
:10116000EE0FFF1FEE59FE4FA591B491EC91BE22F8
:1011700081E009F480E0F801E05DFA4F8083F70137
:10118000EE58FF4F80810E94E501000F111F000FF4
:10119000111F035A1A4FBC01990F880B990B0E941B
:1011A000320E2EEA37E04EE753E40E94E70E20E0CD
:1011B00030EC4FE754E40E94BE0DD8016D937D934F
:1011C0008D939C931397D394A5CF8C5F80932F0519
:1011D000C8C010922F0507EE14E0780124E0B22E6B
:1011E000A12CF701E75BFF4F908134968081892B1A
:1011F00034969081892B34969081892B34969081F6
:10120000891711F0AA24A39480836801B2E6CB0E5B
:10121000D11CF801EA58FF4FD801AA57BF4F2D91B2
:101220003D914D915C9160817181828193810E9499
:101230004D0DF801EA56FF4F2081318142815381E3
:101240000E944D0DF801EA55FF4F20813181428106
:1012500053810E944D0D20E030E040E85EE30E94A3
:10126000E70EF6016083718382839383BA94FFEF64
:10127000EF1AFF0A0C5F1F4FB110B3CFAA2009F479
:1012800070C080914205811118C080914005813065
:1012900069F48091410581110BC06DE973E08DE91E
:1012A00095E00E94CC02BB24B39414C0811111C0FC
:1012B00080914105813089F30CC0813051F48091D7
:1012C0004005882331F3813021F480914105882342
:1012D00021F3B12C80E4C82E85E0D82EEE24E394CF
:1012E000F12CD6018D916D0181111FC064EB73E06B
:1012F0008DE995E00E94CC02B7010F2C000C880B01
:10130000990B0E94320E8E010F5F1F4F20E041E0CB
:101310000E94C00AB8018DE995E00E94CC026BEBF7
:1013200073E08DE995E00E94CC02BFEFEB1AFB0A57
:10133000E5E0EE16F104A9F6B11013C00E94090110
:10134000811107C00E941801882349F06BEC73E0FB
:1013500002C062E074E08DE995E00E94CC020E9438
:10136000550480912D0590912E058130910509F04D
:10137000E1C01091480510922E0510922D05909312
:101380002C0580932B058FE195E00E943F03809010
:10139000490590904A05A0904B05B0904C054090AF
:1013A0004D0550904E0560904F057090500520E01F
:1013B00030E040E251E4C501B4010E94E70E20E0B4
:1013C00030E048EC52E40E94BE0D9B01AC01C50127
:1013D000B4010E944C0DA30192010E94E20EC09044
:1013E0005105D0905205E0905305F090540520E04F
:1013F00030E040E251E41816DCF4C701B6010E9467
:10140000E70E20E030E048EC52E40E94BE0D9B0164
:10141000AC01C701B6010E944C0D9B01AC01C50196
:10142000B4010E94B90D881F8827881F880F1AC031
:10143000C701B6010E94E70E20E030E048EC52E41C
:101440000E94BE0D9B01AC01C701B6010E944C0D6C
:101450009B01AC01C301B2010E94B90D881F88270E
:10146000881F8F5F8093480518130E9455040E94BF
:10147000180111E0082F01270E940901812780939C
:101480000C0590910705913059F018F09230B9F49D
:1014900012C00023A1F0882391F00E94610311C0C3
:1014A000002369F08823C9F310920A0587EE94E0BF
:1014B0000E943F0306C0002311F0882371F30E94AD
:1014C0004D030E941801882311F061E001C060E023
:1014D0008CE00E94250280910705833031F0811154
:1014E00006C080910C05811102C061E001C060E07E
:1014F00087E00E94250280910705813001F508E010
:1015000011E060E0F80181918F010E942502201610
:101510003106B9F780913204882311F061E001C0EF
:1015200060E086E00E94250272CD8FE095E00E9487
:10153000F20217CF8FE195E00E94F20298CFE0907F
:10154000480560E086E00E94250208E011E0F12CE9
:10155000FE100AC080913204882311F061E005C0BA
:1015600060E0F801808103C060E0D8018C910E94A6
:101570002502F3940F5F1F4FB3E0FB12E9CF47CD75
:10158000EF920F931F93CF93DF93E80147FD02C0C3
:1015900034E001C034E1042E000C550B57FF03C0AA
:1015A000519541955109E32E022F242FAE010E943F
:1015B000E30ACE01DF91CF911F910F91EF90089533
:1015C000F8940C945A0FA9E0B0E0E9EEFAE00C941C
:1015D0001B0D6A01122FB02E2BE3201720F0FF24E1
:1015E000F394F00E02C02CE3F22E0F2D27E0AE0193
:1015F0004F5F5F4F0E943D0CBC014981842F897071
:10160000813031F0E1FC06C0E0FE06C090E205C08A
:101610009DE203C09BE201C090E05E2D507143FF4C
:101620003CC0911102C083E001C084E0811718F42E
:10163000212F281B01C020E051110BC0F601822F81
:1016400030E2882319F031938150FBCFC20ED11CB8
:1016500020E0992329F0D6019C93F60131966F0181
:10166000C6010396E2FE0AC03EE4D6013C9341E483
:1016700011964C93119712963C9306C03EE6F601E4
:10168000308341E641833283FC01322F40E2332331
:1016900009F442C041933150FACF42FF44C0911146
:1016A00002C083E001C084E0811718F4212F281BB9
:1016B00001C020E051110BC0F601822F30E28823D7
:1016C00019F031938150FBCFC20ED11C20E0992339
:1016D00029F0D6019C93F60131966F01C60103965D
:1016E000E2FE0BC039E4D6013C933EE411963C93F4
:1016F000119736E412963C9307C039E6F601308321
:101700003EE6318336E63283FC01322F40E233235A
:1017100019F041933150FBCFFC01E20FF11D108213
:101720008EEF9FEFA6C021E030E0911102C020E0D3
:1017300030E0161617061CF4FB01319602C0E1E0FA
:10174000F0E02E0F3F1FBB2021F0EB2DF0E0319693
:1017500002C0E0E0F0E02E0F3F1FE12FF0E02E1777
:101760003F071CF4121B212F01C020E08E2D887131
:1017700059F4F601822F30E2882319F03193815019
:10178000FBCFC20ED11C20E0992329F0D6019C93F7
:10179000F60131966F0151110BC0F601822F90E3D3
:1017A000882319F091938150FBCFC20ED11C20E009
:1017B0000F2D060F9A81342F307144FF03C09133EF
:1017C00009F40150101624F4093018F008E001C0A3
:1017D00001E0AB0177FF02C040E050E0FB01E41BF9
:1017E000F50BA1E0B0E0AC0FBD1FEA0FFB1F8EE2CE
:1017F000A82E4B01801A91080B2D10E01195019530
:1018000011094F3FBFEF5B0721F4D601AC9211964F
:101810006D01641775072CF08416950614F4818108
:1018200001C080E3415051093196D60111967D01E6
:101830004017510724F0D6018C936701E2CF64175B
:10184000750739F4963320F4953319F4311101C03A
:1018500081E3F6018083F701822F90E2882319F05B
:1018600091938150FBCFF701E20FF11D108280E0D0
:1018700090E02996ECE00C94370D283008F027E032
:101880003327DA01990F311D87FD916000966105BC
:10189000710539F432602E5F3D9330E32A95E1F70C
:1018A00008959F3F30F080387105610509F03C5F75
:1018B0003C5F3D93913008F08068911DDF93CF939A
:1018C0001F930F93FF92EF92192F987F9695E92F10
:1018D00096959695E90FFF27EE53FF4F99273327EB
:1018E000EE24FF24A701E70105900894079428F44B
:1018F000360FE71EF81E491F511D660F771F881F00
:10190000991F0694A1F70590079428F4E70EF81E96
:10191000491F561FC11D770F881F991F661F069408
:10192000A1F70590079428F4F80E491F561FC71F0A
:10193000D11D880F991F661F771F0694A1F7059088
:10194000079420F4490F561FC71FD81F990F661F11
:10195000771F881F0694A9F784911095177041F09E
:10196000D695C79557954795F794E7941A95C1F77B
:10197000E8E6F0E0689415901591359165919591A0
:1019800005907FE27395E118F10A430B560BC90BE2
:10199000D009C0F7E10CF11E431F561FC91FD01D0F
:1019A0007EF4703311F48A95E6CFE894015030F05C
:1019B000080F0AF40027021708F4202F2395022F9E
:1019C0007A3328F079E37D932A95E9F710C07D9367
:1019D0002A9589F6069497956795379517951794E4
:1019E000E118F10A430B560BC90BD00998F0239567
:1019F0007E9173957A3308F070E37C932013B8F7E7
:101A00007E9170617D9330F0839571E37D9370E3F7
:101A10002A95E1F71124EF90FF900F911F91CF913C
:101A2000DF91992787FD909508952F923F924F92CD
:101A30005F926F927F928F929F92AF92BF92CF925E
:101A4000DF92EF92FF920F931F93CF93DF93CDB767
:101A5000DEB7CA1BDB0B0FB6F894DEBF0FBECDBFDF
:101A600009942A88398848885F846E847D848C84B0
:101A70009B84AA84B984C884DF80EE80FD800C81B9
:101A80001B81AA81B981CE0FD11D0FB6F894DEBF9C
:101A90000FBECDBFED0108955058BB27AA270E9465
:101AA000640D0C94A80E0E949A0E38F00E94A10EAC
:101AB00020F039F49F3F19F426F40C94970E0EF49D
:101AC000E095E7FB0C94910EE92F0E94B90E58F3B4
:101AD000BA17620773078407950720F079F4A6F513
:101AE0000C94DB0E0EF4E0950B2EBA2FA02D0B01FB
:101AF000B90190010C01CA01A0011124FF27591B53
:101B000099F0593F50F4503E68F11A16F040A22F58
:101B1000232F342F4427585FF3CF469537952795C9
:101B2000A795F0405395C9F77EF41F16BA0B620BC8
:101B3000730B840BBAF09150A1F0FF0FBB1F661F0F
:101B4000771F881FC2F70EC0BA0F621F731F841F52
:101B500048F4879577956795B795F7959E3F08F078
:101B6000B0CF9395880F08F09927EE0F979587953A
:101B700008950E946D0E08F481E008950E94D20D30
:101B80000C94A80E0E94A10E58F00E949A0E40F0EC
:101B900029F45F3F29F00C94910E51110C94DC0E46
:101BA0000C94970E0E94B90E68F39923B1F3552354
:101BB00091F3951B550BBB27AA2762177307840760
:101BC00038F09F5F5F4F220F331F441FAA1FA9F3F6
:101BD00035D00E2E3AF0E0E832D091505040E695E4
:101BE000001CCAF72BD0FE2F29D0660F771F881F45
:101BF000BB1F261737074807AB07B0E809F0BB0B38
:101C0000802DBF01FF2793585F4F3AF09E3F51054B
:101C100078F00C94910E0C94DC0E5F3FE4F3983E48
:101C2000D4F3869577956795B795F7959F5FC9F734
:101C3000880F911D9695879597F90895E1E0660FB5
:101C4000771F881FBB1F621773078407BA0720F02E
:101C5000621B730B840BBA0BEE1F88F7E095089597
:101C6000E89409C097FB3EF4909580957095619536
:101C70007F4F8F4F9F4F9923A9F0F92F96E9BB27EC
:101C80009395F695879577956795B795F111F8CF68
:101C9000FAF4BB0F11F460FF1BC06F5F7F4F8F4FD3
:101CA0009F4F16C0882311F096E911C0772321F0C9
:101CB0009EE8872F762F05C0662371F096E8862F61
:101CC00070E060E02AF09A95660F771F881FDAF7B8
:101CD000880F9695879597F90895990F0008550FE5
:101CE000AA0BE0E8FEEF16161706E807F907C0F0A2
:101CF00012161306E407F50798F0621B730B840BAA
:101D0000950B39F40A2661F0232B242B252B21F483
:101D100008950A2609F4A140A6958FEF811D811D23
:101D2000089597F99F6780E870E060E008959FEF5D
:101D300080EC089500240A94161617061806090662
:101D4000089500240A941216130614060506089531
:101D5000092E0394000C11F4882352F0BB0F40F4B9
:101D6000BF2B11F460FF04C06F5F7F4F8F4F9F4FF9
:101D7000089557FD9058440F551F59F05F3F71F07B
:101D80004795880F97FB991F61F09F3F79F08795E2
:101D90000895121613061406551FF2CF4695F1DF6B
:101DA00008C0161617061806991FF1CF86957105FB
:101DB000610508940895E894BB2766277727CB012F
:101DC00097F908950E946D0E08F48FEF08950E9410
:101DD000FA0E0C94A80E0E949A0E38F00E94A10EE2
:101DE00020F0952311F00C94910E0C94970E112471
:101DF0000C94DC0E0E94B90E70F3959FC1F3950F01
:101E000050E0551F629FF001729FBB27F00DB11D7E
:101E1000639FAA27F00DB11DAA1F649F6627B00D0E
:101E2000A11D661F829F2227B00DA11D621F739FF7
:101E3000B00DA11D621F839FA00D611D221F749F05
:101E40003327A00D611D231F849F600D211D822F4C
:101E5000762F6A2F11249F5750409AF0F1F0882373
:101E60004AF0EE0FFF1FBB1F661F771F881F9150A0
:101E70005040A9F79E3F510580F00C94910E0C94B0
:101E8000DC0E5F3FE4F3983ED4F386957795679533
:101E9000B795F795E7959F5FC1F7FE2B880F911DCA
:101EA0009695879597F90895EE0FFF1F0590F49189
:081EB000E02D0994F894FFCF26
:101EB8000F101112090A0B020304050601010101A2
:101EC80001010101010101010101010101010101FA
:101ED800090A0B020F101112A9A6A59A9996956ADC
:101EE8006966655A595655AAA9A6A59A9996956AF2
:101EF8006966655A595655AAA9A6A59A9996956AE2
:101F08006966655A595655AAA9A6A59A9996956AD1
:101F18006966655A595655AAA9A6A59A9996956AC1
:101F28006966655A595655AAA9A6A59A9996956AB1
:101F38006966655A595655AAA9A6A59A9996956AA1
:101F48006966655A595655AAA9A6A59A9996956A91
:101F58006966655A595655AAA9A6A59A9996956A81
:101F68006966655A595655AAA9A6A59A9996956A71
:101F78006966655A595655AAA9A6A59A9996956A61
:101F88006966655A595655AAA9A6A59A9996956A51
:101F98006966655A595655AAA9A6A59A9996956A41
:101FA8006966655A595655AAA9A6A59A9996956A31
:101FB8006966655A595655AAA9A6A59A9996956A21
:101FC8006966655A595655AAA9A6A59A9996956A11
:101FD8006966655A595655AAAAAAAAAAAAAAAAAA6D
:101FE800AAAAAAAAAAAAA9A9A9A9A9A9A9A9A9A953
:101FF800A9A9A9A9A9A9A6A6A6A6A6A6A6A6A6A667
:10200800A6A6A6A6A6A6A5A5A5A5A5A5A5A5A5A572
:10201800A5A5A5A5A5A59A9A9A9A9A9A9A9A9A9AD6
:102028009A9A9A9A9A9A9999999999999999999912
:102038009999999999999696969696969696969626
:102048009696969696969595959595959595959532
:102058009595959595956A6A6A6A6A6A6A6A6A6AD6
:102068006A6A6A6A6A6A69696969696969696969D2
:1020780069696969696966666666666666666666E6
:1020880066666666666665656565656565656565F2
:102098006565656565655A5A5A5A5A5A5A5A5A5A56
:1020A8005A5A5A5A5A5A5959595959595959595992
:1020B80059595959595956565656565656565656A6
:1020C80056565656565655555555555555555555B2
:1020D800555555555555000000004C012401D501B2
:1020E8009901B9018E0100000000AE032404764274
:1020F80061743A200076426174204C4F57210A00DF
:10210800566F6C7461676520007068617365205252
:102118003A2000706861736520533A200070686146
:10212800736520543A2000706861736520473A202F
:1021380000560A00496E697469616C697A696E674C
:10214800202E2E2E200A00446F6E650A0041626E12
:102158006F726D616C20706F77657220696E707533
:1021680074210A00506861736520003A206469731D
:10217800636F6E6E65637465640A004E6F20706FDE
:102188007765722070726573656E7420617420744F
:102198006865206D61696E732C207374617274694F
:1021A8006E672067656E657261746F72202E2E2EC1
:1021B8000A00506F7765722070726573656E742CB3
:1021C800207265636F6E6E656374696E6720746FE5
:1021D80020746865206D61696E73202E2E2E0A00AA
:00000001FF
