:100000000C9435000C945D000C945D000C945D0024
:100010000C945D000C945D000C945D000C945D00EC
:100020000C945D000C945D000C945D000C945D00DC
:100030000C945D000C945D000C945D000C945D00CC
:100040000C94A4030C945D000C946A030C942F038D
:100050000C945D000C945D000C945D000C945D00AC
:100060000C945D000C945D00EE0311241FBECFEFD5
:10007000D8E0DEBFCDBF13E0A0E0B1E0E4E5F1E100
:1000800002C005900D92A436B107D9F725E0A4E689
:10009000B3E001C01D92A230B207E1F710E0C5E362
:1000A000D0E004C02197FE010E94A208C433D1070A
:1000B000C9F70E9485050C943A060C9400000F9332
:1000C0001F93CF93DF93FC01A685B7858D01005C5C
:1000D0001F4FE8018881998101968F739927AD019F
:1000E0004E5B5F4FEA012881398128173907D1F328
:1000F000E80128813981A20FB31F6C93A685B785CB
:10010000A05CBF4F11969C938E93A689B7892C91C2
:1001100081E090E0078C02C0880F991F0A94E2F7F3
:10012000822B8C9381E081A30488F589E02D808166
:100130008064808381E090E0DF91CF911F910F91E7
:100140000895FC0181A1882329F0A489B5898C91A7
:1001500086FFFBCF11A20895FC01A485B585FD01A2
:10016000E05CFF4F20813181329680819181281798
:10017000390779F080819181A80FB91F8C91208176
:1001800031812F5F3F4F2F7333273183208390E0DE
:1001900008958FEF9FEF0895DC011C96ED91FC917F
:1001A0001D97DF01A05CBF4F2D913C9111971296D6
:1001B0008D919C9111972817390739F08D919C9159
:1001C000E80FF91F808190E008958FEF9FEF089569
:1001D000FC0124853585F901E05CFF4F8081918128
:1001E000329620813181821B930B8F73992708955A
:1001F0000895CF92DF92EF92FF920F931F93CF93C8
:10020000DF936C01EB017B01E40EF51E00E010E0D2
:10021000CE15DF0561F06991D601ED91FC91019059
:10022000F081E02DC6010995080F191FF1CFC80113
:10023000DF91CF911F910F91FF90EF90DF90CF90C2
:1002400008950F931F93FC018FB7F89440916903B1
:1002500050916A0360916B0370916C038FBF84852A
:1002600095850197C9F400811181228133818481B0
:100270009581A681B781840F951FA61FB71F4017D0
:1002800051076207730720F0801B910BA20BB30B81
:1002900084839583A683B78340835183628373836A
:1002A00080859185A285B3850097A105B10589F068
:1002B000448155816681778184179507A607B70722
:1002C00050F481E090E09787868714821582168229
:1002D0001782158614861F910F910895CF93DF938F
:1002E000EC010E9421011C821D821E821F821F863A
:1002F0001E86DF91CF910895E8E1F4E010A211A2EB
:1003000080899189A289B38980879187A287B387E1
:1003100081E090E09587848713A2CF010C946E0151
:1003200040E65AEE60E070E0FC0146875787608B3C
:10033000718B21E030E0338B228B06960C946E019A
:10034000FC01148215821682178215861486108687
:1003500011861286138610821182128213821786EA
:1003600016860895009769F0FC0101900020E9F7D6
:100370003197AF01481B590BBC0185EF93E00C94FA
:10038000F90080E090E008958F929F92AF92BF9223
:10039000EF92FF920F931F93CF93DF93CDB7DEB70A
:1003A000A1970FB6F894DEBF0FBECDBF162F042F56
:1003B00019A2423008F40AE07E0121E2E20EF11CAB
:1003C000802E912CA12CB12C612FA50194010E94AB
:1003D0008008029F1019112481E0E81AF1081A30F0
:1003E00014F4105D01C0195CF7011083122F732FF4
:1003F000CA01232B242B252B39F7C7010E94B201F8
:10040000A1960FB6F894DEBF0FBECDBFDF91CF919E
:100410001F910F91FF90EF90BF90AF909F908F90A2
:1004200008954F925F926F927F92BF92CF92DF9228
:10043000EF92FF920F931F93CF93DF93EC018C0108
:100440000A5F1F4F8C899D898130910509F0F2C0A8
:100450001D8A1C8A9B8B8A8B80E480937C00809110
:100460007A00806480937A0080917A0086FDFCCFC8
:10047000609178008091790070E0782B072E000C55
:10048000880B990B0E94590720E030E040E851E4C6
:100490000E940E0820E030EC4FE754E40E94AF06C3
:1004A0006A837B838C839D8382E393E00E94B20105
:1004B000CA80DB80EC80FD80A7019601C701B601F0
:1004C0000E947B08882319F089E393E01AC0260173
:1004D0003701E89477F82FEF3FEF4FE75FE7C3016D
:1004E000B2010E947B0881110FC02FEF3FEF4FE751
:1004F0005FE7C301B2010E94AA0618162CF48DE32F
:1005000093E00E94B20183C02FEF3FEF4FE75FE41B
:10051000C701B6010E94090818161CF481E493E093
:10052000F0CF2FEF3FEF4FE75FECC701B6010E941E
:10053000AA0687FDF3CF20E030E0A901C701B6018C
:100540000E94AA0687FF09C06DE285EF93E00E9432
:100550005F00F7FAF094F7F8F0942AE037ED43EAF9
:100560005BE3C701B6010E943E066B017C010E945D
:1005700028072B013C010E9457079B01AC01C701D2
:10058000B6010E943D066B017C014AE0C301B20145
:100590000E94C40185E493E00E94B20183E0B82E7A
:1005A000BA94BB20A1F120E030E040E251E4C70161
:1005B000B6010E940E082B013C010E9421076B012D
:1005C000770FEE08FF08F7FE10C06DE285EF93E0AD
:1005D0000E945F0088279927DC018C199D09AE09CC
:1005E000BF094AE0BC01CD0103C04AE0C701B60122
:1005F0000E94C401C701B6010E9459079B01AC01CA
:10060000C301B2010E943D066B017C01C9CF80E5A8
:1006100093E00E94B20126E636E646E451E46A81A0
:100620007B818C819D810E94AA0618169CF4C801CA
:100630000E946E01C801DF91CF911F910F91FF9031
:10064000EF90DF90CF90BF907F906F905F904F9032
:100650000C94210187E493E00E94B201E8CF1F923D
:100660000F920FB60F9211242F933F938F939F9366
:10067000EF93FF932091AD033091AE038091AF03D0
:100680009091B0032817390731F48091C1008F7D14
:100690008093C10014C0E091AF03F091B003E3591F
:1006A000FC4F20818091AF039091B00301968F732E
:1006B00099279093B0038093AF032093C600FF91D6
:1006C000EF919F918F913F912F910F900FBE0F90BF
:1006D0001F9018951F920F920FB60F9211242F930F
:1006E0004F935F938F939F93EF93FF938091C000FD
:1006F00082FD1CC02091C6008091F1039091F2030D
:100700004091F3035091F40301968F739927481792
:10071000590771F0E091F103F091F203EF54FC4FAF
:1007200020839093F2038093F10302C08091C6006E
:10073000FF91EF919F918F915F914F912F910F902A
:100740000FBE0F901F9018951F920F920FB60F9229
:1007500011242F933F938F939F93AF93BF938091D7
:10076000690390916A03A0916B03B0916C0330917F
:10077000680323E0230F2D3720F40196A11DB11D3E
:1007800005C026E8230F0296A11DB11D2093680322
:100790008093690390936A03A0936B03B0936C03F7
:1007A0008091640390916503A0916603B091670303
:1007B0000196A11DB11D8093640390936503A093DE
:1007C0006603B0936703BF91AF919F918F913F9163
:1007D0002F910F900FBE0F901F9018958F929F92A0
:1007E000AF92BF92CF92DF92EF92FF920F931F933F
:1007F000CF93DF93CDB7DEB7C056D1090FB6F894CB
:10080000DEBF0FBECDBF1092F8031092F70388EE43
:1008100093E0A0E0B0E08093F9039093FA03A093F3
:10082000FB03B093FC038EE193E09093F603809377
:10083000F50381EB93E090930204809301048DE62D
:1008400093E0909304048093030485EC90E09093EC
:1008500006048093050484EC90E090930804809350
:10086000070480EC90E090930A048093090481ECE3
:1008700090E090930C0480930B0482EC90E09093B2
:100880000E0480930D0486EC90E090931004809306
:100890000F0484E08093110483E08093120487E0C6
:1008A0008093130485E08093140411E010931504E1
:1008B00082EF94E00E94A00182EE94E00E94A001E9
:1008C0008EE293E09093CD048093CC041092CE04FA
:1008D0001092CF041092D0041092D10482ED94E0D3
:1008E0000E94A0018CEC94E00E94900188E194E0C9
:1008F0000E94A001109228041092290410922A0448
:1009000010922B0410923A0410933C041092380475
:1009100010923904109220041092210410922204A3
:100920001092230481E090E09093250480932404A6
:1009300010923B0488E194E00E946E0188EB9BE0FA
:10094000A0E0B0E08093280490932904A0932A04A7
:10095000B0932B040E947C0180E797E1A0E0B0E017
:1009600080932C0490932D04A0932E04B0932F0415
:1009700080913A04811102C010933A040E947C01D4
:1009800088EB9BE0A0E0B0E08093300490933104CA
:10099000A0933204B093330480913A04823018F467
:1009A00082E080933A040E947C0110923C048EE322
:1009B00094E00E94A0018EE494E00E94A001809047
:1009C000000190900101A0900201B090030180E12C
:1009D000E4E0F1E0DE01AF5ABF4F01900D928A953D
:1009E000E1F780E18E010F5B1F4FF801482F119254
:1009F0004A95E9F790E49E012F5F3F4FF901492F97
:100A000011924A95E9F7C0901401D0901501E09039
:100A10001601F09017014091180150911901609151
:100A20001A0170911B0110925E0480926F049092E3
:100A30007004A0927104B0927204FE01EF5AFF4F4D
:100A4000AFE5B4E0B82E01900D92BA94E1F7C092F0
:100A50007304D0927404E0927504F092760440938B
:100A600088045093890460938A0470938B04F8017E
:100A7000A8E7B4E001900D928A95E1F7F901ACE89E
:100A8000B4E001900D929A95E1F78EE190E0A0E03C
:100A9000B0E08093460490934704A0934804B09339
:100AA000490401E010E010934B0400934A048EE3E4
:100AB00094E00E946E0182E390E0A0E0B0E08093B9
:100AC000560490935704A0935804B093590410937C
:100AD0005B0400935A048EE494E00E946E0110922D
:100AE0001704C05ADF4F0FB6F894DEBF0FBECDBF5C
:100AF000DF91CF911F910F91FF90EF90DF90CF90FA
:100B0000BF90AF909F908F900895789484B5826045
:100B100084BD84B5816084BD85B5826085BD85B5A1
:100B2000816085BD80916E00816080936E0010921F
:100B3000810080918100826080938100809181009A
:100B4000816080938100809180008160809380002B
:100B50008091B10084608093B1008091B000816089
:100B60008093B00080917A00846080937A008091B5
:100B70007A00826080937A0080917A00816080930D
:100B80007A0080917A00806880937A001092C10088
:100B9000E0910904F0910A0481E090E09C0100904A
:100BA000150402C0220F331F0A94E2F72083E0915C
:100BB0000504F09106041082E0910704F091080406
:100BC0002FEC208310921604E0910B04F0910C049A
:100BD00040819C010090110402C0220F331F0A942F
:100BE000E2F7242B2083E0910B04F0910C04408168
:100BF0009C010090120402C0220F331F0A94E2F7F6
:100C0000242B2083E0910B04F0910C0440819C0183
:100C10000090130402C0220F331F0A94E2F7242B22
:100C20002083E0910B04F0910C04208100901404C7
:100C300002C0880F991F0A94E2F78095822380836F
:100C4000C2E5D3E089918823A1F0815090E0FC01B6
:100C5000E45EFE4F1081FC01E55EFD4F608185EF93
:100C600093E00E945F00612F85EF93E00E945F0098
:100C7000E9CFFFCFF8940C94A8085058BB27AA27B7
:100C80000E9455060C94CF070E94C10738F00E94BD
:100C9000C80720F039F49F3F19F426F40C94BE07DE
:100CA0000EF4E095E7FB0C94B807E92F0E94E007EB
:100CB00058F3BA17620773078407950720F079F491
:100CC000A6F50C9402080EF4E0950B2EBA2FA02D79
:100CD0000B01B90190010C01CA01A0011124FF27E9
:100CE000591B99F0593F50F4503E68F11A16F040E4
:100CF000A22F232F342F4427585FF3CF46953795E3
:100D00002795A795F0405395C9F77EF41F16BA0BA7
:100D1000620B730B840BBAF09150A1F0FF0FBB1F55
:100D2000661F771F881FC2F70EC0BA0F621F731F9E
:100D3000841F48F4879577956795B795F7959E3FFB
:100D400008F0B0CF9395880F08F09927EE0F97958C
:100D5000879508950E94940708F481E008950E9401
:100D6000C3060C94CF070E94C80758F00E94C10721
:100D700040F029F45F3F29F00C94B80751110C940E
:100D800003080C94BE070E94E00768F39923B1F3AF
:100D9000552391F3951B550BBB27AA2762177307A1
:100DA000840738F09F5F5F4F220F331F441FAA1F35
:100DB000A9F335D00E2E3AF0E0E832D091505040F1
:100DC000E695001CCAF72BD0FE2F29D0660F771F9F
:100DD000881FBB1F261737074807AB07B0E809F085
:100DE000BB0B802DBF01FF2793585F4F3AF09E3F0A
:100DF000510578F00C94B8070C9403085F3FE4F3B6
:100E0000983ED4F3869577956795B795F7959F5F4C
:100E1000C9F7880F911D9695879597F90895E1E098
:100E2000660F771F881FBB1F621773078407BA07F7
:100E300020F0621B730B840BBA0BEE1F88F7E09552
:100E400008950E9428076894B1110C94030808952E
:100E50000E94E80788F09F5798F0B92F9927B7515B
:100E6000B0F0E1F0660F771F881F991F1AF0BA954E
:100E7000C9F714C0B13091F00E940208B1E00895A2
:100E80000C940208672F782F8827B85F39F0B93F94
:100E9000CCF3869577956795B395D9F73EF4909501
:100EA0008095709561957F4F8F4F9F4F0895E8947F
:100EB00009C097FB3EF490958095709561957F4FA2
:100EC0008F4F9F4F9923A9F0F92F96E9BB27939550
:100ED000F695879577956795B795F111F8CFFAF460
:100EE000BB0F11F460FF1BC06F5F7F4F8F4F9F4F91
:100EF00016C0882311F096E911C0772321F09EE8EF
:100F0000872F762F05C0662371F096E8862F70E054
:100F100060E02AF09A95660F771F881FDAF7880F2E
:100F20009695879597F90895990F0008550FAA0B84
:100F3000E0E8FEEF16161706E807F907C0F01216EC
:100F40001306E407F50798F0621B730B840B950BEF
:100F500039F40A2661F0232B242B252B21F4089544
:100F60000A2609F4A140A6958FEF811D811D0895E1
:100F700097F99F6780E870E060E008959FEF80EC4C
:100F8000089500240A9416161706180609060895EF
:100F900000240A9412161306140605060895092E55
:100FA0000394000C11F4882352F0BB0F40F4BF2BC4
:100FB00011F460FF04C06F5F7F4F8F4F9F4F089504
:100FC00057FD9058440F551F59F05F3F71F04795FA
:100FD000880F97FB991F61F09F3F79F087950895DF
:100FE000121613061406551FF2CF4695F1DF08C0FE
:100FF000161617061806991FF1CF8695710561051B
:1010000008940895E894BB2766277727CB0197F9C2
:1010100008950E94940708F48FEF08950E94210814
:101020000C94CF070E94C10738F00E94C80720F037
:10103000952311F00C94B8070C94BE0711240C945E
:1010400003080E94E00770F3959FC1F3950F50E0ED
:10105000551F629FF001729FBB27F00DB11D639F6A
:10106000AA27F00DB11DAA1F649F6627B00DA11D10
:10107000661F829F2227B00DA11D621F739FB00DB6
:10108000A11D621F839FA00D611D221F749F332726
:10109000A00D611D231F849F600D211D822F762FBF
:1010A0006A2F11249F5750409AF0F1F088234AF09C
:1010B000EE0FFF1FBB1F661F771F881F9150504008
:1010C000A9F79E3F510580F00C94B8070C940308D3
:1010D0005F3FE4F3983ED4F3869577956795B7958F
:1010E000F795E7959F5FC1F7FE2B880F911D9695A9
:1010F000879597F908950E949407880B990B089596
:10110000A1E21A2EAA1BBB1BFD010DC0AA1FBB1F0B
:10111000EE1FFF1FA217B307E407F50720F0A21B7D
:10112000B30BE40BF50B661F771F881F991F1A94EA
:1011300069F760957095809590959B01AC01BD0114
:10114000CF010895EE0FFF1F0590F491E02D099453
:04115000F894FFCF41
:10115400010101010101010101010101010101017B
:1011640001010101090A0B020F101112A9A6A59A87
:101174009996956A6966655A595655AAA9A6A59A73
:101184009996956A6966655A595655AAA9A6A59A63
:101194009996956A6966655A595655AAA9A6A59A53
:1011A4009996956A6966655A595655AAA9A6A59A43
:1011B4009996956A6966655A595655AAA9A6A59A33
:1011C4009996956A6966655A595655AAA9A6A59A23
:1011D4009996956A6966655A595655AAA9A6A59A13
:1011E4009996956A6966655A595655AAA9A6A59A03
:1011F4009996956A6966655A595655AAA9A6A59AF3
:101204009996956A6966655A595655AAA9A6A59AE2
:101214009996956A6966655A595655AAA9A6A59AD2
:101224009996956A6966655A595655AAA9A6A59AC2
:101234009996956A6966655A595655AAA9A6A59AB2
:101244009996956A6966655A595655AAA9A6A59AA2
:101254009996956A6966655A595655AAA9A6A59A92
:101264009996956A6966655A595655AAAAAAAAAA68
:10127400AAAAAAAAAAAAAAAAAAAAA9A9A9A9A9A9D0
:10128400A9A9A9A9A9A9A9A9A9A9A6A6A6A6A6A6DC
:10129400A6A6A6A6A6A6A6A6A6A6A5A5A5A5A5A5F0
:1012A400A5A5A5A5A5A5A5A5A5A59A9A9A9A9A9A2C
:1012B4009A9A9A9A9A9A9A9A9A9A99999999999990
:1012C400999999999999999999999696969696969C
:1012D40096969696969696969696959595959595B0
:1012E400959595959595959595956A6A6A6A6A6AAC
:1012F4006A6A6A6A6A6A6A6A6A6A69696969696950
:10130400696969696969696969696666666666665B
:10131400666666666666666666666565656565656F
:10132400656565656565656565655A5A5A5A5A5AAB
:101334005A5A5A5A5A5A5A5A5A5A5959595959590F
:10134400595959595959595959595656565656561B
:10135400565656565656565656565555555555552F
:1013640055555555555555555555000000005F00C8
:10137400F900E800AC00CC00A100000000009001DE
:101384001102764261743A20006E616E00696E66E5
:10139400006F7666002E0076426174204C4F572110
:1013A4000A004D616E6368657374657220546573D9
:0413B400740A0000B7
:00000001FF
