:100000000C9462000C948A000C948A000C948A0070
:100010000C948A000C948A000C948A000C948A0038
:100020000C948A000C948A000C948A000C948A0028
:100030000C948A000C948A000C948A000C948A0018
:100040000C94CA000C948A000C944C040C94110477
:100050000C948A000C948A000C948A000C948A00F8
:100060000C948A000C948A000000000023002600F3
:10007000290000000000240027002A0000000000E2
:10008000250028002B0004040404040404040202D4
:100090000202020203030303030301020408102007
:1000A0004080010204081020010204081020000012
:1000B0000007000201000003040600000000000029
:1000C0000000720911241FBECFEFD8E0DEBFCDBF04
:1000D00012E0A0E0B1E0E2EAFAE102C005900D9280
:1000E000AC34B107D9F723E0ACE4B2E001C01D9213
:1000F000AA3EB207E1F710E0C2E6D0E004C02197C3
:10010000FE010E94490DC136D107C9F70E946D0555
:100110000C94E10A0C9400008EE00E948604BC015D
:10012000990F880B990B0E94000C20E030E040E80A
:1001300051E40E94B50C20E030EC4FE754E40E94FB
:10014000560B60934C0270934D0280934E02909335
:100150004F0226E636E646E451E40E94510B18169B
:10016000B4F081E08093500288E391E00E946F0236
:1001700060914C0270914D0280914E0290914F021D
:1001800042E00E94D2028CE891E00C946F0210923F
:10019000500208951F920F920FB60F9211242F93C1
:1001A0003F938F939F93AF93BF938091530290910E
:1001B0005402A0915502B09156023091520223E0B0
:1001C000230F2D3720F40196A11DB11D05C026E88F
:1001D000230F0296A11DB11D20935202809353025A
:1001E00090935402A0935502B09356028091570207
:1001F00090915802A0915902B0915A020196A11D06
:10020000B11D8093570290935802A0935902B09366
:100210005A02BF91AF919F918F913F912F910F9073
:100220000FBE0F901F9018950F931F93FC018FB76F
:10023000F89440915302509154026091550270918C
:1002400056028FBF848595850197C9F4008111817D
:100250002281338184819581A681B781840F951F86
:10026000A61FB71F401751076207730720F0801BB6
:10027000910BA20BB30B84839583A683B783408332
:1002800051836283738380859185A285B3850097AE
:10029000A105B10589F04481558166817781841774
:1002A0009507A607B70750F481E090E09787868707
:1002B0001482158216821782158614861F910F915B
:1002C0000895CF93DF93EC010E9414011C821D82DC
:1002D0001E821F821F861E86DF91CF910895FC012A
:1002E000148215821682178215861486108611864E
:1002F0001286138610821182128213821786168646
:1003000008950F931F93CF93DF93FC01A685B785C4
:100310008D01005C1F4FE8018881998101968F73E0
:100320009927AD014E5B5F4FEA012881398128177B
:100330003907D1F3E80128813981A20FB31F6C93EB
:10034000A685B785A05CBF4F11969C938E93A68916
:10035000B7892C9181E090E0078C02C0880F991F2B
:100360000A94E2F7822B8C9381E081A30488F589BB
:10037000E02D80818064808381E090E0DF91CF91E7
:100380001F910F910895FC0181A1882329F0A48970
:10039000B5898C9186FFFBCF11A20895FC01A4853D
:1003A000B585FD01E05CFF4F20813181329680816F
:1003B00091812817390779F080819181A80FB91FA1
:1003C0008C91208131812F5F3F4F2F7333273183F1
:1003D000208390E008958FEF9FEF0895DC011C9635
:1003E000ED91FC911D97DF01A05CBF4F2D913C91D9
:1003F000119712968D919C9111972817390739F012
:100400008D919C91E80FF91F808190E008958FEF06
:100410009FEF0895FC0124853585F901E05CFF4FCD
:1004200080819181329620813181821B930B8F7361
:10043000992708950895CF92DF92EF92FF920F933C
:100440001F93CF93DF936C01EB017B01E40EF51E4C
:1004500000E010E0CE15DF0561F06991D601ED9165
:10046000FC910190F081E02DC6010995080F191F3C
:10047000F1CFC801DF91CF911F910F91FF90EF90C5
:10048000DF90CF900895009769F0FC010190002063
:10049000E9F73197AF01481B590BBC018BE592E09E
:1004A0000C941B0280E090E008958091D50288238F
:1004B00049F08091D602882329F081E09091D702FB
:1004C000911101C080E008958091D802811105C08A
:1004D0000E94550291E08927089580E008950C94C8
:1004E0004302EEE7F2E010A211A280899189A2896D
:1004F000B38980879187A287B38781E090E0958751
:10050000848713A2CF010C9461018F929F92AF92C6
:10051000BF92EF92FF920F931F93CF93DF93CDB7CC
:10052000DEB7A1970FB6F894DEBF0FBECDBF162F72
:10053000042F19A2423008F40AE07E0121E2E20E03
:10054000F11C802E912CA12CB12C612FA5019401BE
:100550000E94270D029F1019112481E0E81AF1086A
:100560001A3014F4105D01C0195CF7011083122FCA
:10057000732FCA01232B242B252B39F7C7010E9487
:100580004302A1960FB6F894DEBF0FBECDBFDF9138
:10059000CF911F910F91FF90EF90BF90AF909F90E0
:1005A0008F9008954F925F926F927F928F929F9259
:1005B000AF92BF92CF92DF92EF92FF92CF93DF93F1
:1005C0006B017C01B42E9B01AC010E94220D88239B
:1005D00019F08EE392E027C026013701E89477F8FE
:1005E0002FEF3FEF4FE75FE7C301B2010E94220DFB
:1005F00081110DC02FEF3FEF4FE75FE7C301B2015D
:100600000E94510B18161CF482E492E00CC02FEFEC
:100610003FEF4FE75FE4C701B6010E94B00C181628
:1006200094F486E492E0DF91CF91FF90EF90DF9019
:10063000CF90BF90AF909F908F907F906F905F9082
:100640004F900C9443022FEF3FEF4FE75FECC70151
:10065000B6010E94510B87FDE4CF20E030E0A901F4
:10066000C701B6010E94510B87FF0BC06DE28BE5FD
:1006700092E00E948101EC01F7FAF094F7F8F0940F
:1006800002C0C0E0D0E0A12C60E070E080E09FE319
:10069000BA1441F020E030E040E251E40E94560BF1
:1006A000A394F6CFA70196010E94E50A6B017C0195
:1006B0000E94CF0B2B013C014AE00E948502C80F2B
:1006C000D91FBB2009F450C0C301B2010E94FE0B28
:1006D0009B01AC01C701B6010E94E40A2B013C0159
:1006E0008AE492E00E944302C80FD91FFB2C20E04D
:1006F00030E040E251E4C301B2010E94B50C2B018D
:100700003C010E94C80B4B01770FAA08BB08B7FE3B
:1007100015C06DE28BE592E00E9481016C01882793
:100720009927DC0188199909AA09BB094AE0BC018B
:10073000CD010E9485028C0D9D1D05C04AE0C501BA
:10074000B4010E948502C80FD91FC501B4010E94DF
:10075000000C9B01AC01C301B2010E94E40A2B0111
:100760003C01FA94F110C3CFCE01DF91CF91FF90FD
:10077000EF90DF90CF90BF90AF909F908F907F9041
:100780006F905F904F90089580918C0290918D02B0
:1007900081309105B9F510928D0210928C029093E0
:1007A0008B0280938A0280919F029091A0029817F9
:1007B00060F08F5F80939F0280919E028F5F809395
:1007C0009E028EE792E00E94610181E08093A10287
:1007D000E0919F0284E0E89FF0011124E257FD4F71
:1007E00080819181A281B381809386029093870258
:1007F000A0938802B093890281E090E090938B02ED
:1008000080938A0290919F028091A002891728F418
:100810008091A20281110E9471028EE792E00C94F5
:1008200014011F920F920FB60F9211242F933F9332
:100830008F939F93EF93FF932091A2033091A30393
:100840008091A4039091A5032817390731F4809172
:10085000C1008F7D8093C10014C0E091A403F0918A
:10086000A503EE59FC4F20818091A4039091A5032C
:1008700001968F7399279093A5038093A4032093E7
:10088000C600FF91EF919F918F913F912F910F9013
:100890000FBE0F901F9018951F920F920FB60F92D8
:1008A00011242F934F935F938F939F93EF93FF9315
:1008B0008091C00082FD1CC02091C6008091E6039B
:1008C0009091E7034091E8035091E90301968F73FB
:1008D00099274817590771F0E091E603F091E70373
:1008E000EA55FC4F20839093E7038093E60302C010
:1008F0008091C600FF91EF919F918F915F914F91F1
:100900002F910F900FBE0F901F9018958E3008F00A
:100910008E508770806480937C0080917A00806420
:1009200080937A0080917A0086FDFCCF80917800D8
:100930002091790090E0922B0895833081F028F483
:10094000813099F08230A1F008958630A9F0873087
:10095000B9F08430D1F4809180008F7D03C0809104
:1009600080008F7780938000089584B58F7702C0D0
:1009700084B58F7D84BD08958091B0008F7703C0CA
:100980008091B0008F7D8093B00008951F93CF9326
:10099000DF93282F30E0F901E255FF4F8491F901F0
:1009A000E656FF4FD491F901EA57FF4FC491CC238B
:1009B000C1F0162F81110E949D04EC2FF0E0EE0F84
:1009C000FF1FE458FF4FA591B4919FB7F894111100
:1009D00004C08C91D095D82302C0EC91DE2BDC931F
:1009E0009FBFDF91CF911F910895CF93DF9390E048
:1009F000FC01E656FF4F2491FC01EA57FF4F84911A
:100A0000882361F190E0880F991FFC01EE58FF4F99
:100A1000C591D491FC01E458FF4FA591B4916111A7
:100A200009C09FB7F8948881209582238883EC9130
:100A30002E230BC0623061F49FB7F8948881322F67
:100A4000309583238883EC912E2B2C939FBF06C077
:100A50008FB7F894E8812E2B28838FBFDF91CF9139
:100A60000895FF920F931F93CF93DF93F62EEC011F
:100A70008C010C5F1F4F6F2D89910E94F504C017E8
:100A8000D107C9F7DF91CF911F910F91FF90089582
:100A90003FB7F8948091570290915802A091590263
:100AA000B0915A0226B5A89B05C02F3F19F00196B8
:100AB000A11DB11D3FBFBA2FA92F982F8827820FE4
:100AC000911DA11DB11DBC01CD0142E0660F771F34
:100AD000881F991F4A95D1F70895789484B582604C
:100AE00084BD84B5816084BD85B5826085BD85B5D2
:100AF000816085BD80916E00816080936E00109250
:100B000081008091810082608093810080918100CA
:100B1000816080938100809180008160809380005B
:100B20008091B10084608093B1008091B0008160B9
:100B30008093B00080917A00846080937A008091E5
:100B40007A00826080937A0080917A00816080933D
:100B50007A0080917A00806880937A001092C100B8
:100B6000E0916F02F0917002C1E0D0E0CE01009000
:100B70007B0202C0880F991F0A94E2F78083E091FC
:100B80006B02F0916C021082E0916D02F0916E02A6
:100B90008FEC808310927C02E0917102F0917202DE
:100BA0002081CE010090770202C0880F991F0A941D
:100BB000E2F7822B8083E0917102F0917202208132
:100BC000CE010090780202C0880F991F0A94E2F7C4
:100BD000822B8083E0917102F09172022081CE011C
:100BE0000090790202C0880F991F0A94E2F7822BC5
:100BF0008083E0917102F091720290819E010090D9
:100C00007A0202C0220F331F0A94E2F7822F8095E6
:100C10008923808384E491E00E946F0261E08DE08B
:100C20000E94F50460E084E091E00E94310560E0FC
:100C300080E091E00E94310561E088E091E00E944F
:100C4000310561E08CE00E94F50461E087E00E94DC
:100C5000F50484EF91E0A0E0B0E080935A03909314
:100C60005B03A0935C03B0935D03D0935F03C093D9
:100C70005E0380E69AEEA0E0B0E080934A03909392
:100C80004B03A0934C03B0934D03D0934F03C093F9
:100C90004E0380E395E7A0E0B0E080933A039093A1
:100CA0003B03A0933C03B0933D03D0933F03C09319
:100CB0003E030E948C0086E591E00E946F028AE567
:100CC00091E00E946F0260914C0270914D02809100
:100CD0004E0290914F0242E00E94D2028CE891E0D5
:100CE0000E946F0281E691E00E946F028BE592E024
:100CF0000E94C3010E944805EB0160E7C62E67E130
:100D0000D62EE12CF12C0E9448056C1B7D0B683E11
:100D10007340C8F391E0C91AD108E108F108C8513D
:100D2000DC4FC114D104E104F10469F781E791E0DB
:100D30000E946F0222242394312C80917D0288230B
:100D400011F061E001C060E08DE00E94C604809176
:100D500060039091610381309105B1F410926103B9
:100D60001092600390935F0380935E0380917D02F5
:100D7000811104C081E080937D0202C010927D0247
:100D800082E593E00E94610182E593E00E941401F4
:100D900080915003909151038130910571F410922C
:100DA00051031092500390934F0380934E030E947F
:100DB0008C0082E493E00E94610182E493E00E944F
:100DC000140180915002813029F482E390E0A0E088
:100DD000B0E004C084EF91E0A0E0B0E080935A035B
:100DE00090935B03A0935C03B0935D0330925F0329
:100DF00020925E03809140039091410381309105E0
:100E000059F4109241031092400390933F03809352
:100E10003E0381E0809351020E945502811104C07B
:100E200080919E02813029F482E393E00E941401B4
:100E300006C01092510282E393E00E94610180910A
:100E4000B2029091B3028130910509F049C110922C
:100E5000B3021092B2029093B1028093B00284EA7E
:100E600092E00E9461018091C402803108F05FC06D
:100E7000F82E44E0C42EC80E8091C402FC1408F081
:100E800052C00F2D10E0CF2DC81BD0E0C258DD4F4F
:100E9000FE01E55AFF4F208130E0F901E255FF4F96
:100EA0008491F901E656FF4FD490F901EA57FF4FBC
:100EB000E490EE2079F081110E949D04EE2DF0E087
:100EC000EE0FFF1FE859FF4FA591B491EC91DE2280
:100ED00081E009F480E0F801EB53FD4F8083C059B5
:100EE000DF4F88810E948604000F111F000F111F21
:100EF000E801CE50DD4FBC01990F880B990B0E9481
:100F0000000C2EEA37E04EE753E40E94B50C20E0D7
:100F100030EC4FE754E40E94560B688379838A8350
:100F20009B83F394A9CF8C5F8093C402DDC01092A1
:100F3000C402CEE7D2E08E01C12CD12CF801E95BCE
:100F4000FF4F908134968081892B34969081892B34
:100F500034969081892B34969081891711F0CC2496
:100F6000C39480837E0190E6E90EF11CFE01EC58EB
:100F7000FF4FDE01AC57BF4F2D913D914D915C91DC
:100F800060817181828193810E94E50AFE01EC56A5
:100F9000FF4F20813181428153810E94E50AFE0189
:100FA000EC55FF4F20813181428153810E94E50A37
:100FB00020E030E040E85EE30E94B50CD7016D937D
:100FC0007D938D939C931397D3940F5F1F4F24961B
:100FD000B4E0DB12B3CFCC2009F486C08091D702F5
:100FE000811115C08091D502813051F48091D602D3
:100FF000811108C087E791E00E946F0211E014C0E0
:10100000811111C08091D6028130A1F30CC08130D2
:1010100051F48091D502882349F3813021F48091E5
:10102000D602882339F310E0C5EDD2E0C12CD12CD3
:101030007601C394899181110DC08EE891E00E94E0
:101040006F024AE0C701B6010E94850285E991E07E
:101050000E946F02EFEFCE1ADE0AEE0AFE0AF5E0FA
:10106000CF16D104E104F10429F711113DC00E940B
:10107000550281110CC00E946402882321F085EA88
:1010800091E00E946F02CEEDD2E010E019C08CED2D
:1010900091E0F7CF133009F11130C9F083E192E00C
:1010A0000E946F02699179918991999142E00E9421
:1010B000D2028BE392E00E946F021F5F1430A1F016
:1010C0008AE092E00E946F02123021F703C08DE1A6
:1010D00092E0E6CF87E292E0E3CF81E392E0E0CFD7
:1010E00084EA92E00E9414018091C2029091C302AE
:1010F0008130910509F0D7C01092C3021092C2024C
:101100009093C1028093C00284EB92E00E9461013F
:101110008090DE029090DF02A090E002B090E102A9
:101120004090E2025090E3026090E4027090E50289
:1011300020E030E040E251E4C501B4010E94B50C6A
:1011400020E030E048EC52E40E94560B9B01AC01D9
:10115000C501B4010E94E40AA30192010E94B00CEF
:10116000C090E602D090E702E090E802F090E90239
:1011700020E030E040E251E41816DCF4C701B6018B
:101180000E94B50C20E030E048EC52E40E94560B7F
:101190009B01AC01C701B6010E94E40A9B01AC01AE
:1011A000C501B4010E94510B881F8827881F880F32
:1011B0001AC0C701B6010E94B50C20E030E048EC2F
:1011C00052E40E94560B9B01AC01C701B6010E947C
:1011D000E40A9B01AC01C301B2010E94510B881FBC
:1011E0008827881F8F5F8093DD020E946402C1E020
:1011F000D82FDC270E9455028C278093A302909160
:101200009E02913059F018F09230B9F412C0DD23EB
:10121000A1F0882391F00E94C40311C0DD2369F07E
:101220008823C9F31092A1028EE792E00E94610127
:1012300006C0DD2311F0882371F30E9471020E9421
:101240006402882311F061E001C060E08CE00E943C
:10125000C60480919E02833031F0811106C08091D6
:10126000A302811102C061E001C060E087E00E943A
:10127000C60480919E028130D9F4C8E0D1E060E0DC
:1012800089910E94C6048BE091E08C179D07B9F705
:1012900080915102882311F061E001C060E086E096
:1012A0000E94C6044ACD84EB92E00E9414019DCFB7
:1012B0000091DD0260E086E00E94C604C8E0D1E053
:1012C00010E0101306C080915102882311F061E0F4
:1012D00001C060E088810E94C6041F5F2196133020
:1012E00081F72BCD8F929F92AF92BF92CF92DF92D8
:1012F000EF92FF920F931F93CF93DF93CDB7DEB79B
:10130000C056D1090FB6F894DEBF0FBECDBF109204
:101310005E0210925D0288EE93E0A0E0B0E0809360
:101320005F0290936002A0936102B09362028CE22C
:1013300091E090935C0280935B0286EA93E0909345
:1013400068028093670282E693E090936A0280933A
:10135000690285EC90E090936C0280936B0284ECC0
:1013600090E090936E0280936D0280EC90E09093F9
:10137000700280936F0281EC90E0909372028093F0
:10138000710282EC90E0909374028093730286EC79
:1013900090E0909376028093750284E080937702C8
:1013A00083E08093780287E08093790285E08093E0
:1013B0007A0211E010937B0282E593E00E946F01B4
:1013C00082E493E00E946F0182E393E00E946F0148
:1013D0008EE792E00E946F0110928E0210928F02AF
:1013E00010929002109291021092A0021093A20209
:1013F0000E94710288EB9BE0A0E0B0E080938E0237
:1014000090938F02A0939002B09391020E94710278
:1014100080E797E1A0E0B0E080939202909393027E
:10142000A0939402B09395028091A002811102C012
:101430001093A0020E94710288EB9BE0A0E0B0E054
:101440008093960290939702A0939802B09399028A
:101450008091A002823018F482E08093A0020E9462
:1014600071021092A20284EA92E00E946F0184EB62
:1014700092E00E946F0180900C0190900D01A0906D
:101480000E01B0900F0180E1E0E1F1E0DE01AF5A22
:10149000BF4F01900D928A95E1F780E18E010F5BBD
:1014A0001F4FF801482F11924A95E9F790E49E01E9
:1014B0002F5F3F4FF901492F11924A95E9F7C090EC
:1014C0002001D0902101E0902201F0902301409171
:1014D00024015091250160912601709127011092FD
:1014E000C4028092D5029092D602A092D702B09206
:1014F000D802FE01EF5AFF4FA5ECB2E0B82E0190E2
:101500000D92BA94E1F7C092D902D092DA02E09239
:10151000DB02F092DC024093EE025093EF02609304
:10152000F0027093F102F801AEEDB2E001900D927D
:101530008A95E1F7F901A2EFB2E001900D929A9538
:10154000E1F78EE190E0A0E0B0E08093AC029093F0
:10155000AD02A093AE02B093AF0201E010E0109391
:10156000B1020093B00284EA92E00E94610182E33A
:1015700090E0A0E0B0E08093BC029093BD02A09305
:10158000BE02B093BF021093C1020093C00284EB6D
:1015900092E00E94610110927D02C05ADF4F0FB6A7
:1015A000F894DEBF0FBECDBFDF91CF911F910F9199
:1015B000FF90EF90DF90CF90BF90AF909F908F9073
:1015C0000895F8940C944F0D5058BB27AA270E94F9
:1015D000FC0A0C94760C0E94680C38F00E946F0C88
:1015E00020F039F49F3F19F426F40C94650C0EF4A6
:1015F000E095E7FB0C945F0CE92F0E94870C58F3F1
:10160000BA17620773078407950720F079F4A6F5E7
:101610000C94A90C0EF4E0950B2EBA2FA02D0B0103
:10162000B90190010C01CA01A0011124FF27591B27
:1016300099F0593F50F4503E68F11A16F040A22F2D
:10164000232F342F4427585FF3CF4695379527959E
:10165000A795F0405395C9F77EF41F16BA0B620B9D
:10166000730B840BBAF09150A1F0FF0FBB1F661FE4
:10167000771F881FC2F70EC0BA0F621F731F841F27
:1016800048F4879577956795B795F7959E3F08F04D
:10169000B0CF9395880F08F09927EE0F979587950F
:1016A00008950E943B0C08F481E008950E946A0BA3
:1016B0000C94760C0E946F0C58F00E94680C40F05D
:1016C00029F45F3F29F00C945F0C51110C94AA0C83
:1016D0000C94650C0E94870C68F39923B1F3552391
:1016E00091F3951B550BBB27AA2762177307840735
:1016F00038F09F5F5F4F220F331F441FAA1FA9F3CB
:1017000035D00E2E3AF0E0E832D091505040E695B8
:10171000001CCAF72BD0FE2F29D0660F771F881F19
:10172000BB1F261737074807AB07B0E809F0BB0B0C
:10173000802DBF01FF2793585F4F3AF09E3F510520
:1017400078F00C945F0C0C94AA0C5F3FE4F3983E85
:10175000D4F3869577956795B795F7959F5FC9F709
:10176000880F911D9695879597F90895E1E0660F8A
:10177000771F881FBB1F621773078407BA0720F003
:10178000621B730B840BBA0BEE1F88F7E09508956C
:101790000E94CF0B6894B1110C94AA0C08950E947A
:1017A0008F0C88F09F5798F0B92F9927B751B0F058
:1017B000E1F0660F771F881F991F1AF0BA95C9F7D5
:1017C00014C0B13091F00E94A90CB1E008950C94BE
:1017D000A90C672F782F8827B85F39F0B93FCCF371
:1017E000869577956795B395D9F73EF49095809552
:1017F000709561957F4F8F4F9F4F0895E89409C072
:1018000097FB3EF490958095709561957F4F8F4F33
:101810009F4F9923A9F0F92F96E9BB279395F69549
:10182000879577956795B795F111F8CFFAF4BB0FC7
:1018300011F460FF1BC06F5F7F4F8F4F9F4F16C02B
:10184000882311F096E911C0772321F09EE8872FB5
:10185000762F05C0662371F096E8862F70E060E071
:101860002AF09A95660F771F881FDAF7880F9695EA
:10187000879597F90895990F0008550FAA0BE0E88E
:10188000FEEF16161706E807F907C0F01216130642
:10189000E407F50798F0621B730B840B950B39F482
:1018A0000A2661F0232B242B252B21F408950A26E8
:1018B00009F4A140A6958FEF811D811D089597F928
:1018C0009F6780E870E060E008959FEF80EC0895E6
:1018D00000240A941616170618060906089500240F
:1018E0000A9412161306140605060895092E039489
:1018F000000C11F4882352F0BB0F40F4BF2B11F4FD
:1019000060FF04C06F5F7F4F8F4F9F4F089557FD5B
:101910009058440F551F59F05F3F71F04795880F5D
:1019200097FB991F61F09F3F79F0879508951216F4
:1019300013061406551FF2CF4695F1DF08C01616A0
:1019400017061806991FF1CF869571056105089451
:101950000895E894BB2766277727CB0197F9089568
:101960000E943B0C08F48FEF08950E94C80C0C9461
:10197000760C0E94680C38F00E946F0C20F09523C2
:1019800011F00C945F0C0C94650C11240C94AA0CAF
:101990000E94870C70F3959FC1F3950F50E0551F7F
:1019A000629FF001729FBB27F00DB11D639FAA27B4
:1019B000F00DB11DAA1F649F6627B00DA11D661F03
:1019C000829F2227B00DA11D621F739FB00DA11D24
:1019D000621F839FA00D611D221F749F3327A00DDE
:1019E000611D231F849F600D211D822F762F6A2F7A
:1019F00011249F5750409AF0F1F088234AF0EE0FDF
:101A0000FF1FBB1F661F771F881F91505040A9F70B
:101A10009E3F510580F00C945F0C0C94AA0C5F3F24
:101A2000E4F3983ED4F3869577956795B795F79547
:101A3000E7959F5FC1F7FE2B880F911D96958795BF
:101A400097F908950E943B0C880B990B0895A1E229
:101A50001A2EAA1BBB1BFD010DC0AA1FBB1FEE1F28
:101A6000FF1FA217B307E407F50720F0A21BB30B73
:101A7000E40BF50B661F771F881F991F1A9469F7EF
:101A800060957095809590959B01AC01BD01CF014B
:101A90000895EE0FFF1F0590F491E02D0994F8943E
:021AA000FFCF76
:101AA2000F101112090A0B020304050601010101BC
:101AB2000101010101010101010101010101010114
:101AC200090A0B020F1011120000000081011B0213
:101AD2000A02CE01EE01C30176426174204C4F57D7
:101AE200213A2000496E697469616C697A696E678E
:101AF200202E2E2E20004F6B0A00764261743A206F
:101B020000426F6F742044656C6179202E2E2E2066
:101B120000446F6E650A0041626E6F726D616C20E7
:101B2200706F77657220696E707574210A00506853
:101B320061736520003A20646973636F6E6E65633A
:101B42007465640A004E6F20706F77657220707240
:101B52006573656E7420617420746865206D6169B7
:101B62006E732C207374617274696E672067656E80
:101B7200657261746F72202E2E2E0A00506F776587
:101B8200722070726573656E742C207265636F6E5D
:101B92006E656374696E6720746F20746865206D6A
:101BA20061696E73202E2E2E0A00566F6C74616767
:101BB200652000706861736520523A200070686188
:101BC200736520533A2000706861736520543A208F
:101BD20000706861736520473A2000560A006E6102
:0C1BE2006E00696E66006F7666002E00D3
:00000001FF
