:100000000C9462000C948A000C948A000C948A0070
:100010000C948A000C948A000C948A000C948A0038
:100020000C948A000C948A000C948A000C948A0028
:100030000C948A000C948A000C948A000C948A0018
:100040000C94EE040C948A000C94B4040C9479047F
:100050000C948A000C948A000C948A000C948A00F8
:100060000C948A000C948A000000000023002600F3
:10007000290000000000240027002A0000000000E2
:10008000250028002B0004040404040404040202D4
:100090000202020203030303030301020408102007
:1000A0004080010204081020010204081020000012
:1000B0000007000201000003040600000000000029
:1000C0000000380511241FBECFEFD8E0DEBFCDBF42
:1000D00012E0A0E0B1E0EAEAF7E102C005900D927B
:1000E000A031B107D9F723E0A0E1B2E001C01D9231
:1000F000A833B207E1F710E0C2E6D0E004C02197D0
:10010000FE010E94CD0BC136D107C9F70E94AB0694
:100110000C9465090C94000080911303811110C0A8
:1001200080911003882351F080911103882331F0CE
:1001300081E090911203992321F002C081E008959B
:1001400080E008950F931F93CF93DF93FC01A68562
:10015000B7858D01005C1F4FE80188819981019668
:100160008F739927AD014E5B5F4FEA01288139817A
:1001700028173907D1F3E80128813981A20FB31F6D
:100180006C93A685B785A05CBF4F11969C938E9308
:10019000A689B7892C9181E090E0078C02C0880F76
:1001A000991F0A94E2F7822B8C9381E081A3048843
:1001B000F589E02D80818064808381E090E0DF918B
:1001C000CF911F910F910895FC0181A1882329F0FF
:1001D000A489B5898C9186FFFBCF11A20895FC01FB
:1001E000A485B585FD01E05CFF4F20813181329609
:1001F000808191812817390779F080819181A80F3A
:10020000B91F8C91208131812F5F3F4F2F7333278E
:100210003183208390E008958FEF9FEF0895DC01F4
:100220001C96ED91FC911D97DF01A05CBF4F2D91B5
:100230003C91119712968D919C911197281739072F
:1002400039F08D919C91E80FF91F808190E008951D
:100250008FEF9FEF0895FC0124853585F901E05C5F
:10026000FF4F80819181329620813181821B930BD7
:100270008F73992708950895CF92DF92EF92FF929E
:100280000F931F93CF93DF936C01EB017B01E40E7F
:10029000F51E00E010E0CE15DF0561F06991D60192
:1002A000ED91FC910190F081E02DC6010995080FB8
:1002B000191FF1CFC801DF91CF911F910F91FF90CE
:1002C000EF90DF90CF900895833081F028F4813053
:1002D00099F08230A1F008958630A9F08730B9F006
:1002E0008430D1F4809180008F7D03C080918000A4
:1002F0008F7780938000089584B58F7702C084B58E
:100300008F7D84BD08958091B0008F7703C0809168
:10031000B0008F7D8093B00008951F93CF93DF933B
:10032000282F30E0F901E255FF4F8491F901E6569C
:10033000FF4FD491F901EA57FF4FC491CC23C1F08C
:10034000162F81110E946401EC2FF0E0EE0FFF1FC9
:10035000E458FF4FA591B4919FB7F894111104C0D0
:100360008C91D095D82302C0EC91DE2BDC939FBFFB
:10037000DF91CF911F910895CF93DF9390E0FC011F
:10038000E656FF4F2491FC01EA57FF4F84918823E2
:1003900061F190E0880F991FFC01EE58FF4FC59165
:1003A000D491FC01E458FF4FA591B491611109C0AB
:1003B0009FB7F8948881209582238883EC912E231F
:1003C0000BC0623061F49FB7F8948881322F30956A
:1003D00083238883EC912E2B2C939FBF06C08FB76D
:1003E000F894E8812E2B28838FBFDF91CF91089559
:1003F0003FB7F89480911A0290911B02A0911C02C1
:10040000B0911D0226B5A89B05C02F3F19F001969B
:10041000A11DB11D3FBFBA2FA92F982F8827820F8A
:10042000911DA11DB11DBC01CD0142E0660F771FDA
:10043000881F991F4A95D1F708950F931F93FC01C8
:100440008FB7F894409116025091170260911802EC
:10045000709119028FBF848595850197C9F4008139
:1004600011812281338184819581A681B781840F96
:10047000951FA61FB71F401751076207730720F08B
:10048000801B910BA20BB30B84839583A683B78348
:10049000408351836283738380859185A285B38570
:1004A0000097A105B10589F0448155816681778166
:1004B00084179507A607B70750F481E090E0978767
:1004C00086871482158216821782158614861F91DC
:1004D0000F910895CF93DF93EC010E941D021C82BF
:1004E0001D821E821F821F861E86DF91CF91089576
:1004F000E9ECF2E010A211A280899189A289B38966
:1005000080879187A287B38781E090E09587848771
:1005100013A2CF010C946A028091D7029091D80265
:1005200081309105B9F51092D8021092D7029093BC
:10053000D6028093D5028091EA029091EB0298173F
:1005400060F08F5F8093EA028091E9028F5F809371
:10055000E90289EC92E00E946A0281E08093EC0259
:10056000E091EA0284E0E89FF0011124E752FD4F98
:1005700080819181A281B3818093D1029093D20234
:10058000A093D302B093D40281E090E09093D6027E
:100590008093D5029091EA028091EB02891728F4AA
:1005A0008091ED0281110E94780289EC92E00C9416
:1005B0001D02009769F0FC0101900020E9F73197D6
:1005C000AF01481B590BBC0186EA92E00C943C0138
:1005D00080E090E008950C94D9028F929F92AF92A0
:1005E000BF92EF92FF920F931F93CF93DF93CDB7FC
:1005F000DEB7A1970FB6F894DEBF0FBECDBF162FA2
:10060000042F19A2423008F40AE07E0121E2E20E32
:10061000F11C802E912CA12CB12C612FA5019401ED
:100620000E94AB0B029F1019112481E0E81AF10817
:100630001A3014F4105D01C0195CF7011083122FF9
:10064000732FCA01232B242B252B39F7C7010E94B6
:10065000D902A1960FB6F894DEBF0FBECDBFDF91D1
:10066000CF911F910F91FF90EF90BF90AF909F900F
:100670008F9008954F925F926F927F928F929F9288
:10068000AF92BF92CF92DF92EF92FF92CF93DF9320
:100690006B017C01B42E9B01AC010E94A60B882348
:1006A00019F080E391E027C026013701E89477F83C
:1006B0002FEF3FEF4FE75FE7C301B2010E94A60BA8
:1006C00081110DC02FEF3FEF4FE75FE7C301B2018C
:1006D0000E94D50918161CF484E391E00CC02FEF9A
:1006E0003FEF4FE75FE4C701B6010E94340B1816D5
:1006F00094F488E391E0DF91CF91FF90EF90DF9049
:10070000CF90BF90AF909F908F907F906F905F90B1
:100710004F900C94D9022FEF3FEF4FE75FECC701EA
:10072000B6010E94D50987FDE4CF20E030E0A901A1
:10073000C701B6010E94D50987FF0BC06DE286EAAA
:1007400092E00E94A200EC01F7FAF094F7F8F0941E
:1007500002C0C0E0D0E0A12C60E070E080E09FE348
:10076000BA1441F020E030E040E251E40E94DA099E
:10077000A394F6CFA70196010E9469096B017C0141
:100780000E94530A2B013C014AE00E94ED02C80F6F
:10079000D91FBB2009F450C0C301B2010E94820AD4
:1007A0009B01AC01C701B6010E9468092B013C0105
:1007B0008CE391E00E94D902C80FD91FFB2C20E0E6
:1007C00030E040E251E4C301B2010E94390B2B0139
:1007D0003C010E944C0A4B01770FAA08BB08B7FEE8
:1007E00015C06DE286EA92E00E94A2006C018827A3
:1007F0009927DC0188199909AA09BB094AE0BC01BB
:10080000CD010E94ED028C0D9D1D05C04AE0C50181
:10081000B4010E94ED02C80FD91FC501B4010E94A6
:10082000840A9B01AC01C301B2010E9468092B013B
:100830003C01FA94F110C3CFCE01DF91CF91FF902C
:10084000EF90DF90CF90BF90AF909F908F907F9070
:100850006F905F904F90089580E480937C0080912A
:100860007A00806480937A0080917A0086FDFCCFC4
:10087000609178008091790070E0782B072E000C51
:10088000880B990B0E94840A20E030E040E851E494
:100890000E94390B20E030E040E85AE30E94390B17
:1008A00060931002709311028093120290931302CE
:1008B00026E636E646E451E40E94D5091816B4F05F
:1008C00081E0809314028EE391E00E94EB0260913C
:1008D000100270911102809112029091130242E075
:1008E0000E943A0382E991E00C94EB021092140208
:1008F00008951F920F920FB60F9211242F933F93DA
:100900008F939F93EF93FF9320915E0230915F024C
:1009100080916002909161022817390731F480912B
:10092000C1008F7D8093C10014C0E0916002F091FE
:100930006102E25EFD4F2081809160029091610230
:1009400001968F73992790936102809360022093A0
:10095000C600FF91EF919F918F913F912F910F9042
:100960000FBE0F901F9018951F920F920FB60F9207
:1009700011242F934F935F938F939F93EF93FF9344
:100980008091C00082FD1CC02091C6008091A2020F
:100990009091A3024091A4025091A50201968F73F9
:1009A00099274817590771F0E091A202F091A3022C
:1009B000EE59FD4F20839093A3028093A20202C0C0
:1009C0008091C600FF91EF919F918F915F914F9120
:1009D0002F910F900FBE0F901F9018951F920F929E
:1009E0000FB60F9211242F933F938F939F93AF9342
:1009F000BF938091160290911702A0911802B091B6
:100A000019023091150223E0230F2D3720F40196AF
:100A1000A11DB11D05C026E8230F0296A11DB11D21
:100A2000209315028093160290931702A093180248
:100A3000B093190280911A0290911B02A0911C029E
:100A4000B0911D020196A11DB11D80931A029093D1
:100A50001B02A0931C02B0931D02BF91AF919F9106
:100A60008F913F912F910F900FBE0F901F9018956F
:100A70000F931F93CF93DF93CDB7DEB760970FB679
:100A8000F894DEBF0FBECDBF1092A9021092A8024B
:100A900088EE93E0A0E0B0E08093AA029093AB02CE
:100AA000A093AC02B093AD0284E291E09093A702D0
:100AB0008093A60282E692E09093B3028093B20202
:100AC0008EE192E09093B5028093B40285EC90E0C1
:100AD0009093B7028093B60284EC90E09093B902B1
:100AE0008093B80280EC90E09093BB028093BA02AE
:100AF00081EC90E09093BD028093BC0282EC90E088
:100B00009093BF028093BE0286EC90E09093C10266
:100B10008093C00284E08093C20283E08093C3028A
:100B200087E08093C40285E08093C50211E01093B2
:100B3000C60210922C0310922D0310922E031092D5
:100B40002F03109235031092340310923003109249
:100B50003103109232031092330310922803109243
:100B6000290310922A0310922B031092370310923C
:100B7000360310921C0310921D0310921E03109254
:100B80001F03109225031092240310922003109249
:100B90002103109222031092230310921803109243
:100BA000190310921A0310921B031092270310923C
:100BB00026031092CD021092CE021092CF02109214
:100BC000D0021092D6021092D5021092D102109249
:100BD000D2021092D3021092D4021092C902109243
:100BE000CA021092CB021092CC021092D80210923C
:100BF000D7021092D9021092DA021092DB02109200
:100C0000DC021092EB021093ED020E94780280E366
:100C100095E7A0E0B0E08093D9029093DA02A09328
:100C2000DB02B093DC020E94780280E69AEEA0E03C
:100C3000B0E08093DD029093DE02A093DF02B093D8
:100C4000E0028091EB02811102C01093EB020E943E
:100C5000780280E395E7A0E0B0E08093E102909312
:100C6000E202A093E302B093E4028091EB028230AF
:100C700018F482E08093EB020E9478021092ED0259
:100C80001092F3021092F4021092F5021092F60202
:100C90001092EF021092F0021092F1021092F20202
:100CA0001092FE021092FD020091080110910901BC
:100CB00020910A0130910B0180E1ECE0F1E0DE01CE
:100CC000119601900D928A95E1F740911C01509187
:100CD0001D0160911E0170911F011092FF0200938F
:100CE000100310931103209312033093130380E138
:100CF000FE013196A0E0B3E001900D928A95E1F7F4
:100D000040931403509315036093160370931703D5
:100D10008EE190E0A0E0B0E08093F7029093F802BB
:100D2000A093F902B093FA0281E090E09093FC0264
:100D30008093FB028FEE92E00E946A021092C8023A
:100D400060960FB6F894DEBF0FBECDBFDF91CF9196
:100D50001F910F910895789484B5826084BD84B505
:100D6000816084BD85B5826085BD85B5816085BDA6
:100D700080916E00816080936E001092810080915E
:100D800081008260809381008091810081608093E6
:100D90008100809180008160809380008091B1000B
:100DA00084608093B1008091B00081608093B00036
:100DB00080917A00846080937A0080917A008260CA
:100DC00080937A0080917A00816080937A0080918C
:100DD0007A00806880937A001092C100E091BA0294
:100DE000F091BB0281E090E09C010090C60202C03D
:100DF000220F331F0A94E2F72083E091B602F091AC
:100E0000B7021082E091B802F091B9022FEC208372
:100E10001092C702E091BC02F091BD0240819C019A
:100E20000090C20202C0220F331F0A94E2F7242B63
:100E30002083E091BC02F091BD0240819C010090B2
:100E4000C30202C0220F331F0A94E2F7242B20832F
:100E5000E091BC02F091BD0240819C010090C4026F
:100E600002C0220F331F0A94E2F7242B2083E09163
:100E7000BC02F091BD0220810090C50202C0880F23
:100E8000991F0A94E2F78095822380838AE491E097
:100E90000E94EB0261E08DE00E94BC01C4E0D1E061
:100EA00060E089910E94BC0181E0C830D807C1F799
:100EB000C0E0D1E061E089910E94BC0181E0C430D2
:100EC000D807C1F761E08CE00E94BC0161E087E0D7
:100ED0000E94BC0184EF91E0A0E0B0E08093300379
:100EE00090933103A0933203B093330381E090E0F9
:100EF000909335038093340340E65AEE60E070E04F
:100F000040932003509321036093220370932303A3
:100F100090932503809324030E942C048CE591E098
:100F20000E94EB0280E691E00E94EB0260911002C9
:100F300070911102809112029091130242E00E947E
:100F40003A0382E991E00E94EB0287E691E00E9479
:100F5000EB0286EA92E00E94E4000E94F801EB01B5
:100F600050E7C52E57E1D52EE12CF12C0E94F80157
:100F70006C1B7D0B683E7340C8F381E0C81AD10832
:100F8000E108F108C851DC4FC114D104E104F104B7
:100F900069F787E791E00E94EB0234EF832E9924F2
:100FA0009394A12CB12C01E010E042E3442E512C8B
:100FB000612C712C8091C802882311F061E001C07E
:100FC00060E08DE00E948D0180913603909137039F
:100FD00081309105B1F4109237031092360390934B
:100FE0003503809334038091C802811104C081E0ED
:100FF0008093C80202C01092C80288E293E00E9467
:101000006A0288E293E00E941D028091260390917B
:1010100027038130910571F4109227031092260363
:1010200090932503809324030E942C0488E193E08D
:101030000E946A0288E193E00E941D0280911402DE
:10104000813049F440923003509231036092320370
:101050007092330308C08092300390923103A092C3
:101060003203B0923303109335030093340380911D
:10107000FD029091FE028130910509F019C1109294
:10108000FE021092FD029093FC028093FB028FEE11
:1010900092E00E946A028091FF02803108F038C01D
:1010A000F82E24E0D22ED80E8091FF02FD1460F5B8
:1010B000CF2DD0E0EF2DE81BF0E0EC5EFC4F20815F
:1010C00030E0F901E255FF4F8491F901E656FF4FF8
:1010D000E490F901EA57FF4FC490CC2079F08111D8
:1010E0000E946401EC2DF0E0EE0FFF1FE859FF4F66
:1010F000A591B491EC91EE2281E009F480E0C75310
:10110000DD4F8FABF394D0CF8C5F8093FF027AC01A
:101110001092FF02E9ECF2E024E030E097A983AD01
:10112000892B97AD892BDF01AD5BBF4F9C91892B3C
:1011300014969C91891331E08C93215031962111A2
:10114000EDCF332309F45EC080911203811116C0E4
:1011500080911003813059F480911103811109C0ED
:101160008DE791E00E94EB023324339414C0811187
:1011700011C080911103813099F30CC0813051F47A
:1011800080911003882341F3813021F48091110371
:10119000882331F3312CC0E1D3E0C12CD12C76016E
:1011A000C394899181110DC084E991E00E94EB0202
:1011B0004AE0C701B6010E94ED028BE991E00E946E
:1011C000EB028FEFC81AD80AE80AF80A85E0C816B9
:1011D000D104E104F10429F7311014C08091100307
:1011E000882341F080911103882321F0809112031C
:1011F000811163C00E948C00882321F08BEA91E06A
:101200000E94EB020E948C0091E0892790911003CC
:10121000992349F090911103992329F021E09091AD
:101220001203911101C020E091E092279093EE0209
:101230002091E902213059F018F02230B9F412C09F
:101240008823A1F0992391F00E948C0211C0882379
:1012500069F09923C9F31092EC0289EC92E00E94A4
:101260006A0206C0882311F0992371F30E94780264
:101270000E948C00882311F061E001C060E08CE0E6
:101280000E948D018091E902833031F0811106C006
:101290008091EE02811102C061E001C060E087E050
:1012A0000E948D018091E902813051F461E009C012
:1012B0008FEE92E00E941D02A5CF82EE91E0A0CFBA
:1012C00060E086E00E948D0175CEF8940C94D30BFB
:1012D0005058BB27AA270E9480090C94FA0A0E9442
:1012E000EC0A38F00E94F30A20F039F49F3F19F419
:1012F00026F40C94E90A0EF4E095E7FB0C94E30A5B
:10130000E92F0E940B0B58F3BA1762077307840783
:10131000950720F079F4A6F50C942D0B0EF4E095CA
:101320000B2EBA2FA02D0B01B90190010C01CA019F
:10133000A0011124FF27591B99F0593F50F4503E4A
:1013400068F11A16F040A22F232F342F4427585F3C
:10135000F3CF469537952795A795F0405395C9F754
:101360007EF41F16BA0B620B730B840BBAF091500C
:10137000A1F0FF0FBB1F661F771F881FC2F70EC0AB
:10138000BA0F621F731F841F48F48795779567957E
:10139000B795F7959E3F08F0B0CF9395880F08F06A
:1013A0009927EE0F9795879508950E94BF0A08F434
:1013B00081E008950E94EE090C94FA0A0E94F30A53
:1013C00058F00E94EC0A40F029F45F3F29F00C9499
:1013D000E30A51110C942E0B0C94E90A0E940B0B9A
:1013E00068F39923B1F3552391F3951B550BBB2754
:1013F000AA2762177307840738F09F5F5F4F220F99
:10140000331F441FAA1FA9F335D00E2E3AF0E0E88F
:1014100032D091505040E695001CCAF72BD0FE2FD9
:1014200029D0660F771F881FBB1F2617370748076D
:10143000AB07B0E809F0BB0B802DBF01FF27935825
:101440005F4F3AF09E3F510578F00C94E30A0C94FC
:101450002E0B5F3FE4F3983ED4F38695779567951E
:10146000B795F7959F5FC9F7880F911D969587955A
:1014700097F90895E1E0660F771F881FBB1F621779
:1014800073078407BA0720F0621B730B840BBA0B37
:10149000EE1F88F7E09508950E94530A6894B111F1
:1014A0000C942E0B08950E94130B88F09F5798F010
:1014B000B92F9927B751B0F0E1F0660F771F881F59
:1014C000991F1AF0BA95C9F714C0B13091F00E9473
:1014D0002D0BB1E008950C942D0B672F782F8827E2
:1014E000B85F39F0B93FCCF3869577956795B3959A
:1014F000D9F73EF490958095709561957F4F8F4F09
:101500009F4F0895E89409C097FB3EF4909580950D
:10151000709561957F4F8F4F9F4F9923A9F0F92FB9
:1015200096E9BB279395F695879577956795B79537
:10153000F111F8CFFAF4BB0F11F460FF1BC06F5F1D
:101540007F4F8F4F9F4F16C0882311F096E911C02F
:10155000772321F09EE8872F762F05C0662371F050
:1015600096E8862F70E060E02AF09A95660F771F64
:10157000881FDAF7880F9695879597F90895990F40
:101580000008550FAA0BE0E8FEEF16161706E8074D
:10159000F907C0F012161306E407F50798F0621B6E
:1015A000730B840B950B39F40A2661F0232B242B43
:1015B000252B21F408950A2609F4A140A6958FEF62
:1015C000811D811D089597F99F6780E870E060E0B4
:1015D00008959FEF80EC089500240A9416161706CC
:1015E00018060906089500240A9412161306140614
:1015F00005060895092E0394000C11F4882352F077
:10160000BB0F40F4BF2B11F460FF04C06F5F7F4F2E
:101610008F4F9F4F089557FD9058440F551F59F015
:101620005F3F71F04795880F97FB991F61F09F3FCF
:1016300079F087950895121613061406551FF2CFF8
:101640004695F1DF08C0161617061806991FF1CF48
:1016500086957105610508940895E894BB2766276F
:101660007727CB0197F908950E94BF0A08F48FEFFE
:1016700008950E944C0B0C94FA0A0E94EC0A38F070
:101680000E94F30A20F0952311F00C94E30A0C94C5
:10169000E90A11240C942E0B0E940B0B70F3959FFA
:1016A000C1F3950F50E0551F629FF001729FBB2759
:1016B000F00DB11D639FAA27F00DB11DAA1F649FF5
:1016C0006627B00DA11D661F829F2227B00DA11DA8
:1016D000621F739FB00DA11D621F839FA00D611D2E
:1016E000221F749F3327A00D611D231F849F600D4F
:1016F000211D822F762F6A2F11249F5750409AF078
:10170000F1F088234AF0EE0FFF1FBB1F661F771F03
:10171000881F91505040A9F79E3F510580F00C94CE
:10172000E30A0C942E0B5F3FE4F3983ED4F38695C6
:1017300077956795B795F795E7959F5FC1F7FE2B6E
:10174000880F911D9695879597F908950E94BF0A75
:10175000880B990B0895A1E21A2EAA1BBB1BFD0151
:101760000DC0AA1FBB1FEE1FFF1FA217B307E40780
:10177000F50720F0A21BB30BE40BF50B661F771FD8
:10178000881F991F1A9469F76095709580959095B8
:101790009B01AC01BD01CF010895EE0FFF1F059025
:0A17A000F491E02D0994F894FFCFB6
:1017AA0003040506090A0B020101010101010101F5
:1017BA00010101010101010101010101090A0B02F3
:1017CA0000000000A2003C012B01EF000F01E40021
:1017DA006E616E00696E66006F7666002E00764254
:1017EA006174204C4F57213A2000496E697469612F
:1017FA006C697A696E67202E2E2E20004F6B0A00C4
:10180A00764261743A2000426F6F742044656C61BD
:10181A0079202E2E2E2000446F6E650A0041626EDA
:10182A006F726D616C20706F77657220696E70756A
:10183A0074210A00506861736520003A2064697354
:10184A00636F6E6E65637465640A004E6F20706F15
:10185A007765722070726573656E74206174207486
:10186A006865206D61696E732C2073746172746986
:10187A006E672067656E657261746F72202E2E2EF8
:10188A000A00506F7765722070726573656E742CEA
:10189A00207265636F6E6E656374696E6720746F1C
:1018AA0020746865206D61696E73202E2E2E0A00E1
:00000001FF
