:100000000C945C000C946E000C946E000C946E00CA
:100010000C946E000C946E000C946E000C946E00A8
:100020000C946E000C946E000C946E000C946E0098
:100030000C946E000C946E000C946E000C946E0088
:100040000C940B010C946E000C946E000C946E00DA
:100050000C946E000C946E000C946E000C946E0068
:100060000C946E000C946E00000000002400270029
:100070002A0000000000250028002B0004040404CE
:100080000404040402020202020203030303030342
:10009000010204081020408001020408102001021F
:1000A00004081020000000070002010000030406FD
:1000B000000000000000000011241FBECFEFD4E0BC
:1000C000DEBFCDBF21E0A0E0B1E001C01D92A930AC
:1000D000B207E1F70E9455010C94C0010C94000096
:1000E00090E0FC01EC55FF4F2491FC01E057FF4FDD
:1000F0003491FC01E458FF4FE491EE2309F43CC035
:10010000222339F1233091F038F42130A9F0223044
:1001100001F584B58F7D12C0263091F02730A1F013
:100120002430B9F4809180008F7D03C080918000DD
:100130008F77809380000DC084B58F7784BD09C010
:100140008091B0008F7703C08091B0008F7D809345
:10015000B000F0E0EE0FFF1FEE58FF4FA591B491F5
:100160009FB7F894611104C08C913095382302C078
:10017000EC913E2B3C939FBF08953FB7F89480913C
:10018000050190910601A0910701B091080126B5E3
:10019000A89B05C02F3F19F00196A11DB11D3FBFBF
:1001A000BA2FA92F982F8827820F911DA11DB11D4D
:1001B000BC01CD0142E0660F771F881F991F4A9549
:1001C000D1F70895CF92DF92EF92FF92CF93DF9312
:1001D0000E94BD00EB0184EFC82EDD24D394E12CF6
:1001E000F12C0E94BD006C1B7D0B683E7340C8F370
:1001F00081E0C81AD108E108F108C851DC4FC114E8
:10020000D104E104F10469F7DF91CF91FF90EF9001
:10021000DF90CF9008951F920F920FB60F92112486
:100220002F933F938F939F93AF93BF93809101013F
:1002300090910201A0910301B0910401309100015D
:1002400023E0230F2D3720F40196A11DB11D05C019
:1002500026E8230F0296A11DB11D20930001809373
:10026000010190930201A0930301B09304018091D6
:10027000050190910601A0910701B0910801019636
:10028000A11DB11D8093050190930601A093070164
:10029000B0930801BF91AF919F918F913F912F91A2
:1002A0000F900FBE0F901F901895789484B58260C0
:1002B00084BD84B5816084BD85B5826085BD85B50A
:1002C000816085BD80916E00816080936E00109288
:1002D0008100809181008260809381008091810003
:1002E0008160809381008091800081608093800094
:1002F0008091B10084608093B1008091B0008160F2
:100300008093B00080917A00846080937A0080911D
:100310007A00826080937A0080917A008160809375
:100320007A0080917A00806880937A001092C100F0
:10033000EDE9F0E02491E9E8F0E08491882399F078
:1003400090E0880F991FFC01E859FF4FA591B491E7
:10035000FC01EE58FF4F859194918FB7F894EC9182
:10036000E22BEC938FBF61E08DE00E9470000E9451
:10037000E20060E08DE00E9470000E94E200F3CF96
:0A038000F8940C94C301F894FFCF29
:00000001FF
